:020000040800F2
:10000000D80C0020710700086D0500086F05000876
:1000100073050008770500087B0500080000000054
:100020000000000000000000000000007F05000844
:100030008105000800000000830500088505000810
:100040008F0500088B0700088B0700088B07000846
:100050008B0700088B0700088D0500088B07000838
:100060008B0700088B0700088B0700088B07000828
:100070008B0700088B0700088B0700088B07000818
:100080008B0700088B0700088B0700088B07000808
:100090008B0700088B0700088B0700088B070008F8
:1000A0008B0700088B0700088B0700088B070008E8
:1000B00087050008890500088B0700088B070008E2
:1000C0008B0700088B0700088B0700088B070008C8
:1000D0008B0700088B0500088B0700088B070008BA
:1000E0008B0700088B0700088B0700088B070008A8
:1000F0008B0700088B0700088B0700088B07000898
:100100008B0700088B0700088B0700088B07000887
:100110008B0700088B0700088B0700088B07000877
:100120008B0700088B0700088B0700088B07000867
:10013000DFF80CD002F0BCFC004800474501000885
:10014000D80C0020482000F055F800F0B7F800F077
:1001500029F902F037FB02F00FF900F089F902F0FB
:10016000ADF91B48807F572817D11948C07F49280F
:1001700013D1174890F820005A280ED1144890F84F
:1001800021004E2809D1124890F82200452804D1B8
:100190000F4890F82300542809D0FF21002002F0D6
:1001A0003CFC01200B49087002F031F904E0012009
:1001B0000949087002F02BF908A002F08BFC06E058
:1001C00002F096F90A48007808B102F0E8F8F7E77B
:1001D0009000002047000020480000204E65747702
:1001E0006F726B2069732072656164792E0D0A004D
:1001F000360000204FF0E021096921F004014FF0A2
:10020000E0221161C21700EB5272C2F3C702294B00
:100210001A701946097801EB4102C2EBC1114FF681
:10022000FF7202EAC101244A118070470146224A46
:1002300012884A434FF0E0235A6100229A6101225A
:100240001A6100BF4FF0E022106900F001021AB1FC
:1002500000F48032002AF5D000224FF0E0231A612A
:100260009A61704710B5044604E04FF47A70FFF7C6
:10027000DDFF641E002CF8D110BD01460D4A127836
:100280004A434FF0E0235A6100229A6101221A6129
:1002900000BF4FF0E022106900F001021AB100F433
:1002A0008032002AF5D000224FF0E0231A619A61D3
:1002B00070470000000000200200002000B585B05B
:1002C000012144F2050000F0EFFD18208DF8030035
:1002D0004FF40070ADF8000003208DF8020069466D
:1002E0002E4800F025FB04208DF803000002ADF835
:1002F00000006946294800F01BFB4FF4E1300190F3
:100300000020ADF80800ADF80A00ADF80C00ADF81B
:1003100010000C20ADF80E00012240F225512048BB
:1003200001F087F801A91E4800F0EBFF01211C48ED
:1003300001F073F805B000BD70B504460D46E1B29A
:10034000174801F0D7F800BF8021154801F040F9A7
:100350000028F9D0204670BD10B50446214610484B
:1003600001F0C8F800BF80210D4801F031F90028E4
:10037000F9D010BD10B504460BE014F8011B084875
:1003800001F0B8F800BF8021054801F021F90028EC
:10039000F9D020780028F0D110BD000000080140FD
:1003A0000038014008B501211D2000F07DFD4FF40B
:1003B0000070ADF8000003208DF8020010208DF8C9
:1003C00003006946274800F0B3FA4FF4007125484E
:1003D00000F05BFB4020ADF8000003208DF8020028
:1003E00048208DF8030069461F4800F0A1FA4FF439
:1003F0008050ADF8000003208DF8020014208DF825
:1004000003006946194800F093FA4FF480511748E9
:1004100000F03BFB0F20ADF8000003208DF8020038
:1004200010208DF803006946104800F081FA08BDDD
:1004300008B54FF4C06000F0ADF925208DF800003C
:1004400001208DF8010000208DF8020001208DF8B8
:100450000300684600F0A3F900214FF0006000F0AF
:10046000D0F908BD000C0140001001400008014017
:1004700000B587B00121880300F023FD0121092088
:1004800000F01FFD4FF48050ADF8040003208DF8FC
:10049000060010208DF8070001A9324800F048FA44
:1004A0004FF480512F4800F0F0FA4FF46040ADF85F
:1004B000040003208DF8060018208DF8070001A91C
:1004C000284800F035FA0020ADF808004FF482709B
:1004D000ADF80A000020ADF80C00ADF80E00ADF844
:1004E00010004FF40070ADF812000820ADF81400B1
:1004F0000020ADF816000720ADF8180002A91A4830
:1005000000F05CFD0121184800F0FDFD07B000BDC2
:1005100010B504462CB94FF48051124800F0B7FAD8
:1005200005E0012C03D121030E4800F0AEFA10BD06
:1005300010B5044600BF02210B4800F068FE0028F9
:10054000F9D02146084800F00FFE00BF01210648FF
:1005500000F05DFE0028F9D0034800F007FEC0B2AD
:1005600010BD0000000C014000380040704700BF83
:10057000FEE700BFFEE700BFFEE700BFFEE77047F3
:1005800070477047704770477047704770477047B3
:100590000CB50020019000906C48006840F4803059
:1005A0006A49086000BF6948006800F400300090A4
:1005B0000198401C0190009818B90198B0F5A06FFF
:1005C000F1D16248006800F4003010B101200090C1
:1005D00001E0002000900098012843D15C480068A9
:1005E00040F010005A4908600846006820F00300F7
:1005F00008600846006840F0020008605348406800
:10060000524948600846406848600846406840F4DF
:10061000806048600846406820F47C1048600846C6
:10062000406840F4E81048600846006840F0807078
:10063000086000BF4548006800F000700028F9D04D
:100640004248406820F0030040494860084640683E
:1006500040F00200486000BF3C48406800F00C00D9
:100660000828F9D10CBD10B5FFF792FF10BD10B5E9
:100670003648006840F00100344908600846406888
:10068000344908403149486008460068324908400A
:100690002E4908600846006820F48020086008465B
:1006A000406820F4FE0048604FF41F008860FFF7A8
:1006B000DAFF4FF000602949086010BD10B5002135
:1006C00000200022214B5B6803F00C0121B10429BA
:1006D00006D0082928D107E0214B224C236027E0CF
:1006E0001F4B204C236023E0184B5B6803F4701011
:1006F000164B5B6803F48032022303EB904022B96F
:10070000194B4343174C23600DE0104B5B6803F417
:10071000003323B1144B4343124C236003E0104BCE
:100720004343104C236003E00D4B0E4C236000BF8D
:1007300000BF064B5B68C3F303130C4CE15C094B31
:100740001B68CB40074C236010BD00000010024026
:10075000002002400000FFF8FFFFF6FE08ED00E079
:1007600000127A000400002000093D00080000206B
:100770000648804706480047FEE7FEE7FEE7FEE73B
:10078000FEE7FEE7FEE7FEE7FEE7FEE76F0600088E
:100790003101000831490143314A1160704770B599
:1007A000002100230F22C47804B32D4C246804F4E4
:1007B000E064C4F5E064210AC1F10403CA4044784E
:1007C00004FA03F18478144021430901254C06788A
:1007D000A155047804F01F050124AC4005786D1183
:1007E000AD0005F1E025C5F8004109E0047804F00A
:1007F0001F050124AC401C4D0678761145F82640B3
:1008000070BD1A4A0A400243154B1B1F1A607047FD
:1008100039B1134A121D12680243114B1B1D1A6095
:1008200006E00F4A121D126882430D4B1B1D1A6011
:100830007047042808D14FF0E021096941F0040114
:100840004FF0E022116107E04FF0E021096921F04B
:1008500004014FF0E0221161704700000000FA052A
:100860000CED00E000E400E080E100E080FFFF1F0D
:1008700010B50446CC48844208D10121042000F080
:100880002DFB0021042000F029FB46E0C7488442EC
:1008900008D10121082000F021FB0021082000F0F0
:1008A0001DFB3AE0C248844208D10121102000F02B
:1008B00015FB0021102000F011FB2EE0BD48844202
:1008C00008D10121202000F009FB0021202000F0A8
:1008D00005FB22E0B848844208D10121402000F005
:1008E000FDFA0021402000F0F9FA16E0B3488442F6
:1008F00008D10121802000F0F1FA0021802000F0D1
:10090000EDFA0AE0AE48844207D10121801500F0DB
:10091000E5FA0021A01500F0E1FA10BD10B50121A3
:10092000084600F0DBFA0021012000F0D7FA10BDE4
:100930002DE9F04102460025002600200023002476
:10094000002791F803C00CF00F0591F803C00CF0DC
:10095000100CBCF1000F03D091F802C04CEA050561
:1009600091F800C0BCF1000F31D0146800202BE0DA
:100970004FF0010C0CFA00F3B1F800C00CEA0306CA
:100980009E4220D183004FF00F0C0CFA03F7BC43BA
:1009900005FA03FC4CEA040491F803C0BCF1280FEB
:1009A00006D14FF0010C0CFA00FCC2F814C00AE0AA
:1009B00091F803C0BCF1480F05D14FF0010C0CFABF
:1009C00000FCC2F810C0401C0828D1D31460B1F854
:1009D00000C0BCF1FF0F34DD546800202EE000F1B0
:1009E000080C4FF0010808FA0CF3B1F800C00CEA4B
:1009F00003069E4221D183004FF00F0C0CFA03F73F
:100A0000BC4305FA03FC4CEA040491F803C0BCF1B2
:100A1000280F05D100F1080C08FA0CF8C2F8148070
:100A200091F803C0BCF1480F07D100F1080C4FF05A
:100A3000010808FA0CF8C2F81080401C0828CED330
:100A40005460BDE8F0814FF6FF7101800221817092
:100A50000421C17070470246002093680B400BB11F
:100A6000012000E0002070470146886880B270478E
:100A700002460020D3680B400BB1012000E00020AB
:100A800070470146C86880B2704701617047416194
:100A900070470AB1016100E041617047C160704771
:100AA0004FF480320A438261816182618269826986
:100AB000704702460020434B18684FF68073184079
:100AC00040EA021008433F4B186070473E49C86136
:100AD0007047F0B50A46002300240021002500F0ED
:100AE0000046B6F1004F02D1364EF16901E0354EB5
:100AF0007168C0F3034583B200F44016B6F5401F99
:100B000008D121F070612F4E766826F070662D4F67
:100B10007E6012E000F48016B6F5801F06D1032631
:100B200006FA05F4A14341F0706106E0460D360176
:100B300003FA06F6B14341F0706122B1460D360169
:100B400003FA06F6314300F00046B6F1004F02D139
:100B50001C4EF16101E01B4E7160F0BD30B500220A
:100B60008B071C0F0F2303FA04F2164B08338C106B
:100B700053F824309343134C08348D1044F8253037
:100B800023468C1053F824308C07240F00FA04F409
:100B900023430C4C08348D1044F8253030BD0A49ED
:100BA000DC3108607047000000080140000C014083
:100BB000001001400014014000180140001C0140D9
:100BC000002001400000014000002042DF48006892
:100BD00040F00100DD49086008464068DC490840F3
:100BE000DA49486008460068DA490840D749086091
:100BF0000846006820F4802008600846406820F419
:100C0000FE0048604FF41F0088607047CF490968B4
:100C100021F48031CD4A11601146096821F4802108
:100C20001160B0F5803F03D0B0F5802F0ED106E003
:100C3000C649096841F48031C44A116007E0C349DC
:100C4000096841F4A021C14A116000E000BF00BF63
:100C5000704710B501460022002300204A11012AE6
:100C600002D1BA4C236806E0022A02D1B74C236AAB
:100C700001E0B64C636A01F01F02012494401C405D
:100C80000CB1012000E0002010BD38B5002000901C
:100C90000024002500BF3120FFF7DBFF0546009848
:100CA000401C00900098B0F5A06F01D0002DF2D04C
:100CB0003120FFF7CEFF08B1012400E000242046D8
:100CC00038BD01460020A14A106820F0F80040EA33
:100CD000C10010607047A0490860704702460020BC
:100CE0009A4B586820F47C1042EA01031843974B52
:100CF0005860704798490866704701460020934A3B
:100D0000506820F003000843506070478F484068E7
:100D100000F00C007047014600208C4A506820F01B
:100D2000F00008435060704701460020874A506831
:100D300020F4E06008435060704701460020834A79
:100D4000506820F4605040EAC1005060704729B1FB
:100D50007E4A527A02437D4B5A7204E07B4A527AB1
:100D600082437A4B5A7270477B49D831086070478A
:100D700001460020754A506820F440400843506006
:100D800070470021714A20321170704A82F8201099
:100D9000012802D004280AD104E001216B4A203244
:100DA000117005E00521694A2032117000E000BF92
:100DB00000BF70476949086070476449096A014388
:100DC000624A11627047654944390860704730B51E
:100DD00000210022002400235C4D6D6805F00C0109
:100DE00021B1042905D0082923D105E05C4D056017
:100DF00022E05B4D05601FE0544D6D6805F47012F4
:100E0000524D6D6805F48034022505EB92421CB901
:100E1000544D554305600BE04C4D6D6805F40035AD
:100E20001DB1504D5543056002E04D4D55430560E1
:100E300002E04B4D056000BF00BF444D6D6805F0FA
:100E4000F0010909484D6B5C0568DD4045603F4D88
:100E50006D6805F4E061090A434D6B5C4568DD404F
:100E600085603A4D6D6805F46051C90A3E4D6B5C72
:100E70004568DD40C560354D6D6805F44041890B1E
:100E80003A4D6B5CC568B5FBF3F5056130BD29B122
:100E90002E4A526902432D4B5A6104E02B4A526993
:100EA00082432A4B5A61704729B1284A926902430A
:100EB000264B9A6104E0254A92698243234B9A614A
:100EC000704729B1214AD2690243204BDA6104E01C
:100ED0001E4AD26982431D4BDA61704729B11B4A11
:100EE000D2680243194BDA6004E0184AD2688243A0
:100EF000164BDA60704729B1144A12690243134B4A
:100F00001A6104E0114A12698243104B1A6170475A
:100F100012494039086070470F49C86470470B494F
:100F2000C87170470948406A40F0807007494862BC
:100F3000704701460020054A92680A400AB1012024
:100F400000E000207047014988727047001002409D
:100F50000000FFF8FFFFF6FE00004242800442421C
:100F600000127A0000093D0018000020280000202F
:100F700010B50446BE48844208D101218014FFF711
:100F8000ADFF0021A014FFF7A9FF16E0B948844285
:100F900008D101210014FFF7AEFF00212014FFF754
:100FA000AAFF0AE0B448844207D10121C013FFF729
:100FB000A2FF0021E013FFF79EFF10BD10B5002235
:100FC000028802F441520B884C8823438C882343C7
:100FD000CC8823430C8923434C8923438C892343A6
:100FE000CC8923431A430280838B4FF2FF74234042
:100FF00083830B8A038210BD2DE9F04F85B005462F
:101000000C464FF0000902274FF000084FF0010B8B
:101010000026B246A88B4FF240010840A883022068
:101020002884B5F81C90A068022801D100BF38E0E0
:10103000A08810B94FF0010B01E04FF0020B8D4872
:10104000854200D100E000BF6846FFF7C0FEDDF832
:1010500000A0E088B0F5007F0AD14FEA1A2000EB2B
:1010600080004000A168B0FBF1F0401D86B20BE0AB
:101070004FEA4B10BAFBF0F000EB80004000A16893
:10108000B0FBF1F0401D86B20A20B6FBF0F606F088
:101090000108A6EB0800C0F34F074FF6FF7000EA07
:1010A0000828022F01DBFF2F02DD02274FF0000886
:1010B000E08840EA080038432884A088A1890843D2
:1010C000618808432188084340F4006040EA090928
:1010D000A5F81C9005B0BDE8F08F0021018041808B
:1010E0008180C180018141818181C181072101828B
:1010F00070470021018041808180C1800221816090
:1011000000218181704721B1028842F040020280B3
:1011100004E002884FF6BF731A400280704721B185
:10112000828B42F48062828304E0828B4FF6FF332D
:101130001A408283704730B5002400230C1101252A
:10114000A540ABB21AB185881D43858002E0858831
:101150009D43858030BD1AB183880B43838002E0B4
:1011600083888B43838070478181704701468889DB
:1011700070474FF6FF62914204D0028842F48072B9
:10118000028004E002884FF6FF631A400280704735
:1011900021B1828842F00402828004E082884FF606
:1011A000FB731A408280704702884FF2FF731A4027
:1011B000028002880A4302807047018841F480510E
:1011C0000180704721B1028842F40052028004E09D
:1011D00002884DF6FF731A400280704702460020D5
:1011E000012901D0108B00E0908A70470146088ADF
:1011F0007047B1F5804F04D1028842F480420280EA
:1012000004E002884BF6FF731A40028070470246E2
:10121000002013890B400BB1012000E00020704733
:10122000CA4302817047F0B5024600200024002323
:10123000002501F00F070126BE40B4B20B110126B4
:101240009E40B3B2968806EA03051689264016B179
:101250000DB1012000E00020F0BD10B5002201F02A
:101260000F040123A3409AB2D343038110BD0000B1
:101270000030014000380040003C004010B50446FA
:10128000FB48844209D101218803FFF727FE002192
:101290004FF48040FFF722FE32E0F648844209D145
:1012A00001214804FFF727FE00214FF40030FFF72B
:1012B00022FE25E0F048844209D101218804FFF78D
:1012C0001AFE00214FF48020FFF715FE18E0EB48CE
:1012D000844209D10121C804FFF70DFE00214FF41B
:1012E0000020FFF708FE0BE0E548844208D1012109
:1012F0000805FFF700FE00214FF48010FFF7FBFD0B
:1013000010BD2DE9F04786B005460E460024A246E2
:1013100000BFA1460027B08900B100BF2F462C8A2C
:101320004CF6FF700440F08804432C82AC894EF6E2
:10133000F3100440B088318908437189084304439D
:10134000AC81AC8A4FF6FF400440B0890443AC82C4
:1013500001A8FFF73CFDC648874202D1DDF810A086
:1013600001E0DDF80CA0A88900F4004040B10AEBD0
:10137000CA0000EB0A1031684900B0FBF1F807E041
:101380000AEBCA0000EB0A1031688900B0FBF1F8E3
:101390006420B8FBF0F004012009642101FB1089EE
:1013A000A88900F4004040B1322000EBC900B0FB36
:1013B000F1F000F00700044308E0322000EB0910D0
:1013C0006421B0FBF1F000F00F0004432C8106B063
:1013D000BDE8F0874FF41651016000218180C18083
:1013E00001810C21418100218181704710B50246A5
:1013F0000020108A4FF2FF0318400B884C882343CB
:101400008C882343CC8823431843108210BD0021CD
:10141000018041808180C180704721B1828942F47E
:101420000052828104E082894DF6FF731A40828166
:101430007047F0B50346002400260025002040F642
:101440006A17B94200D100BF1846C1F3421401F037
:101450001F06012707FA06F5012C01D10C3004E024
:10146000022C01D1103000E014301AB107682F436C
:10147000076002E00768AF430760F0BD1AB1838AD6
:101480000B43838202E0838A8B4383827047028A04
:101490004FF6F0731A400282028A0A4302827047B2
:1014A00082894FF2FF731A40828182890A438281C6
:1014B000704721B1828942F00202828104E0828970
:1014C0004FF6FD731A4082817047028A4FF6DF7330
:1014D0001A400282028A0A430282704721B1028ABC
:1014E00042F48042028204E0028A4BF6FF731A4003
:1014F00002827047C1F308028280704701468888E3
:10150000C0F308007047818941F001018181704773
:10151000028BD2B20283028B42EA0122028370471D
:10152000028B02F47F420283028B0A4302837047DC
:1015300021B1828A42F02002828204E0828A4FF640
:10154000DF731A408282704721B1828A42F0100212
:10155000828204E0828A4FF6EF731A4082827047DB
:1015600021B1828A42F00802828204E0828A4FF628
:10157000F7731A408282704721B1828942F4004297
:10158000828103E08289C2F30E028281704721B119
:10159000828A42F40062828204E0828A4FF2FF7300
:1015A0001A4082827047828A4FF6FB731A40828209
:1015B000828A0A438282704721B1828A42F0020203
:1015C000828204E0828A4FF6FD731A40828270475D
:1015D00002460020B1F5007F00D100BF13880B4008
:1015E0000BB1012000E00020704701F40072B2F559
:1015F000007F00D100BFCA430280704770B5024629
:10160000002400230025002040F66A16B14200D1D4
:1016100000BFC1F3421501F01F03012606FA03F3D0
:10162000012D02D19689334006E0022D02D1168A9F
:10163000334001E0968A33400C12012606FA04F486
:101640001688344013B10CB1012000E0002070BDB9
:1016500010B50022002340F66A14A14200D100BF59
:101660000A1201249440A3B2DC43048010BD0000A0
:10167000003801400044004000480040004C004059
:101680000050004010B504464FF4847101EB441043
:10169000102100F06AFB00BF4FF4847101EB44108D
:1016A00000F07CFB0028F7D14FF4027101EB4410ED
:1016B000FF2100F05AFB10BD2DE9F04104460D4614
:1016C0001646984605F00F0001280FD005F00F00D0
:1016D00002280BD005F00F00032807D005F00F00FB
:1016E000042803D005F00F00052841D12046FFF75C
:1016F000C9FF45EA0801082202EB441000F035FB5F
:1017000076B1310A4FF4816202EB441000F02DFBF8
:10171000F1B24FF4A16202EB441000F026FB15E099
:10172000FE480088401CFD4908800A461288110ABC
:101730004FF4816202EB441000F017FBF74A117876
:101740004FF4A16202EB441000F00FFB4FF48471E0
:1017500001EB4410012100F008FB00BF4FF484713D
:1017600001EB441000F01AFB0028F7D1012700E03C
:1017700000273846BDE8F08170B504464FF4427149
:1017800001EB441000F00AFB132811D14FF48471CF
:1017900001EB4410022100F0E8FA00BF4FF484711D
:1017A00001EB441000F0FAFA0028F7D1012500E01F
:1017B0000025284670BD2DE9F04105460C46164629
:1017C0002078FF2808D16078FF2805D1A078FF286D
:1017D00002D1E078FF2808D0207828B9607818B9BD
:1017E000A07808B9E07800B10EB900275CE00127C5
:1017F000217840F6084202EB451000F0B6FA617815
:1018000040F6085202EB451000F0AFFAA17840F61E
:10181000086202EB451000F0A8FAE17840F6087281
:1018200002EB451000F0A1FA310A41F2080202EB86
:10183000451000F09AFAF1B241F2081202EB45109D
:1018400000F093FA4FF4847101EB4510042100F08D
:101850008CFA00BF4FF4847101EB451000F09EFA42
:101860000028F7D117E04FF4427101EB451000F06A
:1018700095FA172800D116E0284600F068FC00F021
:10188000080040B14FF4027101EB4510082100F04F
:101890006CFA002707E04FF4427101EB451000F0AD
:1018A0007DFA1528DFD100BF3846BDE8F08110B5BC
:1018B00004464FF4847101EB4410082100F055FAFE
:1018C00000BF4FF4847101EB441000F067FA002868
:1018D000F7D110BD2DE9F04704468846164600258D
:1018E0000027A946204600F02BFAB04204DA204631
:1018F00000F026FA074600E0374600BF204600F019
:1019000041FC81464FF4427101EB441000F046FA6D
:101910000546172D03D01C2D01D0002701E0B94545
:10192000ECDB00BF3A464146204600F07FFC4FF416
:10193000847101EB4410202100F017FA00BF4FF42E
:10194000847101EB441000F029FA0028F7D113E06C
:101950004FF4427101EB441000F020FA0546172DB8
:101960000AD01C2D08D06EA001F0B4F82046FFF775
:1019700089FE0020BDE8F0874FF4027101EB4410AE
:1019800000F00CFA00F010001028E1D14FF40271C1
:1019900001EB4410102100F0E8F94FF4027101EB63
:1019A0004410102100F0E1F93846E3E72DE9F04159
:1019B00004460E4615460027002D15DD2A46314601
:1019C000204600F06DFC4FF4847101EB441040217F
:1019D00000F0CBF900BF4FF4847101EB441000F02C
:1019E000DDF90028F7D12F463846BDE8F0812DE912
:1019F000F0470446894616461D46089F4FF00008EA
:101A0000204600F09DF9B04204DA204600F098F933
:101A1000804600E0B046287828B9687818B9A878D8
:101A200008B9E87800B117B94FF0000863E02978E9
:101A300040F6084202EB441000F097F9697840F64E
:101A4000085202EB441000F090F9A97840F60862C1
:101A500002EB441000F089F9E97840F6087202EBD5
:101A6000441000F082F9390A41F2080202EB4410F6
:101A700000F07BF9F9B241F2081202EB441000F0D9
:101A800074F942464946204600F0D0FB4FF4847179
:101A900001EB4410202100F068F900BF4FF484717D
:101AA00001EB441000F07AF90028F7D112E04FF46E
:101AB000027101EB441000F071F900F0080048B128
:101AC0004FF4027101EB4410182100F04EF9002090
:101AD000BDE8F0874FF4027101EB441000F05EF9AD
:101AE00000F010001028E2D14FF4027101EB441015
:101AF000102100F03AF94046EAE72DE9FC5F05467F
:101B00008A4691461E46DDF8308000270024A34611
:101B1000B9F1000F71DD42F608010BE02C00002046
:101B200053454E445F4F4B2050726F626C656D2180
:101B3000210D0A0001EB451000F030F9044642F691
:101B4000081101EB451000F029F900EB042084B2E4
:101B5000200200EB451000F1180B082101EB4510A5
:101B600000F01CF900F00700022804D0032845D03B
:101B7000042878D178E008226946584600F04FF9E9
:101B800004F1080084B29DF8000030709DF8010057
:101B900070709DF80200B0709DF80300F0709DF821
:101BA0000400A8F800009DF8050098F8001000EB6C
:101BB0000120A8F800009DF806709DF8070000EBD2
:101BC000072087B2200200EB451000F1180B3A46BF
:101BD0005146584600F023F9E01984B2210A42F632
:101BE000080202EB451000F0C0F8E1B242F608121C
:101BF00002EB451000F0B9F86AE07AE00622694687
:101C0000584600F00CF9A01D84B29DF80000307019
:101C10009DF8010070709DF80200B0709DF80300FF
:101C2000F0709DF804709DF8050000EB072087B266
:101C3000200200EB451000F1180B3A465146584679
:101C400000F0EDF8E01984B2210A42F6080202EB36
:101C5000451000F08AF8E1B242F6081202EB451096
:101C600000F083F834E032E002226946584600F082
:101C7000D6F8A01C84B29DF800709DF8010000EB1E
:101C80000720801E87B240F2EA50874204DD20A080
:101C900000F020FF00BFFEE7200200EB451000F13E
:101CA000180B3A465146584600F0B9F8E01984B28C
:101CB000210A42F6080202EB451000F056F8E1B2A4
:101CC00042F6081202EB451000F04FF800E000BFAA
:101CD00000BF4FF4847101EB4510402100F045F83E
:101CE00000BF4FF4847101EB451000F057F8002855
:101CF000F7D13846BDE8FC9F10B5002404E020462B
:101D0000FFF7C0FC601CC4B2072CF8DB10BD00005C
:101D1000646174615F6C656E206F76657220313529
:101D200031340D0A000000000146FA48405C70475B
:101D3000F84A115470470146F74830F811007047CF
:101D40000146F64830F81100704710B50020FEF744
:101D5000DFFB10BD10B50120FEF7DAFB10BD10B59A
:101D600004462046FEF7E4FB10BD70B504460D4660
:101D7000FFF7EBFFC4F30740FFF7F1FFC4F30720C1
:101D8000FFF7EDFF04F0F801091DC8B2FFF7E7FF08
:101D90002846FFF7E4FFFFF7DDFF70BD70B504468E
:101DA0000025FFF7D2FFC4F30740FFF7D8FFC4F3C5
:101DB0000720FFF7D4FF04F0F800FFF7D0FF002062
:101DC000FFF7CDFF0546FFF7C5FF284670BD2DE99B
:101DD000F04104460F461546002615B9D0A000F084
:101DE00079FEFFF7B2FFC4F30740FFF7B8FFC4F373
:101DF0000720FFF7B4FF04F0F801091DC8B2FFF790
:101E0000AEFF002604E0B85DFFF7A9FF701C86B2A4
:101E1000AE42F8DBFFF79EFF2846BDE8F0812DE9D2
:101E2000F04104460F461546002615B9BCA000F047
:101E300051FEFFF78AFFC4F30740FFF790FFC4F39A
:101E40000720FFF78CFF04F0F800FFF788FF00265B
:101E500005E00020FFF783FFB855701C86B2AE4244
:101E6000F7DBFFF777FF2846BDE8F08110B50446A1
:101E700021460020FFF779FF10BD10B58020FFF745
:101E8000F5FF10BD2DE9F04105460E460027B84686
:101E9000002489E0295D41F6087202EB4410FFF747
:101EA00064FF315D41F6086202EB4410FFF75DFF0D
:101EB00000209A4921F81400974921F81400B7F539
:101EC000804F32DC285D042816D004DC012807D0BE
:101ED000022823D10AE0082814D010281ED117E0C8
:101EE0004FF480608D4921F814001DE04FF400602C
:101EF0008A4921F8140017E04FF48050874921F8EF
:101F0000140011E04FF40050844921F814000BE054
:101F10004FF48040814921F8140005E04FF400603F
:101F20007D4921F8140000BF00BFB8F5804F32DCB6
:101F3000305D042816D004DC012807D0022823D104
:101F40000AE0082814D010281ED117E04FF4806052
:101F5000714921F814001DE04FF400606E4921F82A
:101F6000140017E04FF480506B4921F8140011E081
:101F70004FF40050684921F814000BE04FF4804002
:101F8000654921F8140005E04FF40060624921F82A
:101F9000140000BF00BF614830F8140007445E48D9
:101FA00030F814008044641C082CFFF673AFBDE8C1
:101FB000F08110B50446042221469001FFF707FF87
:101FC00010BD10B50446042221469001FFF727FFFB
:101FD00010BD10B50446042221464FF4A060FFF75F
:101FE000F6FE10BD10B50446062221464FF41060DF
:101FF000FFF7EDFE10BD10B50446042221464FF454
:102000007060FFF7E4FE10BD10B5044606222146BD
:102010004FF4F050FFF7DBFE10BD10B5044606226A
:1020200021464FF4F050FFF7FAFE10BD10B50446FC
:1020300021124FF41050FFF798FEE1B24FF4145004
:10204000FFF793FE10BD10B50446022221464FF45F
:102050001050FFF7E4FE10BD10B5044604222146DF
:102060009001FFF7DCFE10BD10B5044604222146A6
:102070004FF4A060FFF7D3FE10BD10B50446062252
:1020800021464FF41060FFF7CAFE10BD10B504469C
:10209000042221464FF47060FFF7C1FE10BD10B559
:1020A0004FF4A850FFF77AFE10BD10B50446210A80
:1020B0004FF4C850FFF759FEE1B24FF4D050FFF78C
:1020C00054FE10BD10B5044621464FF4D850FFF71A
:1020D0004CFE10BD70B50446FFF7E1FF60EA040056
:1020E000C5B229464FF4A850FFF73FFE70BD70B54A
:1020F00004460D46290A41F2082202EB4410FFF77C
:1021000034FEE9B241F2083202EB4410FFF72DFE33
:1021100070BD00002E000020800000207000002014
:10212000556E657870656374656432206C656E67A2
:10213000746820300D0A000070B504460D4641F267
:10214000086101EB44102946FFF70FFE70BD10B582
:1021500004464FF4027101EB4410FFF71FFE10BD5F
:1021600010B504464FF4427101EB4410FFF716FE20
:1021700010BD10B504464FF4847101EB4410FFF715
:102180000DFE10BD70B504460025002600BF42F2CA
:10219000080101EB4410FFF701FE064642F2081168
:1021A00001EB4410FFF7FAFD00EB062086B27EB18A
:1021B00042F2080101EB4410FFF7F0FD054642F240
:1021C000081101EB4410FFF7E9FD00EB052085B293
:1021D000B542DCD1284670BD70B504460025002606
:1021E00000BF42F2086101EB4410FFF7D7FD06463D
:1021F00042F2087101EB4410FFF7D0FD00EB06201E
:1022000086B27EB142F2086101EB4410FFF7C6FDD1
:10221000054642F2087101EB4410FFF7BFFD00EBE9
:10222000052085B2B542DCD1284670BD2DE9F041CC
:1022300004460F4616460025A8462EB921463EA064
:1022400000F048FCBDE8F08142F2084101EB441087
:10225000FFF7A4FD054642F2085101EB4410FFF7D9
:102260009DFD00EB052085B2280200EB441000F133
:102270001008324639464046FFF7A9FDA81985B235
:10228000290A42F2084202EB4410FFF76EFDE9B260
:1022900042F2085202EB4410FFF767FD00BFD1E79E
:1022A0002DE9F04104460F4616460025A8462EB9F2
:1022B000214629A000F00EFCBDE8F08142F608019D
:1022C00001EB4410FFF76AFD054642F6081101EBE9
:1022D0004410FFF763FD00EB052085B2280200EBF8
:1022E000441000F11808324639464046FFF797FD82
:1022F000A81985B2290A42F6080202EB4410FFF73A
:1023000034FDE9B242F6081202EB4410FFF72DFD4E
:1023100000BFD1E770B504460D464FF4027101EBE2
:1023200044102946FFF721FD70BD10B54FF4385019
:10233000FFF734FD10BD000043483A2025642055C6
:102340006E657870656374656431206C656E677462
:102350006820300D0A00000043483A2025642055CB
:102360006E657870656374656432206C656E677441
:102370006820300D0A00000010B54FF40071E148EC
:10238000FEF785FB0220FDF778FF4FF40071DD4872
:10239000FEF77BFB4FF4C860FDF748FF10BD70B53A
:1023A000002044682546A84770BD10B5002406E00B
:1023B000D548015D204600F0D1FA601C84B2202C83
:1023C000F6D310BD10B5D048001FD0490A6842604E
:1023D00089880181CE490968C160CE4909680161D7
:1023E000CD4909684161CD4909688161CC490A68D4
:1023F000C0F81E20898841840120C349091F8872C2
:102400000021C148001FC172FFF7CFFF10BD1CB5EE
:10241000C448007820B1C4A000F05CFBFFF7D2FFF5
:10242000C748007810B1C7A000F054FBB648FFF7CA
:10243000D9FDB5480C30FFF7CCFDB3481030FFF79D
:10244000B8FDB1480830FFF7D6FDC349C348FFF7D0
:1024500019FD4FF4FA60FFF728FE0320FFF732FE64
:1024600001A8FFF713FE9DF8070000909DF80630C5
:102470009DF805209DF80410B9A000F02BFB01A8E1
:10248000FFF7F2FD9DF8070000909DF806309DF8DB
:1024900005209DF80410B7A000F01CFB01A8FFF771
:1024A000DBFD9DF8070000909DF806309DF80520A3
:1024B0009DF80410B4A000F00DFB1CBD10B5002465
:1024C00006E0204600F072FA8F490855601C84B27D
:1024D000202CF6D310BD10B5002406E08A48015D1B
:1024E000204600F03BFA601C84B21A2CF6D310BDD3
:1024F0007FB5AAA00068029024263146A84800F0C3
:10250000B6FA0120FFF72CFE0546002D7ED0222DC5
:102510007DD10120FFF760FE041E45DD01A803AB5D
:102520002246A04900900120FFF7E7FA0446242242
:102530009C499B4800F082FA99480078462834D19B
:1025400097484078492830D1954880784E282CD13A
:102550009348C078442828D124226B49091F904809
:1025600000F06CFA46208E490870492048704E20D1
:1025700088704420C870BDF8040002AB242200908B
:102580000120FFF734FA6048001F407F00280BD07D
:102590009DF80F0000909DF80E309DF80D209DF8DD
:1025A0000C1081A000F096FAA0E07D480078532836
:1025B00054D17B484078452850D1794880785428B8
:1025C0004CD17748C078542848D1754800794E4995
:1025D000091F0979884240D1714841794A48001F52
:1025E0004079814239D16E4881794748001F80790E
:1025F00081427BD16A48C1794348001FC07981423A
:1026000074D16748017A4048001F01E06FE076E02E
:10261000007A81426AD16248417A3B48001F407A81
:10262000814263D124225E493748001F00F006FA38
:1026300000213548001FC17201203349091F8872EB
:10264000BDF8040002AB242200900120FFF7CFF96F
:10265000FFF741FF01205A49087047E050480078D1
:10266000462843D14E48407849283FD14C4880788D
:1026700052283BD14A48C0784D2837D14848007984
:102680002149091F0979884230D1454841791E48BE
:10269000001F4079814229D1414881791A48001FA1
:1026A0008079814222D13E48C1791748001FC07904
:1026B00081421BD13A48017A1348001F007A8142B7
:1026C00014D13748417A1048001F407A81420DD119
:1026D000FFF76BFEBDF8040002AB242230490090E6
:1026E0000120FFF784F901203549087007E0002335
:1026F00040F2B45202210120FEF7DEFF00BF00BF0E
:102700007FBD00000010014094000020490000201F
:102710004F00002053000020570000205B000020E5
:10272000630000204700002069702066726F6D20F2
:10273000646566696E6174696F6E210D0A00000040
:102740004800002069702066726F6D2065657072A8
:102750006F6D210D0A0000003F00002037000020AF
:102760004950203A2025642E25642E25642E2564A8
:102770000D0A0000534E203A2025642E25642E2594
:10278000642E25640D0A00004757203A2025642E48
:1027900025642E25642E25640D0A0000FFFFFFFF2F
:1027A000B4000020D800002046494E442066726FD5
:1027B0006D2025642E25642E25642E25640D0A00C7
:1027C0003600002008B501210920FEF76DFB8020AE
:1027D000ADF8000003208DF8020014208DF80300EE
:1027E00069469548FEF7A4F84020ADF800000320A4
:1027F0008DF8020010208DF8030069468E48FEF720
:1028000097F808BD10B580218B48FEF73EF94021AE
:102810008948FEF73AF90120FDF72FFD802186480F
:10282000FEF735F940218448FEF731F910BD10B5A7
:1028300080218148FEF72BF940217F48FEF725F9DA
:102840000120FDF71AFD80217B48FEF71EF910BD1F
:1028500070B505462E46002421E040217648FEF75B
:1028600016F90120FDF709FD06FA04F000F08000DA
:10287000802804D180217048FEF707F903E0802109
:102880006D48FEF704F90120FDF7F7FC40216A4886
:10289000FEF7FBF80120FDF7F0FC601CC4B2082C29
:1028A000DBDB40216448FEF7F2F80120FDF7E5FC90
:1028B00080216148FEF7E9F80120FDF7DEFC70BDDC
:1028C00070B5002540215C48FEF7E1F80120FDF7D6
:1028D000D4FC80215848FEF7D8F800241BE00120E2
:1028E000FDF7CBFC40215448FEF7CFF80120FDF75F
:1028F000C4FC80215048FEF7AEF8012801D1012622
:1029000000E0002646EA4500C5B240214A48FEF7ED
:10291000BEF8601CC4B2082CE1DB0120FDF7ADFC61
:10292000284670BD10B5002440214348FEF7ADF89D
:102930000120FDF7A2FC01E0601C84B280213E482A
:10294000FEF789F8012801D1FF2CF5DB40213A4838
:10295000FEF79DF80120FDF790FC10BD70B5044610
:102960000D4672B6FFF74EFFFE2101EAE41141F079
:10297000A000FFF76DFFFFF7D5FF2046E11704EB3E
:1029800011610912A4EB0121CEB23046FFF760FFBE
:10299000FFF7C8FF2846FFF75BFFFFF7C3FFFFF70E
:1029A00046FF62B60520FDF741FC70BD70B50446D8
:1029B000E6B272B6FFF726FFFE2101EAE41141F00C
:1029C000A000FFF745FFFFF7ADFF3046FFF740FFE0
:1029D000FFF7A8FFFFF716FFA120FFF739FFFFF76A
:1029E000A1FFFFF76DFF0546FFF721FF62B62846FE
:1029F00070BD2DE9F04105460E4617469846002465
:102A000007E03A19B15C2A1990B2FFF7A7FF601CE2
:102A100084B24445F5DBBDE8F08170B504460E464E
:102A2000254605E0FF212846FFF798FF681C85B280
:102A3000A019A842F6DC70BD000C014040EA010379
:102A40009B0703D009E008C9121F08C0042AFAD264
:102A500003E011F8013B00F8013B521EF9D2704728
:102A6000D2B201E000F8012B491EFBD270470022D0
:102A7000F6E710B513460A4604461946FFF7F0FF7D
:102A8000204610BD30B50B4601460020202201240F
:102A900009E021FA02F59D4205D303FA02F5491B2C
:102AA00004FA02F52844151EA2F10102F1DC30BD42
:102AB000064C074D06E0E06840F0010394E807008B
:102AC00098471034AC42F6D3FDF736FB682C00086B
:102AD000882C00080FB4054B10B503A9044A0298CE
:102AE00000F018F810BC5DF814FB00003903000872
:102AF0006C00002002E008C8121F08C1002AFAD1A9
:102B000070477047002001E001C1121F002AFBD16D
:102B1000704700002DE9FF4F89B09B460446002511
:102B200006E025280BD05A460B999047641C6D1C73
:102B300020780028F5D10DB02846BDE8F08F002799
:102B4000B8460122474900E0074314F8013F203B03
:102B500002FA03F00842F7D120782E2819D114F890
:102B6000010F47F004072A280ED06FF02F022078BB
:102B7000A0F1300109290CD808EB880102EB4101D2
:102B800000EB0108641CF2E70A98641C50F8048BFF
:102B90000A9020780028CED0642808D0692806D072
:102BA00075281ED05A460B9990476D1C58E00A991B
:102BB0004FF00A0901C90A91002802DA40422D218A
:102BC00002E0390504D52B218DF82010012103E006
:102BD000F90704D02021F7E78A4608AE0DE000216E
:102BE000FAE70A994FF00A0901C90A91F7E749463D
:102BF000FFF748FF303106F8011D0028F7D1ADEB93
:102C0000060000F12009780701D44FF00108C845FB
:102C100002DDA8EB090000E000208046002706E066
:102C200008A85A46C05D0B9990476D1C7F1C5745FC
:102C3000F6DB04E030205A460B9990476D1CB8F142
:102C40000001A8F10108F5DC05E016F8010B5A4671
:102C50000B9990476D1CB9F10001A9F10109F4DC51
:102C6000641C65E709280100882C0008000000208A
:102C700070000000F42A0008F82C00087000002002
:102C8000680C0000042B00080000000000A24A04A9
:102C9000000000000000000001020304060708090C
:102CA00000000000010203040102030406070809F2
:102CB00002040608000000000000000000000002FE
:102CC00002020202020202020202020202020200E6
:102CD000000008DC111213C0A80158FFFFFF00C05C
:102CE000A8010108080808C0A8016457495A4E45C0
:082CF000540000000000000088
:0400000508000131BD
:00000001FF
