:020000040800F2
:10000000101F0020450100080D2400080F240008DF
:1000100013240008172400081B2400080000000017
:100020000000000000000000000000001F24000885
:1000300021240008000000002324000825240008D3
:100040005F0100085F0100085F0100085F01000810
:100050005F0100085F0100085F0100085F01000800
:100060005F0100085F0100085F0100085F010008F0
:100070005F0100085F0100085F0100085F010008E0
:100080005F0100085F0100085F0100085F010008D0
:100090005F0100085F0100085F0100082B240008D1
:1000A0005F0100085F0100085F0100085F010008B0
:1000B0005F010008272400085F0100085F010008B5
:1000C0005F0100085F0100085F0100085F01000890
:1000D0005F010008511C0008292400085F01000886
:1000E0005F0100085F0100085F0100085F01000870
:1000F0005F0100085F0100085F0100085F01000860
:100100005F0100085F0100085F0100085F0100084F
:100110005F0100085F0100085F0100085F0100083F
:100120005F0100085F0100085F0100085F0100082F
:10013000DFF80CD005F060F900480047651E0008A4
:10014000101F00200648804706480047FEE7FEE7EC
:10015000FEE7FEE7FEE7FEE7FEE7FEE7FEE7FEE777
:1001600047020008310100080CB500200190009002
:100170006C48006840F480306A49086000BF6948F4
:10018000006800F4003000900198401C0190009835
:1001900018B90198B0F5A06FF1D16248006800F479
:1001A000003010B10120009001E000200090009884
:1001B000012843D15C48006840F010005A490860AB
:1001C0000846006820F0030008600846006840F018
:1001D0000200086053484068524948600846406839
:1001E00048600846406840F48060486008464068BF
:1001F00020F47C1048600846406840F4E8104860ED
:100200000846006840F08070086000BF45480068FC
:1002100000F000700028F9D04248406820F0030048
:10022000404948600846406840F00200486000BF0E
:100230003C48406800F00C000828F9D10CBD10B50E
:10024000FFF792FF10BD10B53648006840F001007E
:1002500034490860084640683449084031494860DC
:1002600008460068324908402E4908600846006880
:1002700020F4802008600846406820F4FE004860B2
:100280004FF41F008860FFF7DAFF4FF00060294944
:10029000086010BD10B5002100200022214B5B68D2
:1002A00003F00C0121B1042906D0082928D107E068
:1002B000214B224C236027E01F4B204C236023E07E
:1002C000184B5B6803F47010164B5B6803F48032C4
:1002D000022303EB904022B9194B4343174C236090
:1002E0000DE0104B5B6803F4003323B1144B434320
:1002F000124C236003E0104B4343104C236003E097
:100300000D4B0E4C236000BF00BF064B5B68C3F370
:1003100003130C4CE15C094B1B68CB40074C23607A
:1003200010BD000000100240002002400000FFF855
:10033000FFFFF6FE08ED00E000127A00000000204A
:1003400000093D000400002031490143314A116099
:10035000704770B5002100230F22C47804B32D4CE0
:10036000246804F4E064C4F5E064210AC1F10403E4
:10037000CA40447804FA03F1847814402143090107
:10038000254C0678A155047804F01F050124AC40E3
:1003900005786D11AD0005F1E025C5F8004109E0D3
:1003A000047804F01F050124AC401C4D067876113A
:1003B00045F8264070BD1A4A0A400243154B1B1FE0
:1003C0001A60704739B1134A121D12680243114B6B
:1003D0001B1D1A6006E00F4A121D126882430D4B66
:1003E0001B1D1A607047042808D14FF0E0210969ED
:1003F00041F004014FF0E022116107E04FF0E021ED
:10040000096921F004014FF0E022116170470000FA
:100410000000FA050CED00E000E400E080E100E0FF
:1004200080FFFF1F002044490860091D0860091D66
:100430000860091D086041483F4914310860704751
:1004400000213D498279002A3AD00A4612680368A1
:100450009A430B461A600A1D126803689A430B1DE3
:100460001A60027911440A6803681A430A60324A22
:100470000832126803689A432F4B08331A601A1D1A
:10048000126803689A432C4B0C331A604279102A85
:100490000ED11A1F126803681A43274B08331A60DB
:1004A0001A1D126803681A43234B0C331A600DE0BF
:1004B0002149427911440A6803681A430A6005E039
:1004C000027911440A6803689A430A607047002160
:1004D000016001710C214171002181717047164941
:1004E000103109680143144A103211607047014607
:1004F0000020114A143212680A400AB1012000E0BB
:10050000002070470C4914310860704701460020F4
:100510000022094B1B6803EA0102074B14331B68D6
:100520000B4013B10AB1012000E0002070470249DE
:10053000143108607047000000040140FFFF0F0005
:1005400001460020FE4A106800F0380008431060A1
:100550007047FB49096821F00801F94A116011460A
:100560000968014311607047F549096821F01001DD
:10057000F34A116011460968014311607047F14860
:10058000EF494860F04848607047EE48EC494860E1
:10059000ED4848607047EA48006940F08000E8494B
:1005A00008617047E648006940F08000E44908614E
:1005B00070470420E249C96801F0010109B1012036
:1005C0000EE0DF49C96801F0040109B1022007E02B
:1005D000DB49C96801F0100109B1032000E00420E3
:1005E000704700B502460423FFF7E3FF034603E02C
:1005F000FFF7DFFF0346521E012B01D1002AF7D17E
:1006000002B90523184600BD30B5044604254FF451
:100610003020FFF7E6FF0546042D17D1C8480069D2
:1006200040F00200C649086108464461006940F094
:10063000400008614FF43020FFF7D3FF0546C04863
:10064000006941F6FD710840BD490861284630BD8A
:1006500010B504244FF43020FFF7C3FF0446042CE8
:1006600016D1B748006940F00400B5490861084652
:10067000006940F0400008614FF43020FFF7B1FFFF
:100680000446AF48006941F6FB710840AC49086177
:10069000204610BD00B502460423FFF78AFF03463B
:1006A00003E0FFF786FF0346521E012B01D1002A0B
:1006B000F7D102B90523184600BD10B504244FF444
:1006C0003020FFF7E7FF0446042C16D19C48006950
:1006D00040F004009A4908610846006940F0400073
:1006E00008614FF43020FFF7D5FF044694480069B5
:1006F00041F6FB71084092490861204610BD002078
:100700008F49C96901F0020109B1012000E0002010
:10071000704730B5A5250424FFF7F1FF00B100258F
:100720004FF43020FFF75DFF0446042C3AD1854892
:1007300083498860844888600846006940F020004A
:1007400008610846006940F0400008614FF430201D
:10075000FFF747FF0446042C1BD17948006941F696
:10076000DF710840764908610846006940F01000D2
:10077000086176480580E002FFF733FF0446052C48
:1007800010D06F48006941F6EF7108406C4908616C
:1007900008E0052C06D06A48006941F6EF71084070
:1007A00067490861204630BD78B506460C460425E9
:1007B00000200090E802FFF714FF0546042D24D125
:1007C0005F48006940F001005D4908613480E8023B
:1007D000FFF707FF0546042D10D1B01C0090200C38
:1007E00000990880E802FFF7FCFE054654480069BE
:1007F00041F6FE7108405249086106E05048006920
:1008000041F6FE7108404E490861284678BD70B532
:1008100004460D460426F002FFF7E3FE0646042ECA
:1008200011D14748006940F0010045490861258021
:10083000F002FFF7D6FE06464148006941F6FE7118
:1008400008403F490861304670BD70B505460E4608
:100850000424E002FFF7C5FE0446042C17D13948F2
:1008600037498860384888600846006940F01000C1
:1008700008612E80E002FFF7B4FE0446052C06D086
:100880002F48006941F6EF7108402D490861204664
:1008900070BD2DE9F04304464FF6FF763746B0466B
:1008A000B1460425E443E6B2C4F30727C4F307487E
:1008B0004FEA1469E802FFF794FE0546042D49D17A
:1008C00020481F498860204888600846006940F039
:1008D00010000861FF2E06D01C4808300680E80290
:1008E000FFF77FFE0546042D08D1FF2F06D01748DD
:1008F0000A300780E802FFF774FE0546042D0AD18E
:10090000B8F1FF0F07D011480C30A0F80080E802C2
:10091000FFF767FE0546042D0AD1B9F1FF0F07D096
:100920000A480E30A0F80090E802FFF75AFE05468C
:10093000052D0FD00248006941F6EF71084007E02D
:100940000020024023016745AB89EFCD00F8FF1F6F
:10095000664908612846BDE8F08330B505460424A1
:100960004FF43020FFF73DFE0446042C41D160488F
:100970005E4988605F4888600846006940F0200052
:1009800008610846006940F0400008614FF43020DB
:10099000FFF727FE0446042C22D15448006941F693
:1009A000DF710840514908610846006940F01000B5
:1009B00008611DB100205049088002E0A5204E4981
:1009C00008804FF43020FFF70CFE0446052C10D0B1
:1009D0004648006941F6EF7108404449086108E063
:1009E000052C06D04148006941F6DF7108403F49B7
:1009F0000861204630BDF0B505460E461746042472
:100A00003B483A4988603B488860E002FFF7E9FDCF
:100A10000446042C19D13548006940F010003349D0
:100A2000086147F0F800304328433349891C0880A7
:100A3000E002FFF7D6FD0446052C06D02B480069DE
:100A400041F6EF710840294908612046F0BD27486A
:100A5000C069800870472548006A70470020234914
:100A6000096801F0200109B1012000E00020704771
:100A700029B11E4A126902431C4B1A6104E01B4A49
:100A800012698243194B1A617047014600200129FF
:100A900008D1164AD26902F001020AB1012008E029
:100AA000002006E0114AD2680A400AB1012000E0A5
:100AB000002070470D49C860704704200B49C96881
:100AC00001F0010109B101200EE00849C96801F0F7
:100AD000040109B1022007E00449C96801F01001CE
:100AE00009B1032000E0042070470000002002400C
:100AF00023016745AB89EFCD00F8FF1F10B5044611
:100B0000CC48844208D10121042000F02DFB0021B3
:100B1000042000F029FB46E0C748844208D10121A7
:100B2000082000F021FB0021082000F01DFB3AE026
:100B3000C248844208D10121102000F015FB002199
:100B4000102000F011FB2EE0BD48844208D10121A5
:100B5000202000F009FB0021202000F005FB22E00E
:100B6000B848844208D10121402000F0FDFA00215C
:100B7000402000F0F9FA16E0B348844208D1012180
:100B8000802000F0F1FA0021802000F0EDFA0AE068
:100B9000AE48844207D10121801500F0E5FA00211A
:100BA000A01500F0E1FA10BD10B50121084600F0D3
:100BB000DBFA0021012000F0D7FA10BD2DE9F04149
:100BC000024600250026002000230024002791F87B
:100BD00003C00CF00F0591F803C00CF0100CBCF131
:100BE000000F03D091F802C04CEA050591F800C04F
:100BF000BCF1000F31D0146800202BE04FF0010C45
:100C00000CFA00F3B1F800C00CEA03069E4220D1B2
:100C100083004FF00F0C0CFA03F7BC4305FA03FCFA
:100C20004CEA040491F803C0BCF1280F06D14FF040
:100C3000010C0CFA00FCC2F814C00AE091F803C0E1
:100C4000BCF1480F05D14FF0010C0CFA00FCC2F8C2
:100C500010C0401C0828D1D31460B1F800C0BCF10A
:100C6000FF0F34DD546800202EE000F1080C4FF037
:100C7000010808FA0CF3B1F800C00CEA03069E4222
:100C800021D183004FF00F0C0CFA03F7BC4305FA97
:100C900003FC4CEA040491F803C0BCF1280F05D111
:100CA00000F1080C08FA0CF8C2F8148091F803C09F
:100CB000BCF1480F07D100F1080C4FF0010808FA09
:100CC0000CF8C2F81080401C0828CED35460BDE850
:100CD000F0814FF6FF710180022181700421C17003
:100CE00070470246002093680B400BB1012000E0E2
:100CF000002070470146886880B270470246002095
:100D0000D3680B400BB1012000E000207047014682
:100D1000C86880B2704701617047416170470AB18D
:100D2000016100E041617047C16070474FF480325B
:100D30000A438261816182618269826970470246E9
:100D40000020434B18684FF68073184040EA0210A9
:100D500008433F4B186070473E49C8617047F0B583
:100D60000A46002300240021002500F00046B6F1C9
:100D7000004F02D1364EF16901E0354E7168C0F383
:100D8000034583B200F44016B6F5401F08D121F0A8
:100D900070612F4E766826F070662D4F7E6012E0EF
:100DA00000F48016B6F5801F06D1032606FA05F476
:100DB000A14341F0706106E0460D360103FA06F6E4
:100DC000B14341F0706122B1460D360103FA06F6D7
:100DD000314300F00046B6F1004F02D11C4EF161E4
:100DE00001E01B4E7160F0BD30B500228B071C0F77
:100DF0000F2303FA04F2164B08338C1053F82430F7
:100E00009343134C08348D1044F8253023468C103E
:100E100053F824308C07240F00FA04F423430C4CBD
:100E200008348D1044F8253030BD0A49DC310860A3
:100E30007047000000080140000C01400010014014
:100E40000014014000180140001C01400020014036
:100E50000000014000002042DF48006840F001002F
:100E6000DD49086008464068DC490840DA494860C6
:100E700008460068DA490840D74908600846006813
:100E800020F4802008600846406820F4FE00486096
:100E90004FF41F0088607047CF49096821F4803102
:100EA000CD4A11601146096821F480211160B0F526
:100EB000803F03D0B0F5802F0ED106E0C649096807
:100EC00041F48031C44A116007E0C349096841F424
:100ED000A021C14A116000E000BF00BF704710B5FB
:100EE00001460022002300204A11012A02D1BA4CF7
:100EF000236806E0022A02D1B74C236A01E0B64C0F
:100F0000636A01F01F02012494401C400CB10120CF
:100F100000E0002010BD38B500200090002400251E
:100F200000BF3120FFF7DBFF05460098401C009012
:100F30000098B0F5A06F01D0002DF2D03120FFF75E
:100F4000CEFF08B1012400E00024204638BD014650
:100F50000020A14A106820F0F80040EAC1001060AB
:100F60007047A04908607047024600209A4B5868B5
:100F700020F47C1042EA01031843974B58607047F5
:100F800098490866704701460020934A506820F04F
:100F900003000843506070478F48406800F00C0021
:100FA0007047014600208C4A506820F0F00008434A
:100FB0005060704701460020874A506820F4E06086
:100FC00008435060704701460020834A506820F46F
:100FD000605040EAC1005060704729B17E4A527AA1
:100FE00002437D4B5A7204E07B4A527A82437A4B29
:100FF0005A7270477B49D83108607047014600201B
:10100000754A506820F44040084350607047002102
:10101000714A20321170704A82F82010012802D0E3
:1010200004280AD104E001216B4A2032117005E046
:101030000521694A2032117000E000BF00BF7047EF
:101040006949086070476449096A0143624A11624C
:101050007047654944390860704730B50021002267
:10106000002400235C4D6D6805F00C0121B10429BA
:1010700005D0082923D105E05C4D056022E05B4DD9
:1010800005601FE0544D6D6805F47012524D6D6897
:1010900005F48034022505EB92421CB9544D5543AA
:1010A00005600BE04C4D6D6805F400351DB1504DE9
:1010B0005543056002E04D4D5543056002E04B4D40
:1010C000056000BF00BF444D6D6805F0F0010909DF
:1010D000484D6B5C0568DD4045603F4D6D6805F42B
:1010E000E061090A434D6B5C4568DD4085603A4D1F
:1010F0006D6805F46051C90A3E4D6B5C4568DD4082
:10110000C560354D6D6805F44041890B3A4D6B5C07
:10111000C568B5FBF3F5056130BD29B12E4A5269AA
:1011200002432D4B5A6104E02B4A526982432A4BF9
:101130005A61704729B1284A92690243264B9A6145
:1011400004E0254A92698243234B9A61704729B192
:10115000214AD2690243204BDA6104E01E4AD26977
:1011600082431D4BDA61704729B11B4AD2680243A2
:10117000194BDA6004E0184AD2688243164BDA60F1
:10118000704729B1144A12690243134B1A6104E0F3
:10119000114A12698243104B1A6170471249403953
:1011A000086070470F49C86470470B49C8717047A1
:1011B0000948406A40F0807007494862704701461C
:1011C0000020054A92680A400AB1012000E0002090
:1011D0007047014988727047001002400000FFF814
:1011E000FFFFF6FE000042428004424200127A00F5
:1011F00000093D00140000202400002010B5044622
:10120000BE48844208D101218014FFF7ADFF0021C0
:10121000A014FFF7A9FF16E0B948844208D10121C4
:101220000014FFF7AEFF00212014FFF7AAFF0AE029
:10123000B448844207D10121C013FFF7A2FF002167
:10124000E013FFF79EFF10BD10B50022028802F4E4
:1012500041520B884C8823438C882343CC882343FA
:101260000C8923434C8923438C892343CC89234312
:101270001A430280838B4FF2FF74234083830B8ACF
:10128000038210BD2DE9F04F85B005460C464FF0A6
:10129000000902274FF000084FF0010B0026B2466C
:1012A000A88B4FF240010840A88302202884B5F89B
:1012B0001C90A068022801D100BF38E0A08810B9B6
:1012C0004FF0010B01E04FF0020B8D48854200D139
:1012D00000E000BF6846FFF7C0FEDDF800A0E08830
:1012E000B0F5007F0AD14FEA1A2000EB80004000E1
:1012F000A168B0FBF1F0401D86B20BE04FEA4B1045
:10130000BAFBF0F000EB80004000A168B0FBF1F008
:10131000401D86B20A20B6FBF0F606F00108A6EBE7
:101320000800C0F34F074FF6FF7000EA0828022FAD
:1013300001DBFF2F02DD02274FF00008E08840EAC2
:10134000080038432884A088A1890843618808439D
:101350002188084340F4006040EA0909A5F81C9080
:1013600005B0BDE8F08F0021018041808180C180FF
:10137000018141818181C181072101827047002162
:10138000018041808180C1800221816000218181B2
:10139000704721B1028842F04002028004E00288D6
:1013A0004FF6BF731A400280704721B1828B42F41E
:1013B0008062828304E0828B4FF6FF331A4082837F
:1013C000704730B5002400230C110125A540ABB2B5
:1013D0001AB185881D43858002E085889D438580FC
:1013E00030BD1AB183880B43838002E083888B432E
:1013F00083807047818170470146888970474FF626
:10140000FF62914204D0028842F48072028004E0BC
:1014100002884FF6FF631A400280704721B182882C
:1014200042F00402828004E082884FF6FB731A4087
:101430008280704702884FF2FF731A400280028850
:101440000A4302807047018841F48051018070474F
:1014500021B1028842F40052028004E002884DF675
:10146000FF731A400280704702460020012901D014
:10147000108B00E0908A70470146088A7047B1F5EA
:10148000804F04D1028842F48042028004E0028846
:101490004BF6FF731A400280704702460020138902
:1014A0000B400BB1012000E000207047CA430281CD
:1014B0007047F0B50246002000240023002501F00B
:1014C0000F070126BE40B4B20B1101269E40B3B2F5
:1014D000968806EA03051689264016B10DB101204B
:1014E00000E00020F0BD10B5002201F00F04012340
:1014F000A3409AB2D343038110BD000000300140E5
:1015000000380040003C004010B50446FB488442CF
:1015100009D101218803FFF727FE00214FF4804005
:10152000FFF722FE32E0F648844209D10121480447
:10153000FFF727FE00214FF40030FFF722FE25E0E1
:10154000F048844209D101218804FFF71AFE0021E6
:101550004FF48020FFF715FE18E0EB48844209D1D4
:101560000121C804FFF70DFE00214FF40020FFF712
:1015700008FE0BE0E548844208D101210805FFF789
:1015800000FE00214FF48010FFF7FBFD10BD2DE998
:10159000F04786B005460E460024A24600BFA1468D
:1015A0000027B08900B100BF2F462C8A4CF6FF708F
:1015B0000440F08804432C82AC894EF6F3100440BA
:1015C000B08831890843718908430443AC81AC8AEF
:1015D0004FF6FF400440B0890443AC8201A8FFF7F6
:1015E0003CFDC648874202D1DDF810A001E0DDF8DD
:1015F0000CA0A88900F4004040B10AEBCA0000EB3F
:101600000A1031684900B0FBF1F807E00AEBCA00A4
:1016100000EB0A1031688900B0FBF1F86420B8FBD8
:10162000F0F004012009642101FB1089A88900F46D
:10163000004040B1322000EBC900B0FBF1F000F0F7
:101640000700044308E0322000EB09106421B0FBDE
:10165000F1F000F00F0004432C8106B0BDE8F087E4
:101660004FF41651016000218180C18001810C215D
:10167000418100218181704710B502460020108A07
:101680004FF2FF0318400B884C8823438C88234378
:10169000CC8823431843108210BD00210180418073
:1016A0008180C180704721B1828942F400528281D9
:1016B00004E082894DF6FF731A4082817047F0B5CD
:1016C0000346002400260025002040F66A17B94290
:1016D00000D100BF1846C1F3421401F01F060127D4
:1016E00007FA06F5012C01D10C3004E0022C01D1DF
:1016F000103000E014301AB107682F43076002E091
:101700000768AF430760F0BD1AB1838A0B43838239
:1017100002E0838A8B4383827047028A4FF6F0731C
:101720001A400282028A0A430282704782894FF27B
:10173000FF731A40828182890A438281704721B1F6
:10174000828942F00202828104E082894FF6FD73B1
:101750001A4082817047028A4FF6DF731A40028274
:10176000028A0A430282704721B1028A42F480420F
:10177000028204E0028A4BF6FF731A40028270472D
:10178000C1F308028280704701468888C0F30800D0
:101790007047818941F0010181817047028BD2B28B
:1017A0000283028B42EA012202837047028B02F419
:1017B0007F420283028B0A430283704721B1828AEF
:1017C00042F02002828204E0828A4FF6DF731A40E0
:1017D0008282704721B1828A42F01002828204E044
:1017E000828A4FF6EF731A408282704721B1828A53
:1017F00042F00802828204E0828A4FF6F7731A40B0
:101800008282704721B1828942F40042828103E0E2
:101810008289C2F30E028281704721B1828A42F42A
:101820000062828204E0828A4FF2FF731A40828251
:101830007047828A4FF6FB731A408282828A0A437B
:101840008282704721B1828A42F00202828204E0E1
:10185000828A4FF6FD731A4082827047024600204A
:10186000B1F5007F00D100BF13880B400BB1012000
:1018700000E00020704701F40072B2F5007F00D153
:1018800000BFCA430280704770B50246002400239F
:101890000025002040F66A16B14200D100BFC1F316
:1018A000421501F01F03012606FA03F3012D02D1B0
:1018B0009689334006E0022D02D1168A334001E0BA
:1018C000968A33400C12012606FA04F41688344036
:1018D00013B10CB1012000E0002070BD10B5002252
:1018E000002340F66A14A14200D100BF0A1201246D
:1018F0009440A3B2DC43048010BD000000380140D6
:101900000044004000480040004C004000500040AF
:1019100008B58020ADF8000003208DF802001420E7
:101920008DF8030069469548FFF748F94020ADF867
:10193000000003208DF8020010208DF80300694696
:101940008E48FFF73BF908BD10B580218B48FFF7A3
:10195000E2F940218948FFF7DEF9012000F0B3FDEC
:1019600080218648FFF7D9F940218448FFF7D5F94F
:1019700010BD10B580218148FFF7CFF940217F4885
:10198000FFF7C9F9012000F09EFD80217B48FFF799
:10199000C2F910BD70B505462E46002421E0402155
:1019A0007648FFF7BAF9012000F08DFD06FA04F041
:1019B00000F08000802804D180217048FFF7ABF947
:1019C00003E080216D48FFF7A8F9012000F07BFDBE
:1019D00040216A48FFF79FF9012000F074FD601C68
:1019E000C4B2082CDBDB40216448FFF796F90120E4
:1019F00000F069FD80216148FFF78DF9012000F0BA
:101A000062FD70BD70B5002540215C48FFF785F987
:101A1000012000F058FD80215848FFF77CF9002490
:101A20001BE0012000F04FFD40215448FFF773F9FF
:101A3000012000F048FD80215048FFF752F90128AD
:101A400001D1012600E0002646EA4500C5B240214A
:101A50004A48FFF762F9601CC4B2082CE1DB0120A0
:101A600000F031FD284670BD10B5002440214348E8
:101A7000FFF751F9012000F026FD01E0601C84B25F
:101A800080213E48FFF72DF9012801D1FF2CF5DB1D
:101A900040213A48FFF741F9012000F014FD10BD44
:101AA00070B504460D4672B6FFF74EFFFE2101EAFF
:101AB000E41141F0A000FFF76DFFFFF7D5FF2046CE
:101AC000E11704EB11610912A4EB0121CEB23046FB
:101AD000FFF760FFFFF7C8FF2846FFF75BFFFFF740
:101AE000C3FFFFF746FF62B6052000F0C5FC70BDDE
:101AF00070B50446E6B272B6FFF726FFFE2101EA92
:101B0000E41141F0A000FFF745FFFFF7ADFF3046BD
:101B1000FFF740FFFFF7A8FFFFF716FFA120FFF731
:101B200039FFFFF7A1FFFFF76DFF0546FFF721FF24
:101B300062B6284670BD2DE9F04105460E461746AF
:101B40009846002407E03A19B15C2A1990B2FFF7D1
:101B5000A7FF601C84B24445F5DBBDE8F08170B599
:101B600004460E46254605E0FF212846FFF798FF6C
:101B7000681C85B2A019A842F6DC70BD000C0140BB
:101B800010B58021A948FFF7C8F84FF4FA7000F0AB
:101B90009AFC8021A548FFF7BEF84FF4C86000F01A
:101BA0006BFC10BD70B5002044682546A84770BD89
:101BB0001FB54FF4E13000900020ADF80400ADF8FF
:101BC0000600ADF80800ADF80C000C20ADF80A00D6
:101BD000012240F225519648FFF771FD694694486D
:101BE000FFF7D5FC01219248FFF75DFD1FBD70B5E1
:101BF00004460D46E1B28E48FFF7C2FD00BF8021CA
:101C00008B48FFF72BFE0028F9D0204670BD10B599
:101C1000044621468648FFF7B3FD00BF8021844873
:101C2000FFF71CFE0028F9D010BD10B504460BE0EC
:101C300014F8011B7E48FFF7A3FD00BF80217C48FC
:101C4000FFF70CFE0028F9D020780028F0D110BD55
:101C500010B540F225517648FFF716FED0B10022AC
:101C600040F225517248FFF72AFD7148FFF78CFDBD
:101C7000044621466E48FFF783FD00BF80216C4873
:101C8000FFF7ECFD0028F9D0012240F22551684809
:101C9000FFF715FD10BD1FB566A103C9CDE9000111
:101CA000002405E01DF8041064480155601CC4B20E
:101CB000062CF7DB002407E061480068015D5F48FF
:101CC00008300155601CC4B2042CF5DB002407E089
:101CD0005C480068015D594810300155601CC4B271
:101CE000042CF5DB002407E057480068015D5348E9
:101CF0000C300155601CC4B2042CF5DB4F4802F0D7
:101D000083FF4E480C3002F076FF4C480C3002F056
:101D100062FF4A48083002F080FF4C494C4802F00C
:101D2000C3FE02A802F093FF02A802F099FF02A8E6
:101D300002F084FF02A802F079FF1FBD2DE9F041F7
:101D40000027002500260BE03C48845D21463846EC
:101D5000FFF7A6FE781C87B2701C86B2681C85B29D
:101D60001D2DF1DBBDE8F08186B032A103C9CDE9BC
:101D7000040138A00068039037A00068029037A0E3
:101D80000068019036A0006800902C48001F03995D
:101D9000C160029901610199416104994160BDF8F6
:101DA000141001810099816100202449091F0877DE
:101DB000012048770020C88381F820000120887224
:101DC00000211E48001FC17206B0704770B5002583
:101DD000002407E02046FFF78BFE0546174805550F
:101DE000601C84B2132CF5D31448001F0079FF281F
:101DF0001AD11248001F4079FF2815D10F48001F43
:101E00008079FF2810D10D48001FC079FF280BD121
:101E10000A48001F007AFF2806D10848001F407AB0
:101E2000FF2801D1FFF7A0FF70BD0000000C0140AA
:101E3000003801400008DC1111150000B40000203A
:101E400074000020680000206400002030000020A2
:101E500028000020C0A8016FFFFFFF00C0A80101FB
:101E60000808080808B500240020009000F0F1F8E8
:101E700000F096F800F02BF9482000F0E1FAFFF7A7
:101E800097FEFFF745FD2EA003F066FBFFF778FEF7
:101E900002F008FD33A003F05FFB01F0E7FF4FF411
:101EA000FA6002F0ECFE052002F0F6FE2021E820A8
:101EB00002F06DFD0F2142F6E84002F068FDF021CE
:101EC0004FF4B05002F063FDFE214FF4C05002F019
:101ED0005EFD33E0002001F0D5FE044634B1022C53
:101EE00005D0032C04D0042C15D10AE014E013E033
:101EF000FFF7D1FE21A003F02FFB0120224908703B
:101F00000AE000202049087020A003F025FB0020F3
:101F10002249087000E000BF00BF1B48007801287C
:101F20000CD1684602F09CFE41F69071072000F04B
:101F3000DDFB41F67C71062000F0D8FBCAE700000B
:101F400057353530302045564220696E69746961D5
:101F50006C697A6174696F6E206F7665722E0D0AF6
:101F600000000000573535303020696E69746961B2
:101F70006C697A6564210D0A0000000044484350F2
:101F8000204F4B210D0A00005B00002044484350C5
:101F9000204661696C210D0A0000000084000020C9
:101FA00008B54FF48050ADF8000003208DF8020012
:101FB00010208DF8030069466948FEF7FFFD4FF4D5
:101FC00080516748FEF7A7FE18208DF803004FF4F4
:101FD0000070ADF8000003208DF8020069466148EA
:101FE000FEF7ECFD04208DF803000002ADF80000C0
:101FF00069465C48FEF7E2FD4FF46040ADF8000032
:1020000003208DF8020018208DF80300694654481B
:10201000FEF7D4FD8020ADF8000003208DF802000B
:1020200010208DF8030069464D48FEF7C7FD80215A
:102030004B48FEF770FE4020ADF8000003208DF8FD
:10204000020048208DF8030069464748FEF7B6FDB8
:1020500008BD10B5FEF700FF4FF48030FEF71CFFFF
:10206000FEF759FF0446012C27D11020FEF77CFA19
:102070000220FEF765FA0020FEF793FF0020FEF72E
:10208000A2FFA002FEF796FF4FF4E0112004FEF736
:102090006BFF0120FEF774FFA003FEF7AFFF00BF48
:1020A0003920FEF71CFF0028FAD00220FEF76BFF54
:1020B00000BFFEF771FF0828FBD101212B48FFF775
:1020C00046F8012145F21D20FFF734F810BD0EB58A
:1020D0004FF4C060FEF738F91C208DF8080001208D
:1020E0008DF8090000208DF80A0001208DF80B0002
:1020F00002A8FEF72EF925208DF8080000208DF8A3
:1021000009008DF80A0001208DF80B0002A8FEF7E7
:1021100020F906210220FEF767FE17208DF808003F
:1021200000208DF8090001208DF80A008DF80B00C1
:1021300002A8FEF70EF94020009000208DF8040060
:102140000C208DF8050001208DF806006846FEF78A
:1021500077F900214FF00060FEF72DF90EBD000069
:10216000000C014000080140001001400140020045
:102170001CB5044620219A4802F0D5FEE0B2C4F313
:102180000721220EC4F30743CDE9001095A194481E
:1021900003F0F2F992481CBD1CB504461021944886
:1021A00002F0C1FEE0B2C4F30721220EC4F30743DC
:1021B000CDE900108FA18E4803F0BEF98C481CBDFC
:1021C00070B58EB005466C462946684602F0E8FEBA
:1021D000002628E08CA1204602F0ECFE044614B94B
:1021E00000200EB070BD207830280AD160787828A1
:1021F00007D10DAA1021A01C00F0DCF948B900207D
:10220000EFE70DAA0A21204600F0D4F908B9002012
:10221000E7E70D98002802DB0D98FF2801DD00207C
:10222000DFE70024761C042ED4DB0120D9E7F0B5CB
:102230008FB006460F4601AC314601A802F0B0FE51
:1022400000252AE070A1204602F0B4FE044614B92D
:1022500000200FB0F0BD207830280AD160787828AF
:1022600007D10EAA1021A01C00F0A4F948B9002043
:10227000EFE70EAA0A21204600F09CF908B90020D9
:10228000E7E70E9878550E98002802DB0E98FF2895
:1022900001DD0020DDE700246D1C042DD2DB0120D0
:1022A000D7E770B506460024002500BF09E02402E8
:1022B00040F6084101EB4611481902F081FB044445
:1022C0006D1C042DF3DB204670BD70B5044641F251
:1022D000080101EB441002F073FB05464FF6FF7056
:1022E00000EA052541F2080101EB4411481C02F007
:1022F00067FB284485B2284670BD10B504462046C9
:1023000000F089F910BD10B50446204600F08AF9A6
:1023100010BD10B504462046FFF7EFFF10BD10B505
:1023200004462046FFF7EFFF10BDF1B500246D46CF
:1023300000BF15E004F5A06002F042FB295D00EA51
:10234000010704F5706002F03BFB064604F5A0604F
:1023500002F036FB0640B74201D00120F8BD641CF4
:10236000042CE7DB0020F9E770B506460D46032D87
:1023700000DD00252C4608E0204602F0C8FCB042F3
:1023800001D1204670BD601CC4B2082CF4DB0820CB
:10239000F8E7F0B502460D46C5F34F0600240021CC
:1023A0000EE012F811304FF6FF7707EA03230127FA
:1023B00007EB4107D75D1F44BBB21C444F1CB9B2A9
:1023C000B142EEDB05F001071FB112F8113004EB4A
:1023D0000324A0B200EB1447FF43B8B2F0BD0000E5
:1023E000BD16002025642E25642E25642E2564004C
:1023F000DD160020253033642E253033642E253041
:1024000033642E25303364002E000000704700BF77
:10241000FEE700BFFEE700BFFEE700BFFEE7704734
:102420007047704770477047704710B54020FEF7FF
:102430006DF820B100F088FB4020FEF778F810BD61
:102440004FF0E021096921F004014FF0E022116111
:10245000C21700EB5272C2F3C702A14B1A701946A1
:10246000097801EB4102C2EBC1114FF6FF7202EA9B
:10247000C1019C4A1180704701469A4A12884A431A
:102480004FF0E0235A6100229A6101221A6100BFD5
:102490004FF0E022106900F001021AB100F480321E
:1024A000002AF5D000224FF0E0231A619A617047AC
:1024B00010B5044604E04FF47A70FFF7DDFF641EA8
:1024C000002CF8D110BD0146854A12784A434FF0DE
:1024D000E0235A6100229A6101221A6100BF4FF085
:1024E000E022106900F001021AB100F48032002AE3
:1024F000F5D000224FF0E0231A619A61704701463F
:10250000302905DB392903DCA1F13000C0B2704766
:10251000612905DB662903DCA1F15700C0B2F6E7AB
:10252000412905DB462903DCA1F13700C0B2EEE703
:102530000846ECE730B502460B46002405E012F8E9
:10254000010BFFF7DCFF04FB030410780028F6D131
:10255000A0B230BD30B502460B46002405E012F8AB
:10256000010BFFF7CCFF04FB030410780028F6D121
:10257000204630BD2DE9F04104460D461646701E3A
:10258000C7B220223146284602F0C6FC00BF0A200E
:1025900094FBF0F100FB11403030C2B23846791E96
:1025A000CFB22A540A2094FBF0F080B2041EEEDC75
:1025B000BDE8F0812DE9F04104460F4690462646DD
:1025C0000CB1207810B90020BDE8F0810BE0307824
:1025D000FFF795FF0546002D03DBBD4201DA761CAF
:1025E00001E00020F0E730780028F0D1B9B22046B1
:1025F000FFF7A0FFC8F800000120E5E710B50B4683
:10260000002104E0445C9C4200D14254491C445CDB
:10261000002CF7D110BD014600200A06100C40EA3C
:1026200011207047014600200806C1F3072240EA46
:102630000240C1F3074240EA022040EA11607047BD
:102640002DE9F04781460E4617461D46314648465D
:1026500002F074FC0446304602F08EFC0444394615
:10266000204602F06BFC8246AAEB04001FFA80F8B9
:1026700042462146284602F073FC002005F8080077
:10268000BDE8F0872DE9F04188B006460F46314697
:10269000684602F085FC6C4600251BE012A120462E
:1026A00002F088FC04462078302809D16078782828
:1026B00006D11021A01CFFF73DFF00F0FF0805E048
:1026C0000A212046FFF736FF00F0FF0807F80580D3
:1026D00000246D1C042DE1DB08B0BDE8F081000092
:1026E0005C0000205E0000202E0000002DE9F0417B
:1026F00004460F460025E34EA846E348005D98B91E
:10270000E248005D80B90120E049085500233A46BF
:102710000121204601F09AFD18B90020DB49085537
:1027200002E0204601F0F2FDD748005D00F0010014
:1027300040B10220D5490855D348005D20F0010082
:10274000D1490855D048005D00F00200B8B12046DC
:1027500002F024FB051E0FDDB5F5006F01DD4FF41F
:1027600000652A463146204601F0EAFE00207055F9
:102770003146C7A002F0F0FE204600F030FAC24811
:10278000005D00F0040000283CD000214FF4B05060
:1027900002F0FDF800214FF4C05002F0F8F8BA48FA
:1027A00010F80480005D20F00400B7490855F021BE
:1027B0004FF4B05002F0EBF8FF214FF4C05002F09C
:1027C000E6F808F00400E8B1204602F0E7FA051E3A
:1027D00018DDB5F5006F01DD4FF400652A4631467E
:1027E000204601F0ADFE0546002070553146A8A0F8
:1027F00002F0B2FE2A463146204601F035FEA248DC
:1028000010F80480A048005D00F0100028B19E4838
:10281000005D20F010009C49085540219E48FEF7BD
:1028200060FA10B94020FDF75AFEBDE8F0812DE9AD
:10283000F04704460E46934F4FF000089248005D63
:10284000022834D003DC38B1012825D125E0042842
:1028500041D01028F9D178E08C48005D38B9324673
:1028600021468EA002F078FE0120884908550023F9
:1028700032460121204601F0E9FC38B9214693A0F7
:1028800002F06AFE00208149085505E09748028859
:10289000811C204601F059FD5EE002207B4908556D
:1028A0007948005D20F001007749085554E0204642
:1028B00002F074FA051E0ADDB5F5006F01DD4FF474
:1028C00000652A463946204601F03AFE0546204674
:1028D00000F085F940E000214FF4B05002F057F8C5
:1028E00000214FF4C05002F052F8674810F80480FD
:1028F000005D20F0040064490855F0214FF4A85011
:1029000002F045F8FF214FF4B85002F040F808F00B
:102910000400C8B1204602F041FA051E14DDB5F5E9
:10292000006F01DD4FF400652A463946204601F06C
:1029300007FE0546204602F031FA81464B46224604
:1029400029466BA002F008FE06E04F48005D20F02B
:1029500010004D49085500BF00BFBDE8F0872DE9C4
:10296000FF4104460D46DFF81C81002003906BA058
:10297000006801904448005D20B104281AD0102856
:102980007DD110E02A46214665A002F0E5FD002336
:102990002A460221204601F059FC18B921464BA0D5
:1029A00002F0DAFD6BE03848005D20F01000364997
:1029B000085564E000214FF4B05001F0E8FF002119
:1029C0004FF4C05001F0E3FF2F48075D005D20F099
:1029D00004002D490855F0214FF4A85001F0D7FF0D
:1029E000FF214FF4B85001F0D2FF07F00400002897
:1029F00044D0204602F0D2F9061E0DDDB6F5006F78
:102A000001DD4FF4006602A803AB32464146009058
:102A1000204601F03CFE06469DF8041040F60842B0
:102A200002EB441001F0B3FF9DF8051040F6084298
:102A300002EB4412501C01F0AAFF9DF8061040F66C
:102A4000084202EB4412901C01F0A1FF9DF8071010
:102A500040F6084202EB4412D01C01F098FF290A0C
:102A600041F2080202EB441001F091FFE9B241F299
:102A7000080202EB4412501C01F089FF00BF00BFA6
:102A8000BDE8FF81BD0E0020440000204C00002066
:102A900025730D0A00000000001001400D0A256496
:102AA000203A204C6F6F702D4261636B205443506D
:102AB00020436C69656E7420537461727465642E72
:102AC00020706F72743A202564000000072564208E
:102AD0003A204661696C20746F2063726561746589
:102AE00020736F636B65742E000000003E000020B1
:102AF000726563765F646174615F6C656E203A2015
:102B000025642C20676574536E5F52585F52535290
:102B100028256429203A2025640D0A00C0A80BED61
:102B20000D0A2564203A204C6F6F702D4261636B53
:102B30002055445020537461727465642E20706F68
:102B40007274203A256400002DE9F0410026002728
:102B500000214FF4B05001F01AFF00214FF4C05093
:102B600001F015FF4FF4A85001F02AFF06464FF47C
:102B7000B85001F025FF0746002E04DD31464FF422
:102B8000A85001F004FF00241BE000250120A04014
:102B90003840A0B14FF4027101EB441001F010FF76
:102BA00005461648005D28431449085505F00F05F1
:102BB0004FF4027101EB4410294601F0E8FE601C5D
:102BC000C4B2082CE1DBF0214FF4B05001F0DFFE7D
:102BD000FF214FF4C05001F0DAFEBDE8F08110B5DE
:102BE0000446204601F02DFC002005490855034805
:102BF000005D20F002000149085510BD440000208E
:102C00004C0000200020FE490860FE490860FC4896
:102C10000068401DFC4908600020FC4908707047AE
:102C200010B586B0FAA00068059000244FF4097131
:102C3000F848006802F077F90120F6490968087041
:102C4000F449096848700620F24909688870002034
:102C5000F0490968C870F0480068FFF754FBED4977
:102C6000096848600020FFF748FBEA4909680881C5
:102C70004FF40040FFF741FBE64909684881E74807
:102C800000680078E34909680877E44800684178FB
:102C9000E04800684177E14800688178DD480068D5
:102CA0008177DE480068C178DA480068C177DB4880
:102CB00000680179D748006880F82010D74800687C
:102CC0004179D448006880F8211063222146641CB1
:102CD000D0480068EC30425482222146641CCD4822
:102CE0000068EC30425453222146641CC9480068F5
:102CF000EC30425463222146641CC6480068EC3024
:102D0000425435222146641CC2480068EC304254CB
:102D100001222146641CBF480068EC304254214621
:102D2000641CBC480068EC3042543D222146641CBF
:102D3000B8480068EC30425407222146641CB5486C
:102D40000068EC30425401222146641CB1480068FE
:102D5000EC304254B148006802782146641CAD480A
:102D60000068EC304254AD48006842782146641C4B
:102D7000A8480068EC304254A84800688278214690
:102D8000641CA4480068EC304254A4480068C2782F
:102D90002146641C9F480068EC3042549F480068FC
:102DA00002792146641C9B480068EC3042549B48E1
:102DB000006842792046611C8CB296490968EC3162
:102DC0000A540C222046611C8CB292490968EC31ED
:102DD0000A54924800684079904909680979CDE918
:102DE00000108E480068C3788DA28FA102A802F05F
:102DF000C3FB02A802F0C0F8C2B22046611C8CB22C
:102E000084490968EC310A5482490968EC3108198F
:102E100002A902F0C5F802A802F0AEF8204484B27C
:102E200037222046611C8CB27A490968EC310A5479
:102E300006222046611C8CB276490968EC310A549E
:102E400001222046611C8CB272490968EC310A5497
:102E500003222046611C8CB26E490968EC310A5489
:102E600006222046611C8CB26A490968EC310A547A
:102E70000F222046611C8CB266490968EC310A5465
:102E80003A222046611C8CB262490968EC310A542E
:102E90003B222046611C8CB25E490968EC310A5421
:102EA000FF222046611C8CB25A490968EC310A5451
:102EB000432005AB4FF4097200905648016800208A
:102EC00001F05FFB5DA002F047FB06B010BD10B53E
:102ED00086B000244FF409714E48006802F023F8D0
:102EE00001204C49096808704A4909684870062061
:102EF000484909688870002046490968C8704648F2
:102F00000068FFF700FA4349096848600020FFF7AE
:102F1000F4F94049096808814E480078032807DA27
:102F20004FF40040FFF7E9F93A490968488109E0A0
:102F300000203849096848813648006846490968D0
:102F40000968C16033480068344909680A68C26189
:102F50008988018463222046611C8CB22D4909684E
:102F6000EC310A5482222046611C8CB2294909683E
:102F7000EC310A5453222046611C8CB22549096861
:102F8000EC310A5463222046611C8CB22149096845
:102F9000EC310A5435222046611C8CB21D49096867
:102FA000EC310A5401222046611C8CB2194909688F
:102FB000EC310A5403222046611C8CB21549096881
:102FC000EC310A543D222046611C8CB2114909683B
:102FD000EC310A5407222046611C8CB20D49096865
:102FE000EC310A5401222046611C8CB2094909685F
:102FF000EC310A540948006802782046611C2DE033
:103000008C0000209400002090000020850000200B
:10301000FFFFFFFFA00000209C00002060000020B8
:103020005735323030000000252E34732D253032D4
:1030300058253032582530325800000073656E74C0
:1030400020444843505F444953434F5645520D0A6C
:103050000000000084000020740000208CB2FE49B3
:103060000968EC310A54FD48006842782046611C2A
:103070008CB2F9490968EC310A54F8480068827842
:103080002046611C8CB2F4490968EC310A54F348BB
:103090000068C2782046611C8CB2EF490968EC31A7
:1030A0000A54EE48006802792046611C8CB2EA4955
:1030B0000968EC310A54E948006842792046611CED
:1030C0008CB2E5490968EC310A54E54800780328D8
:1030D0006BDA32222046611C8CB2DF490968EC3180
:1030E0000A5404222046611C8CB2DB490968EC3189
:1030F0000A54DC48006802782046611C8CB2D6492C
:103100000968EC310A54D748006842782046611CAF
:103110008CB2D1490968EC310A54D24800688278EF
:103120002046611C8CB2CC490968EC310A54CD4868
:103130000068C2782046611C8CB2C7490968EC312E
:103140000A5436222046611C8CB2C3490968EC310E
:103150000A5404222046611C8CB2BF490968EC3134
:103160000A54C14802782046611C8CB2BA490968E9
:10317000EC310A54BC4842782046611C8CB2B649F6
:103180000968EC310A54B84882782046611C8CB238
:10319000B1490968EC310A54B348C2782046611C31
:1031A0008CB2AD490968EC310A540C222046611CEE
:1031B0008CB2A9490968EC310A54A84800684079E2
:1031C000A64909680979CDE90010A4480068C378C8
:1031D000AFF2B412AFF2B01102A802F0CDF902A81A
:1031E00001F0CAFEC2B22046611C8CB29A4909683D
:1031F000EC310A5498490968EC31081902A901F028
:10320000CFFE02A801F0B8FE204484B23722204647
:10321000611C8CB290490968EC310A54082220469E
:10322000611C8CB28C490968EC310A540122214698
:10323000601C84B288480068EC3042540322204667
:10324000611C8CB284490968EC310A54062220467C
:10325000611C8CB280490968EC310A540F22204667
:10326000611C8CB27C490968EC310A543A22204630
:10327000611C8CB278490968EC310A543B22204623
:10328000611C8CB274490968EC310A541F22204633
:10329000611C8CB270490968EC310A542122214624
:1032A000601C84B26C480068EC304254FF22214616
:1032B000601C84B268480068EC304254684800786A
:1032C000032804DA042105A801F026FE02E066487E
:1032D00000680590432005AB4FF4097200905E48EA
:1032E0000168002001F04DF960A002F035F906B048
:1032F00010BD7CB5054600244FF40971564800689E
:1033000001F011FE0120544909680870524909680A
:103310004870062050490968887000204E490968A5
:10332000C87057480068FEF7EEFF4B4909684860CF
:103330000020FEF7E2FF484909680881002046495D
:103340000968488144480068444909680A68C261BC
:103350008988018463222146641C3F480068EC3060
:10336000425482222146641C3B480068EC3042549F
:1033700053222146641C38480068EC3042546322D2
:103380002146641C34480068EC3042543522214602
:10339000641C31480068EC30425401222146641C10
:1033A0002D480068EC3042540DB9072200E0042299
:1033B0002046611C8CB228490968EC310A543D2230
:1033C0002046611C8CB224490968EC310A5407225A
:1033D0002046611C8CB220490968EC310A54012254
:1033E0002046611C8CB21C490968EC310A541B4808
:1033F000006802782046611C8CB217490968EC31DC
:103400000A541648006842782046611C8CB2124962
:103410000968EC310A541148006882782046611C22
:103420008CB20D490968EC310A540C480068C27826
:103430002046611C8CB208490968EC310A540748DF
:10344000006802792046611C8CB203490968EC319E
:103450000A540248006815E0A00000206000002027
:1034600084000020740000207800002073656E74D2
:1034700020444843505F524551554553540D0A006E
:103480009C00002042792046611C8CB2FD490968ED
:10349000EC310A5436222046611C8CB2F949096885
:1034A000EC310A5404222046611C8CB2F5490968AB
:1034B000EC310A54F44802782046611C8CB2F14980
:1034C0000968EC310A54F04842782046611C8CB2FD
:1034D000EC490968EC310A54EB4882782046611CBB
:1034E0008CB2E8490968EC310A54E748C2782046B2
:1034F000611C8CB2E3490968EC310A54002D3BD0C1
:1035000032222046611C8CB2DE490968EC310A5433
:1035100004222046611C8CB2DA490968EC310A5455
:10352000DA48006802782046611C8CB2D5490968E7
:10353000EC310A54D548006842782046611C8CB2B0
:10354000D0490968EC310A54D04800688278204696
:10355000611C8CB2CB490968EC310A54CB48006835
:10356000C2782046611C8CB2C6490968EC310A5405
:10357000C7A001F0F1FF02E0CAA001F0EDFFFF22B9
:103580002046611C8CB2BF490968EC310A5425B150
:10359000042101A801F0C0FC02E0BB4800680190D2
:1035A000432001AB4FF409720090B6480168002037
:1035B00000F0E7FF7CBD2DE9FF4707464FF000090B
:1035C00001A802AB3A460090AE480168002001F025
:1035D0005EF88046AC48C0780090AB48837842786B
:1035E0000178B5A001F0B8FFB948C0780090B8489C
:1035F000837842780178B7A001F0AEFF9DF80B0008
:1036000000909DF80A309DF809209DF80810B7A099
:1036100001F0A2FF9B4800680078022803D1BDF8A2
:103620000400432806D0B7A001F096FF002004B0A4
:10363000BDE8F0870622B9480168924800681C304E
:1036400001F0A1FC40B9B6480068FEF75CFE8D4968
:103650000968496888424ED0B2A001F07DFFAF48AA
:1036600000688378AD4800684278AC48006801780B
:10367000B8A001F071FFA94800684379A748006825
:103680000279A6480068C178BAA001F065FF7D48BC
:103690000068837F7B480068427F7A480068017F2A
:1036A000B8A001F059FF7748006890F821307548BC
:1036B000006890F8202073480068C17FADA001F039
:1036C0004BFF70480068416895480268B6A001F059
:1036D00043FF6C480068C07C00906A480068837CA7
:1036E00068480068427C67480068017CB7A001F028
:1036F00033FF00209BE76448006800281AD0744814
:1037000000680299884215D05F4800680299884293
:1037100010D0B6A001F020FF9DF80B0000909DF89E
:103720000A309DF809209DF80810C0A001F014FF90
:1037300000207CE755480068524909680969016022
:10374000BFA001F009FF51480068C07800904F48C1
:10375000006883784D48006842784C4800680178DA
:10376000BCA001F0F9FE002646480468F034A8F138
:10377000F000051943462A462146BCA001F0ECFEA4
:103780000FE214F8011B332954D007DC71B1012971
:1037900015D003292DD0062972D144E0352906D051
:1037A000362954D0FF29F7D1304640E7F7E114F825
:1037B000019B26783146B5A001F0CEFEEFE114F86A
:1037C000019BB948006821680160B8A001F0C4FEFF
:1037D000B5480068C0780090B34800688378B24864
:1037E00000684278B0480068017891A001F0B4FE0A
:1037F000D5E114F8019BB148006821680160B0A0D0
:1038000001F0AAFEAD480068C0780090AB4800689F
:103810008378AA4800684278A8480068017884A0A4
:1038200001F09AFEBBE114F8019BAA4800682168E8
:103830000160B4E114F8019B2068FEF770FDA64911
:10384000086008460168A5A001F086FEA7E114F80B
:10385000019B0D48C07800900B488378427801782E
:10386000A5A001F079FE0848006850B1184800682A
:103870000299884205D0044800680299884249E1CB
:1038800086E148E1A00000207800002074000020BC
:1038900073656E7420444843505F4445434C494E21
:1038A000450D0A0073656E7420444843505F5245CD
:1038B0004C454153450D0A00444843505F5349501D
:1038C0003A25752E25752E25752E25750D0A0000B5
:1038D0007C000020444843505F5249503A25752EE1
:1038E00025752E25752E25750D0A00007376725FDD
:1038F000616464723A25752E25752E25752E257501
:103900000D0A000044484350203A204E4F204448BE
:103910004350204D53470D0A000000006000002076
:103920009C0000204E6F204D792044484350204D8C
:103930006573736167652E2054686973206D6573C4
:10394000736167652069732069676E6F7265642EA5
:103950000D0A0000095352435F4D41435F41444407
:103960005228253032582E253032582E25303258E4
:103970002E000000253032582E253032582E2530AA
:10398000325829002C20705249504D53472D3E6328
:10399000686164647228253032582E253032582EE2
:1039A000253032582E00000009705249504D5347BF
:1039B0002D3E7869642825303858292C2044484306
:1039C000505F584944282530385829000970524919
:1039D0004D504D53472D3E7969616464723A2564B8
:1039E0002E25642E25642E25640D0A00416E6F7409
:1039F0006865722044484350207365766572207371
:103A0000656E64206120726573706F6E7365206DE2
:103A10006573736167652E2054686973206973202C
:103A200069676E6F7265642E0D0A00000949503A8D
:103A300025752E25752E25752E25750D0A0000007D
:103A400044484350204D534720726563656976654D
:103A5000640D0A00796961646472203A2025752E2C
:103A600025752E25752E25750D0A000070203A202B
:103A700025303858202065203A202530385820201D
:103A80006C656E203A2025640D0A0000646863703E
:103A90004D65737361676554797065203A202530F0
:103AA00032580D0A00000000640000207375626E39
:103AB00065744D61736B203A20000000680000209F
:103AC000726F75746572734F6E5375626E65742094
:103AD0003A2000006C0000208800002064686370B9
:103AE0004950616464724C6561736554696D652009
:103AF0003A2025640D0A0000444843505F53495062
:103B0000203A2025752E25752E25752E25750D0A32
:103B10000000000022D1E94821680160E8480299CC
:103B20000160E8A001F018FDE448C0780090E34887
:103B3000837842780178AFF2081001F00DFDE8A01B
:103B400001F00AFDDE48C0780090DD4883784278B5
:103B50000178AFF2241001F0FFFC18E0E9A001F0B9
:103B6000FBFCD648C0780090D4488378427801782E
:103B7000EDA001F0F1FC9DF80B0000909DF80A30DB
:103B80009DF809209DF80810ECA001F0E5FC06E086
:103B900014F8019B4946EFA001F0DEFC00BF00BF16
:103BA0004C44AC42FFF4EDAD002040E510B5ED48CB
:103BB000007803282FDAEC480068EC49096888424D
:103BC00036D90020E849086008460068401DE749EA
:103BD0000860E4480078401CE2490870E448007836
:103BE000012804D0022808D0042812D10BE0E1A05B
:103BF00001F0B2FCFFF714F80CE0E9A001F0ACFC16
:103C0000FFF765F906E0F1A001F0A6FCFFF75FF908
:103C100000E000BF0CE0FEF7F5FF0120F649087058
:103C2000FEF7FEFF0120D2490870F4A001F094FCD9
:103C300010BD08B5FB480068C0780090F9480068DE
:103C40008378F84800684278F64800680178F6A062
:103C500001F082FC41F288300090F2481122FCA170
:103C60000368002000F08DFC38B1FEA001F074FC68
:103C70000120FFF73EFB002008BDFEA001F06CFC18
:103C80000120F9E7F8B505460024284601F03FF881
:103C900048B1284601F082F8061E17DD3046FFF7CE
:103CA0008AFC044612E0B248007810B9F5A001F091
:103CB00053FC002344220221184600F0C7FA28B919
:103CC0000021F7A001F048FC0120F8BDA8480078C9
:103CD00005287DD2DFE800F00311214566000020B1
:103CE000C5490870FEF78EFFFEF79AFF0020F549E0
:103CF000087001209E4908709AE0022C0AD1FEF754
:103D000081FFFFF7E4F8022099490870A7A001F0AD
:103D100023FC01E0FFF74AFF8AE0052C13D1FEF7F0
:103D200071FFFFF786FF30B1E7A001F015FC03201B
:103D30008F490870C9E792A001F00EFC01208C4960
:103D400008700420C1E7062C08D1FEF75BFF0120B4
:103D5000874908708AA001F0FFFB01E0FFF726FF0A
:103D600066E0E0480068401CD8B17F480068DD4943
:103D70000968B0EB510F14D90024DB48A949096840
:103D800009680160D9480068401CD8490860FFF7FD
:103D90009EF80420764908708FA001F0DDFBFEF745
:103DA00031FF45E0052C31D104229E480168CE4800
:103DB00001F0E9F8002820D0CDA001F0CDFBCA48E1
:103DC000C0780090C848837842780178D5A000E098
:103DD0002AE001F0C1FB93480068C0780090914848
:103DE000006883788F48006842788E4800680178C0
:103DF000D1A001F0B1FB032067E7D5A001F0ACFB37
:103E0000FEF700FF03205A4908700CE0062C08D189
:103E1000FEF7F8FE01205649087059A001F09CFBFE
:103E200001E0FFF7C3FE03E000205149087000BF26
:103E300000BF71480078012804D100204C49087067
:103E4000022042E7002040E7CB4801680068401CA0
:103E5000C94A1060B1F57A7F07D900201146086081
:103E600041480068401C40490860704700B589B06F
:103E7000C2A103C9CDE90701C0A103C9CDE905016C
:103E800000200490BF4899490860974800210160CC
:103E90000A4801600A48016000F001FEBA4800F0DB
:103EA000B3FE04A800F0A7FE04A800F094FE04A846
:103EB00000F0B3FEB5480068407969E17800002061
:103EC0007C0000204D7920646863705365727665CC
:103ED000724964656E746966696572203A200000F3
:103EE0004D79204448435020736572766572207284
:103EF00065616C2049502061646472657373203A77
:103F000020000000416E6F74686572206468637001
:103F10005365727665724964656E74696669657227
:103F2000203A200D0A000000094D592825752E253C
:103F3000752E25752E25752920000000416E6F74A1
:103F40006865722825752E25752E25752E257529EF
:103F50000D0A00006F70745F6C656E203A20257545
:103F60000D0A0000850000208C0000209000002039
:103F7000840000203C3C74696D656F75743E3E2082
:103F80007374617465203A2053544154455F44482A
:103F900043505F444953434F5645520D0A000000B9
:103FA0003C3C74696D656F75743E3E20737461743A
:103FB00065203A2053544154455F444843505F5272
:103FC0004551554553540D0A000000003C3C7469AE
:103FD0006D656F75743E3E207374617465203A2080
:103FE00053544154455F444843505F5245524551F4
:103FF000554553540D0A00008600002074696D6514
:104000006F7574203A207374617465203A2053549C
:104010004154455F444843505F444953434F5645DC
:10402000520D0A00740000203C436865636B2074E5
:10403000686520495020436F6E666C696374202563
:10404000642E25642E25642E25643A20000000008D
:10405000434845434B5F49505F434F4E464C4943AD
:104060005400000020436F6E666C6963743E0D0A55
:1040700000000000204E6F20436F6E666C69637411
:104080003E0D0A007374617465203A205354415404
:10409000455F444843505F52454144590D0A000072
:1040A0004661696C20746F20637265617465207469
:1040B00068652044484350435F534F434B28257560
:1040C000290D0A00980000207374617465203A205D
:1040D00053544154455F444843505F4C4541534518
:1040E000440D0A0088000020800000209C00002071
:1040F000546865204950206164647265737320665A
:10410000726F6D2074686520444843502073657257
:1041100076657220697320757064617465642E0D14
:104120000A0000004F4C445F5349503D25752E2531
:10413000752E25752E2575004745545F5349503D12
:1041400025752E25752E25752E25750D0A00000066
:104150007374617465203A2053544154455F444858
:1041600043505F4C4541534544203A2073616D658F
:104170002049500D0A0000009400002002020202B3
:104180000202020278563412B400002060000020BF
:104190001049096809790F4A1268D278CDE90021DF
:1041A00002900C48006883780A4800684278094801
:1041B0000068017808A001F0CFF905A907A800F070
:1041C00073FC00200D49087000210DA001F0C4F916
:1041D00009B000BD600000206D61633D253032787C
:1041E0003A253032783A253032783A253032783AEA
:1041F000253032783A253032780D0A0084000020CC
:10420000696E69745F646863705F636C69656E741E
:104210003A25750D0A00000010B504464FF484716C
:1042200001EB4410102100F0B2FB00BF4FF4847189
:1042300001EB441000F0C4FB0028F7D14FF40271E9
:1042400001EB4410FF2100F0A2FB10BD2DE9F0416D
:1042500004460D461646984605F00F0001280FD07B
:1042600005F00F0002280BD005F00F00032807D03F
:1042700005F00F00042803D005F00F00052841D1F8
:104280002046FFF7C9FF45EA0801082202EB441067
:1042900000F07DFB76B1310A4FF4816202EB4410ED
:1042A00000F075FBF1B24FF4A16202EB441000F094
:1042B0006EFB15E0FE480088401CFD4908800A4658
:1042C0001288110A4FF4816202EB441000F05FFB88
:1042D000F74A11784FF4A16202EB441000F057FB4B
:1042E0004FF4847101EB4410012100F050FB00BF3A
:1042F0004FF4847101EB441000F062FB0028F7D109
:10430000012700E000273846BDE8F08170B504467B
:104310004FF4427101EB441000F052FB132811D10D
:104320004FF4847101EB4410022100F030FB00BF18
:104330004FF4847101EB441000F042FB0028F7D1E8
:10434000012500E00025284670BD2DE9F041054615
:104350000C4616462078FF2808D16078FF2805D142
:10436000A078FF2802D1E078FF2808D0207828B96B
:10437000607818B9A07808B9E07800B10EB90027C4
:104380005CE00127217840F6084202EB451000F07E
:10439000FEFA617840F6085202EB451000F0F7FA99
:1043A000A17840F6086202EB451000F0F0FAE178DF
:1043B00040F6087202EB451000F0E9FA310A41F2CA
:1043C000080202EB451000F0E2FAF1B241F20812E5
:1043D00002EB451000F0DBFA4FF4847101EB45105D
:1043E000042100F0D4FA00BF4FF4847101EB4510B2
:1043F00000F0E6FA0028F7D117E04FF4427101EB24
:10440000451000F0DDFA172800D116E0284600F02C
:1044100075FC00F0080040B14FF4027101EB45104B
:10442000082100F0B4FA002707E04FF4427101EBD5
:10443000451000F0C5FA1528DFD100BF3846BDE8A9
:10444000F08110B504464FF4847101EB441008214B
:1044500000F09DFA00BF4FF4847101EB441000F0AE
:10446000AFFA0028F7D110BD2DE9F0470446884681
:10447000164600250027A946204600F073FAB042F0
:1044800004DA204600F06EFA074600E0374600BF27
:10449000204600F045FC81464FF4427101EB441088
:1044A00000F08EFA0546172D03D01C2D01D00027F1
:1044B00001E0B945ECDB00BF3A464146204600F03A
:1044C00097FC4FF4847101EB4410202100F05FFA57
:1044D00000BF4FF4847101EB441000F071FA002822
:1044E000F7D113E04FF4427101EB441000F068FA89
:1044F0000546172D0AD01C2D08D06EA001F02CF80F
:104500002046FFF789FE0020BDE8F0874FF40271D6
:1045100001EB441000F054FA00F010001028E1D133
:104520004FF4027101EB4410102100F030FA4FF407
:10453000027101EB4410102100F029FA3846E3E73C
:104540002DE9F04104460E4615460027002D15DDE5
:104550002A463146204600F085FC4FF4847101EB79
:104560004410402100F013FA00BF4FF4847101EBB6
:10457000441000F025FA0028F7D12F463846BDE850
:10458000F0812DE9F0470446894616461D46089FEE
:104590004FF00008204600F0E5F9B04204DA20466A
:1045A00000F0E0F9804600E0B046287828B9687845
:1045B00018B9A87808B9E87800B117B94FF0000821
:1045C00063E0297840F6084202EB441000F0DFF97E
:1045D000697840F6085202EB441000F0D8F9A97847
:1045E00040F6086202EB441000F0D1F9E97840F699
:1045F000087202EB441000F0CAF9390A41F20802CD
:1046000002EB441000F0C3F9F9B241F2081202EBD8
:10461000441000F0BCF942464946204600F0E8FB51
:104620004FF4847101EB4410202100F0B0F900BF79
:104630004FF4847101EB441000F0C2F90028F7D167
:1046400012E04FF4027101EB441000F0B9F900F0F0
:10465000080048B14FF4027101EB4410182100F03A
:1046600096F90020BDE8F0874FF4027101EB441089
:1046700000F0A6F900F010001028E2D14FF402710A
:1046800001EB4410102100F082F94046EAE72DE9E1
:10469000FC5F05468A4691461E46DDF830800027BD
:1046A0000024A346B9F1000F71DD42F608010BE0CA
:1046B000A400002053454E445F4F4B2050726F6260
:1046C0006C656D21210D0A0001EB451000F078F9B1
:1046D000044642F6081101EB451000F071F900EBB9
:1046E000042084B2200200EB451000F1180B0821D1
:1046F00001EB451000F064F900F00700022804D037
:10470000032845D0042878D178E008226946584625
:1047100000F097F904F1080084B29DF800003070B1
:104720009DF8010070709DF80200B0709DF80300C4
:10473000F0709DF80400A8F800009DF8050098F8B6
:10474000001000EB0120A8F800009DF806709DF80D
:10475000070000EB072087B2200200EB451000F1B4
:10476000180B3A465146584600F06BF9E01984B2EE
:10477000210A42F6080202EB451000F008F9E1B206
:1047800042F6081202EB451000F001F96AE07AE007
:1047900006226946584600F054F9A01D84B29DF8DF
:1047A000000030709DF8010070709DF80200B0703C
:1047B0009DF80300F0709DF804709DF8050000EB73
:1047C000072087B2200200EB451000F1180B3A4693
:1047D0005146584600F035F9E01984B2210A42F6F4
:1047E000080202EB451000F0D2F8E1B242F60812DE
:1047F00002EB451000F0CBF834E032E002226946CB
:10480000584600F01EF9A01C84B29DF800709DF877
:10481000010000EB0720801E87B240F2EA50874279
:1048200004DD1AA000F098FE00BFFEE7200200EBB6
:10483000451000F1180B3A465146584600F001F970
:10484000E01984B2210A42F6080202EB451000F09A
:104850009EF8E1B242F6081202EB451000F097F81C
:1048600000E000BF00BF4FF4847101EB4510402110
:1048700000F08DF800BF4FF4847101EB451000F09B
:104880009FF80028F7D13846BDE8FC9F6461746149
:104890005F6C656E206F76657220313531340D0A9C
:1048A0000000000000B585B00020ADF800004FF416
:1048B0008270ADF802000020ADF80400ADF80600EB
:1048C000ADF808004FF40070ADF80A000820ADF80C
:1048D0000C000020ADF80E000720ADF8100069466E
:1048E0001848FCF7B1FC01211648FCF752FD05B051
:1048F00000BD10B504462CB94FF480511248FCF7A6
:104900000CFA05E0012C03D121030F48FCF703FA50
:1049100010BD10B5044600BF02210A48FCF7BDFDDA
:104920000028F9D021460748FCF764FD00BF0121AB
:104930000448FCF7B2FD0028F9D00248FCF75CFD02
:10494000C0B210BD00380040000C01400146FE48D6
:10495000405C7047FC4A115470470146FB4830F8F0
:10496000110070470146FA4830F81100704710B541
:104970000020FFF7BEFF10BD10B50120FFF7B9FF03
:1049800010BD10B504462046FFF7C3FF10BD70B53B
:1049900004460D46FFF7EBFFC4F30740FFF7F1FFB6
:1049A000C4F30720FFF7EDFF04F0F801091DC8B2BA
:1049B000FFF7E7FF2846FFF7E4FFFFF7DDFF70BDD5
:1049C00070B504460025FFF7D2FFC4F30740FFF798
:1049D000D8FFC4F30720FFF7D4FF04F0F800FFF777
:1049E000D0FF0020FFF7CDFF0546FFF7C5FF2846A3
:1049F00070BD2DE9F04104460F461546002615B955
:104A0000D4A000F0A9FDFFF7B2FFC4F30740FFF701
:104A1000B8FFC4F30720FFF7B4FF04F0F801091D45
:104A2000C8B2FFF7AEFF002604E0B85DFFF7A9FFAC
:104A3000701C86B2AE42F8DBFFF79EFF2846BDE849
:104A4000F0812DE9F04104460F461546002615B9C0
:104A5000C0A000F081FDFFF78AFFC4F30740FFF715
:104A600090FFC4F30720FFF78CFF04F0F800FFF776
:104A700088FF002605E00020FFF783FFB855701C73
:104A800086B2AE42F7DBFFF777FF2846BDE8F0813C
:104A900010B5044621460020FFF779FF10BD10B580
:104AA0008020FFF7F5FF10BD2DE9F04105460E46C9
:104AB0000027B846002489E0295D41F6087202EB20
:104AC0004410FFF764FF315D41F6086202EB4410C9
:104AD000FFF75DFF00209E4921F814009B4921F853
:104AE0001400B7F5804F32DC285D042816D004DCB2
:104AF000012807D0022823D10AE0082814D0102862
:104B00001ED117E04FF48060914921F814001DE098
:104B10004FF400608E4921F8140017E04FF48050E4
:104B20008B4921F8140011E04FF40050884921F816
:104B300014000BE04FF48040854921F8140005E093
:104B40004FF40060814921F8140000BF00BFB8F5A0
:104B5000804F32DC305D042816D004DC012807D0F9
:104B6000022823D10AE0082814D010281ED117E00B
:104B70004FF48060754921F814001DE04FF4006087
:104B8000724921F8140017E04FF480506F4921F862
:104B9000140011E04FF400506C4921F814000BE0B0
:104BA0004FF48040694921F8140005E04FF400609B
:104BB000664921F8140000BF00BF654830F81400B2
:104BC0000744624830F814008044641C082CFFF647
:104BD00073AFBDE8F08110B5044604222146900170
:104BE000FFF707FF10BD10B50446042221469001CF
:104BF000FFF727FF10BD10B50446042221464FF4ED
:104C0000A060FFF7F6FE10BD10B50446062221464F
:104C10004FF41060FFF7EDFE10BD10B504460422FE
:104C200021464FF47060FFF7E4FE10BD10B5044656
:104C3000042221469001FFF704FF10BD10B5044681
:104C4000042221464FF4A060FFF7FBFE10BD10B513
:104C50000446062221464FF41060FFF7F2FE10BD15
:104C600010B50446042221464FF47060FFF7E9FEB8
:104C700010BD10B54FF4A850FFF7A2FE10BD10B53F
:104C80000446210A4FF4C850FFF781FEE1B24FF409
:104C9000D050FFF77CFE10BD10B5044621464FF4FE
:104CA000D850FFF774FE10BD70B50446FFF7E1FF62
:104CB00060EA0400C5B229464FF4A850FFF767FE2A
:104CC00070BD70B504460D46290A41F2082202EB78
:104CD0004410FFF75CFEE9B241F2083202EB4410E7
:104CE000FFF755FE70BD70B504460D4641F20861F0
:104CF00001EB44102946FFF74AFE70BD10B504468B
:104D00004FF4027101EB4410FFF75AFE10BD10B5CD
:104D100004464FF4427101EB4410FFF751FE10BD01
:104D200070B504460025002600BF42F2080101EBE1
:104D30004410FFF745FE064642F2081101EB44100D
:104D4000FFF73EFE12E0000044000020FE1A0020A3
:104D5000EE1A0020556E65787065637465643220C4
:104D60006C656E67746820300D0A000000EB062049
:104D700086B27EB142F2080101EB4410FFF720FE3B
:104D8000054642F2081101EB4410FFF719FE00EB53
:104D9000052085B2B542C8D1284670BD70B504461D
:104DA0000025002600BF42F2086101EB4410FFF726
:104DB00007FE064642F2087101EB4410FFF700FEC1
:104DC00000EB062086B27EB142F2086101EB44108E
:104DD000FFF7F6FD054642F2087101EB4410FFF7BC
:104DE000EFFD00EB052085B2B542DCD1284670BD51
:104DF0002DE9F04104460F4616460025A8462EB977
:104E0000214635A000F0A8FBBDE8F08142F2084140
:104E100001EB4410FFF7D4FD054642F2085101EBC7
:104E20004410FFF7CDFD00EB052085B2280200EB12
:104E3000441000F11008324639464046FFF7D9FDCC
:104E4000A81985B2290A42F2084202EB4410FFF782
:104E50009EFDE9B242F2085202EB4410FFF797FDC3
:104E600000BFD1E72DE9F04104460F461646002564
:104E7000A8462EB9214620A000F06EFBBDE8F081C7
:104E800042F6080101EB4410FFF79AFD054642F691
:104E9000081101EB4410FFF793FD00EB052085B2EC
:104EA000280200EB441000F118083246394640460B
:104EB000FFF7C7FDA81985B2290A42F6080202EBDE
:104EC0004410FFF764FDE9B242F6081202EB441009
:104ED000FFF75DFD00BFD1E743483A202564205528
:104EE0006E657870656374656431206C656E677497
:104EF0006820300D0A00000043483A202564205500
:104F00006E657870656374656432206C656E677475
:104F10006820300D0A000000D2B201E000F8012B39
:104F2000491EFBD270470022F6E710B513460A4629
:104F300004461946FFF7F0FF204610BD30B5054680
:104F40002A460B4612F8010B13F8014B08B1A04298
:104F5000F8D01CB1002802D06D1CF1E7284630BD06
:104F600010B5044604E00B7800F8013B03B1491C7E
:104F7000521EF8D2204610BD421C10F8011B002919
:104F8000FBD1801A704730B504460020034600E08C
:104F90005B1C934203D2E05CCD5C401BF8D030BD7B
:104FA000034611F8012B00F8012B002AF9D118460D
:104FB0007047000070B50F4D00B92868002412E05A
:104FC0000A4602E09E4203D0521C1378002BF9D10E
:104FD000DAB2224305D02BB124B1002100F8011B25
:104FE00004E00446401C0678002EE9D128602046E3
:104FF00070BD0000A800002030B50B46014600201F
:105000002022012409E021FA02F59D4205D303FA8A
:1050100002F5491B04FA02F52844151EA2F101020B
:10502000F1DC30BD2DE9F05F0546002092469B463D
:1050300088460646814640241BE0284641464746AE
:10504000224600F0FAF953465A46C01A914110D34D
:1050500011461846224600F0E1F92D1A67EB0108C7
:105060004F4622460120002100F0D8F917EB000935
:105070004E41201EA4F10104DFDC484631462A4699
:105080004346BDE8F09F2DE9FE4F804681EA0300CC
:10509000C00F0C46009021F0004123F00045B8EB12
:1050A0000200A94105D24046214690461C460B46C7
:1050B000024623F00040104347D0270DC7F30A00F3
:1050C000C3F30A510290401A019040286BDAC3F3EF
:1050D000130040F4801B0098924620B10023D2EBCD
:1050E000030A63EB0B0B01985946C0F1400250468E
:1050F00000F094F906460D4650465946019A00F0D4
:10510000ACF910EB08006141002487EA115284EAEF
:10511000E7731A4340D0009A62B3019A012A4FEA1A
:10512000075215DC001B61EB02014FF0004202EA5E
:105130000752CDE90042001C41F5801132462B4652
:1051400000F0ACF903B0BDE8F08F40462146F9E726
:10515000001B61EB0201001C41F5801300185B414C
:105160002018A2F5001747EB030140EAD570B619E5
:105170006D4111E06D084FEA360645EAC0754FEA09
:105180000752001B61EB0201001C41F58011490828
:105190004FEA30000019514132462B4603B0BDE8BA
:1051A000F04F00F06CB90098012240000023D0EBD2
:1051B000020263EBE073009821464FEAE074B8EB1B
:1051C000000061EB0401E9E783F000435BE781F055
:1051D000004158E72DE9FE4F81EA030404F0004442
:1051E00021F0004100944FF0000B23F0004350EAFF
:1051F00001045ED052EA03045BD0C3F30A54C1F346
:105200000A552C44A4F2F3340194A0FB0254C1F3D8
:10521000130141F48011C3F3130343F4801301FB22
:10522000024400FB034E840A970A44EA815447EA89
:105230008357A4FB076802958D0A05FB07854FEA93
:10524000932C04FB0C542705029D4FEA065847EAAD
:105250001637B5EB08056EEB070C870E920E47EA82
:10526000811742EA8312A7FB0201B6EB0B0164EB44
:1052700000042B0D43EA0C335E1844EB1C50DA4655
:105280005146E7FB0201C5F313044FEA0B3343EA2F
:1052900014534FEA0432019C43EA0603A4F10C04C0
:1052A0000294009CCDE900B400F0F8F803B0BDE82A
:1052B000F08F00200146F9E72DE9F04D81EA030463
:1052C00004F0004B21F0004514464FF0000A23F093
:1052D000004150EA050220D054EA01021DD0C5F376
:1052E0000A570246C5F31303C1F31300C1F30A566C
:1052F00040F4801543F48013A7EB0608101BD64634
:1053000008F2FD3873EB050002D308F1010801E053
:1053100092185B41B8F1000F03DA00200146BDE8A6
:10532000F08D00204FF48011064684460EE0171BD6
:1053300073EB050705D3121B63EB050306434CEA29
:10534000010C49084FEA300092185B4150EA01070E
:10535000EDD152EA030012D082EA040083EA05018B
:10536000084305D0101BAB4106D20122002306E002
:1053700000224FF0004302E06FF0010253101AEBDD
:1053800006004CEB085110EB0A0041EB0B01BDE8A5
:10539000F04D00F074B8C1F30A52C1F3130140F2AA
:1053A000FF3341F480119A4202DA0020014670472F
:1053B00040F233439A42A2F2334202DC524200F0FE
:1053C0003CB800F02BB8000030B5041E71F10004A9
:1053D00004DB4FF00044404264EB0101141E73F102
:1053E000000405DB1C464FF00043524263EB04030C
:1053F000994208BF904230BD064C074D06E0E06878
:1054000040F0010394E8070098471034AC42F6D30B
:10541000FAF792FEC8620008E8620008202A04DB5E
:10542000203A00FA02F1002070479140C2F12003B7
:1054300020FA03F3194390407047202A04DB203AF6
:1054400021FA02F00021704721FA02F3D040C2F1A4
:1054500020029140084319467047202A06DBCB17EB
:10546000203A41FA02F043EAE07306E041FA02F31F
:10547000D040C2F12002914008431946704710B550
:10548000141E73F1000408DA401C41F10001921867
:105490005B411A4301D120F0010010BD2DE9F04D10
:1054A00092469B4611B1B1FA81F202E0B0FA80F265
:1054B00020329046FFF7B2FF04460F4640EA0A004A
:1054C00041EA0B0153465A46084313D0114653EAAA
:1054D000010019D0C8F140025046FFF7AEFF054663
:1054E0000E46504659464246FFF798FF084305D0FE
:1054F000012004E020463946BDE8F08D0020054338
:1055000046EAE0762C4337430A986305E40AA0EBA9
:1055100008000022FD0A44EA47540A3002D5002060
:105520000146E9E7010510196941DDE9084500195F
:105530006941BDE8F04DA2E70FB4054B10B503A9D2
:10554000044A029800F0F6FA10BC5DF814FB000063
:10555000EF1B0008AC0000200FB4054B10B503A9E9
:10556000044A029800F0DEF810BC5DF814FB00005D
:10557000EF1B0008AC0000200FB4084B10B504A9C5
:1055800002AA039800F0CEF8044602A9002000F019
:1055900091FE204610BC5DF814FB0000B5620008C7
:1055A00002E008C8121F08C1002AFAD170477047EC
:1055B000002001E001C1121F002AFBD1704700004A
:1055C0002DE9FF5FDDE90220010DDDF838B002436F
:1055D00018D044F61050A1F2FF3141430D140F983A
:1055E000012820D0A5EB0B00401C5FEA000A4FF019
:1055F0000004474EDFF81C91A046504616D5CAF16C
:10560000000728E00F98012443A2012808D00021B8
:1056100000980F9BC0E90021C0E90243BDE8FF9F4D
:105620006FEA0B01F4E7CBF10000DEE7074612E07A
:10563000F80707D02246334640464946FFF7CAFDE1
:10564000804689462246334610461946FFF7C2FD7A
:1056500004460E467F10002FEAD1DDE90201BAF1BF
:10566000000F42464B4602DAFFF7B4FD01E0FFF7B8
:1056700023FE04460E460022284BFFF7A5FE03D862
:105680004FF0FF30014607E00022254B204631460F
:10569000FFF7F9FCFFF77FFE102409E0002C0ADB7E
:1056A0000A220023FFF7BEFC019B30321A55641E0C
:1056B00050EA0102F2D1641C019AC4F111031444AE
:1056C0000F9A012A03D0012208430DD10AE00843B2
:1056D00004D000204FF0110B0F9080E7A3EB0B05D7
:1056E0006D1E0DE05B4504DD4FF0000205F1010584
:1056F00004E003DA4FF00002A5F10105002AECD026
:1057000000980F99C0E90231C0E9004586E7000022
:10571000000024400000F03F300000000000F04393
:105720000000E03F2DE9FF4F8DB00F4605460026F3
:1057300006E025280BD0DDE90F1290476D1C761C82
:1057400028780028F5D111B03046BDE8F08F00244C
:10575000A246A1460122EC4900E0044315F8013FAE
:10576000203B02FA03F00842F7D128782A2810D00B
:105770006FF02F022878A0F13001092914D80AEB24
:105780008A0102EB410144F0020400EB010A6D1CA6
:10579000F0E701CF5FEA000A03D544F40054CAF1F0
:1057A000000A44F002046D1C28782E2817D115F841
:1057B000010F44F004042A280ED06FF02F0228783D
:1057C000A0F1300109290AD809EB890102EB410156
:1057D00000EB01096D1CF2E757F8049B6D1C28785B
:1057E0006C280FD006DC4C2817D068280DD06A280A
:1057F00014D104E0742810D07A280FD10DE044F4BD
:1058000000140AE044F4801401E044F44014697880
:10581000814202D104F580146D1C6D1C2A786E2A19
:105820001FD00CDC632A31D004DC002A8BD0582A2C
:1058300011D1A3E0642A68D0692A0CD165E0732AEB
:105840002ED004DC6F2A73D0702A04D19BE0752A15
:105850006FD0782A6ED01046DDE90F129047761C83
:1058600050E1C4F30250022806D0032809D00428CE
:1058700001CF09D0066045E101CFF117C0E9006111
:1058800040E101CF06803DE106703BE117F8040BD3
:105890008DF8000000208DF80100EB46012003E0A8
:1058A00057F804BB4FF0FF3061074FF0000102D4FE
:1058B0000DE008F10101884649450FDA8045F8DB23
:1058C0001BF808100029F4D108E008F1010188460E
:1058D0008142FADB1BF808100029F6D1DDE90F231D
:1058E000AAEB08008146214600F0B6FC304400EBEC
:1058F000080604E0DDE90F121BF8010B9047B8F130
:105900000108F7D221464846F7E00A21C4F30253C2
:105910004FF0000B0891022B04D001CFC117032BCD
:1059200009D00AE0FF1D27F00707F7E8020108E0A9
:1059300032E01FE020E000B2C117042B01D140B2D9
:10594000C117031E71F1000307DA4FF0000CD0EB12
:105950000C006CEB01012D2302E0230504D52B2361
:105960008DF82430012303E0E30701D02023F7E77B
:10597000984658E00A2110E010210EE010204FF068
:10598000000B08900CE010214FF0000B44F00404D1
:105990004FF00809089103E008214FF0000B08912F
:1059A000C4F30253022B04D001CF0021032B06D0F5
:1059B00006E0FF1D27F00707F7E8020103E080B2C9
:1059C000042B00D1C0B24FF0000823072BD5702A5A
:1059D00007D0DDF820C08CF0100C5CEA0B0C05D071
:1059E0000EE040238DF82430012308E050EA010343
:1059F00006D030238DF824308DF8252002239846D8
:105A0000DDF820C08CF0080C5CEA0B0C0BD150EADE
:105A1000010301D1630706D530238DF824304FF000
:105A20000108A9F10109582A04D038A20B9208AA4A
:105A30000A920BE03AA2F9E75B46089AFFF7F2FAFE
:105A40000B9B9B5C0A9A521E0A92137050EA010249
:105A5000F2D10A98ADEB000000F1200B600702D5EF
:105A600024F4803401E04FF00109D94502DDA9EBAF
:105A70000B0000E0002000EB0B0141440890AAEB72
:105A8000010AE00306D4DDE90F232146504600F069
:105A9000E3FB06444FF0000908E009A911F80900EA
:105AA000DDE90F12904709F10109761CC145F4DBCD
:105AB000E0030CD5DDE90F232146504600F0CCFB76
:105AC000064404E0DDE90F1230209047761C089967
:105AD000481E08900029F5DC08E00A980A99007829
