:020000040800F2
:10000000F013002045010008E5200008E720000863
:10001000EB200008EF200008F3200008000000009B
:10002000000000000000000000000000F7200008B1
:10003000F920000800000000FB200008FD20000857
:100040005F0100085F0100085F0100085F01000810
:100050005F0100085F0100085F0100085F01000800
:100060005F0100085F0100085F0100085F010008F0
:100070005F0100085F0100085F0100085F010008E0
:100080005F0100085F0100085F0100085F010008D0
:100090005F0100085F0100085F0100085F010008C0
:1000A0005F0100085F0100085F0100085F010008B0
:1000B000FF2000085F0100085F0100085F010008E1
:1000C0005F0100085F0100085F0100085F01000890
:1000D0005F0100085F0100085F0100085F01000880
:1000E0005F0100085F0100085F0100085F01000870
:1000F0005F0100085F0100085F0100085F01000860
:100100005F0100085F0100085F0100085F0100084F
:100110005F0100085F0100085F0100085F0100083F
:100120005F0100085F0100085F0100085F0100082F
:10013000DFF80CD005F0DAFB004800475520000836
:10014000F01300200648804706480047FEE7FEE718
:10015000FEE7FEE7FEE7FEE7FEE7FEE7FEE7FEE777
:1001600047020008310100080CB500200190009002
:100170006C48006840F480306A49086000BF6948F4
:10018000006800F4003000900198401C0190009835
:1001900018B90198B0F5A06FF1D16248006800F479
:1001A000003010B10120009001E000200090009884
:1001B000012843D15C48006840F010005A490860AB
:1001C0000846006820F0030008600846006840F018
:1001D0000200086053484068524948600846406839
:1001E00048600846406840F48060486008464068BF
:1001F00020F47C1048600846406840F4E8104860ED
:100200000846006840F08070086000BF45480068FC
:1002100000F000700028F9D04248406820F0030048
:10022000404948600846406840F00200486000BF0E
:100230003C48406800F00C000828F9D10CBD10B50E
:10024000FFF792FF10BD10B53648006840F001007E
:1002500034490860084640683449084031494860DC
:1002600008460068324908402E4908600846006880
:1002700020F4802008600846406820F4FE004860B2
:100280004FF41F008860FFF7DAFF4FF00060294944
:10029000086010BD10B5002100200022214B5B68D2
:1002A00003F00C0121B1042906D0082928D107E068
:1002B000214B224C236027E01F4B204C236023E07E
:1002C000184B5B6803F47010164B5B6803F48032C4
:1002D000022303EB904022B9194B4343174C236090
:1002E0000DE0104B5B6803F4003323B1144B434320
:1002F000124C236003E0104B4343104C236003E097
:100300000D4B0E4C236000BF00BF064B5B68C3F370
:1003100003130C4CE15C094B1B68CB40074C23607A
:1003200010BD000000100240002002400000FFF855
:10033000FFFFF6FE08ED00E000127A00000000204A
:1003400000093D000400002031490143314A116099
:10035000704770B5002100230F22C47804B32D4CE0
:10036000246804F4E064C4F5E064210AC1F10403E4
:10037000CA40447804FA03F1847814402143090107
:10038000254C0678A155047804F01F050124AC40E3
:1003900005786D11AD0005F1E025C5F8004109E0D3
:1003A000047804F01F050124AC401C4D067876113A
:1003B00045F8264070BD1A4A0A400243154B1B1FE0
:1003C0001A60704739B1134A121D12680243114B6B
:1003D0001B1D1A6006E00F4A121D126882430D4B66
:1003E0001B1D1A607047042808D14FF0E0210969ED
:1003F00041F004014FF0E022116107E04FF0E021ED
:10040000096921F004014FF0E022116170470000FA
:100410000000FA050CED00E000E400E080E100E0FF
:1004200080FFFF1F10B50446CC48844208D101214B
:10043000042000F02DFB0021042000F029FB46E001
:10044000C748844208D10121082000F021FB002187
:10045000082000F01DFB3AE0C248844208D1012187
:10046000102000F015FB0021102000F011FB2EE001
:10047000BD48844208D10121202000F009FB002161
:10048000202000F005FB22E0B848844208D1012179
:10049000402000F0FDFA0021402000F0F9FA16E0BB
:1004A000B348844208D10121802000F0F1FA0021F4
:1004B000802000F0EDFA0AE0AE48844207D1012125
:1004C000801500F0E5FA0021A01500F0E1FA10BD5A
:1004D00010B50121084600F0DBFA0021012000F0F0
:1004E000D7FA10BD2DE9F041024600250026002074
:1004F00000230024002791F803C00CF00F0591F8A9
:1005000003C00CF0100CBCF1000F03D091F802C036
:100510004CEA050591F800C0BCF1000F31D0146819
:1005200000202BE04FF0010C0CFA00F3B1F800C0F2
:100530000CEA03069E4220D183004FF00F0C0CFA08
:1005400003F7BC4305FA03FC4CEA040491F803C02A
:10055000BCF1280F06D14FF0010C0CFA00FCC2F8D8
:1005600014C00AE091F803C0BCF1480F05D14FF068
:10057000010C0CFA00FCC2F810C0401C0828D1D3B2
:100580001460B1F800C0BCF1FF0F34DD54680020E6
:100590002EE000F1080C4FF0010808FA0CF3B1F856
:1005A00000C00CEA03069E4221D183004FF00F0CDD
:1005B0000CFA03F7BC4305FA03FC4CEA040491F877
:1005C00003C0BCF1280F05D100F1080C08FA0CF8A3
:1005D000C2F8148091F803C0BCF1480F07D100F1B4
:1005E000080C4FF0010808FA0CF8C2F81080401C03
:1005F0000828CED35460BDE8F0814FF6FF7101802A
:10060000022181700421C170704702460020936866
:100610000B400BB1012000E00020704701468868C4
:1006200080B2704702460020D3680B400BB1012016
:1006300000E0002070470146C86880B27047016141
:100640007047416170470AB1016100E04161704744
:10065000C16070474FF480320A43826181618261D8
:1006600082698269704702460020434B18684FF642
:100670008073184040EA021008433F4B18607047EF
:100680003E49C8617047F0B50A46002300240021A6
:10069000002500F00046B6F1004F02D1364EF16958
:1006A00001E0354E7168C0F3034583B200F4401693
:1006B000B6F5401F08D121F070612F4E766826F004
:1006C00070662D4F7E6012E000F48016B6F5801F34
:1006D00006D1032606FA05F4A14341F0706106E055
:1006E000460D360103FA06F6B14341F0706122B1BE
:1006F000460D360103FA06F6314300F00046B6F126
:10070000004F02D11C4EF16101E01B4E7160F0BD43
:1007100030B500228B071C0F0F2303FA04F2164B8F
:1007200008338C1053F824309343134C08348D1045
:1007300044F8253023468C1053F824308C07240FBE
:1007400000FA04F423430C4C08348D1044F825308F
:1007500030BD0A49DC3108607047000000080140E4
:10076000000C01400010014000140140001801403D
:10077000001C014000200140000001400000204218
:10078000DF48006840F00100DD4908600846406825
:10079000DC490840DA49486008460068DA49084000
:1007A000D74908600846006820F4802008600846A1
:1007B000406820F4FE0048604FF41F0088607047D6
:1007C000CF49096821F48031CD4A1160114609688A
:1007D00021F480211160B0F5803F03D0B0F5802F67
:1007E0000ED106E0C649096841F48031C44A11605F
:1007F00007E0C349096841F4A021C14A116000E043
:1008000000BF00BF704710B5014600220023002042
:100810004A11012A02D1BA4C236806E0022A02D109
:10082000B74C236A01E0B64C636A01F01F02012451
:1008300094401C400CB1012000E0002010BD38B5F0
:10084000002000900024002500BF3120FFF7DBFFCF
:1008500005460098401C00900098B0F5A06F01D0AC
:10086000002DF2D03120FFF7CEFF08B1012400E0C7
:100870000024204638BD01460020A14A106820F01F
:10088000F80040EAC10010607047A0490860704756
:10089000024600209A4B586820F47C1042EA01037B
:1008A0001843974B5860704798490866704701464F
:1008B0000020934A506820F00300084350607047BE
:1008C0008F48406800F00C007047014600208C4AB9
:1008D000506820F0F0000843506070470146002047
:1008E000874A506820F4E060084350607047014632
:1008F0000020834A506820F4605040EAC1005060F4
:10090000704729B17E4A527A02437D4B5A7204E005
:100910007B4A527A82437A4B5A7270477B49D8316C
:100920000860704701460020754A506820F4404036
:100930000843506070470021714A20321170704A9C
:1009400082F82010012802D004280AD104E00121F5
:100950006B4A2032117005E00521694A203211707E
:1009600000E000BF00BF70476949086070476449F4
:10097000096A0143624A1162704765494439086057
:10098000704730B500210022002400235C4D6D68C3
:1009900005F00C0121B1042905D0082923D105E077
:1009A0005C4D056022E05B4D05601FE0544D6D68B5
:1009B00005F47012524D6D6805F48034022505EB84
:1009C00092421CB9544D554305600BE04C4D6D6887
:1009D00005F400351DB1504D5543056002E04D4D05
:1009E0005543056002E04B4D056000BF00BF444D1C
:1009F0006D6805F0F0010909484D6B5C0568DD4044
:100A000045603F4D6D6805F4E061090A434D6B5C3C
:100A10004568DD4085603A4D6D6805F46051C90A4E
:100A20003E4D6B5C4568DD40C560354D6D6805F435
:100A30004041890B3A4D6B5CC568B5FBF3F5056128
:100A400030BD29B12E4A526902432D4B5A6104E050
:100A50002B4A526982432A4B5A61704729B1284A6E
:100A600092690243264B9A6104E0254A92698243C7
:100A7000234B9A61704729B1214AD2690243204B26
:100A8000DA6104E01E4AD26982431D4BDA61704785
:100A900029B11B4AD2680243194BDA6004E0184AB4
:100AA000D2688243164BDA60704729B1144A126942
:100AB0000243134B1A6104E0114A12698243104B3E
:100AC0001A61704712494039086070470F49C8647D
:100AD00070470B49C87170470948406A40F0807000
:100AE00007494862704701460020054A92680A405B
:100AF0000AB1012000E00020704701498872704768
:100B0000001002400000FFF8FFFFF6FE0000424226
:100B10008004424200127A0000093D0014000020C7
:100B20002400002010B50446BE48844208D10121AB
:100B30008014FFF7ADFF0021A014FFF7A9FF16E016
:100B4000B948844208D101210014FFF7AEFF00210B
:100B50002014FFF7AAFF0AE0B448844207D101211C
:100B6000C013FFF7A2FF0021E013FFF79EFF10BDA7
:100B700010B50022028802F441520B884C882343AE
:100B80008C882343CC8823430C8923434C892343FB
:100B90008C892343CC8923431A430280838B4FF2F1
:100BA000FF74234083830B8A038210BD2DE9F04F2D
:100BB00085B005460C464FF0000902274FF00008AB
:100BC0004FF0010B0026B246A88B4FF240010840BF
:100BD000A88302202884B5F81C90A068022801D1BF
:100BE00000BF38E0A08810B94FF0010B01E04FF0D2
:100BF000020B8D48854200D100E000BF6846FFF738
:100C0000C0FEDDF800A0E088B0F5007F0AD14FEA11
:100C10001A2000EB80004000A168B0FBF1F0401DFD
:100C200086B20BE04FEA4B10BAFBF0F000EB80000D
:100C30004000A168B0FBF1F0401D86B20A20B6FB6F
:100C4000F0F606F00108A6EB0800C0F34F074FF6D8
:100C5000FF7000EA0828022F01DBFF2F02DD0227C8
:100C60004FF00008E08840EA080038432884A08854
:100C7000A1890843618808432188084340F4006043
:100C800040EA0909A5F81C9005B0BDE8F08F0021E5
:100C9000018041808180C180018141818181C18148
:100CA0000721018270470021018041808180C1803D
:100CB0000221816000218181704721B1028842F0C8
:100CC0004002028004E002884FF6BF731A4002809F
:100CD000704721B1828B42F48062828304E0828B70
:100CE0004FF6FF331A408283704730B5002400234B
:100CF0000C110125A540ABB21AB185881D43858032
:100D000002E085889D43858030BD1AB183880B43FE
:100D1000838002E083888B438380704781817047A2
:100D20000146888970474FF6FF62914204D00288DD
:100D300042F48072028004E002884FF6FF631A409A
:100D40000280704721B1828842F00402828004E070
:100D500082884FF6FB731A408280704702884FF2F8
:100D6000FF731A40028002880A430280704701889C
:100D700041F480510180704721B1028842F4005251
:100D8000028004E002884DF6FF731A40028070472B
:100D900002460020012901D0108B00E0908A7047A4
:100DA0000146088A7047B1F5804F04D1028842F4A9
:100DB0008042028004E002884BF6FF731A400280F2
:100DC00070470246002013890B400BB1012000E060
:100DD00000207047CA4302817047F0B502460020E8
:100DE00000240023002501F00F070126BE40B4B205
:100DF0000B1101269E40B3B2968806EA03051689B8
:100E0000264016B10DB1012000E00020F0BD10B564
:100E1000002201F00F040123A3409AB2D3430381BF
:100E200010BD00000030014000380040003C004090
:100E300010B50446FE48844208D10121C014FFF7D2
:100E400027FE0021E014FFF723FEC4E0B4F1804F39
:100E500008D101210846FFF728FE00210120FFF7F5
:100E600024FEB8E0F348844208D101210220FFF7B4
:100E70001CFE00210220FFF718FEACE0EE48844281
:100E800008D101210420FFF710FE00210420FFF704
:100E90000CFEA0E0E948844208D101210820FFF7B8
:100EA00004FE00210820FFF700FE94E0E44884429D
:100EB00008D101211020FFF7F8FD00211020FFF7D5
:100EC000F4FD88E0DF48844208D101212020FFF7AB
:100ED000ECFD00212020FFF7E8FD7CE0DA488442A9
:100EE00008D101214014FFF7D3FD00216014FFF762
:100EF000CFFD70E0D548844209D10121C804FFF735
:100F0000C7FD00214FF40020FFF7C2FD63E0D04889
:100F1000844209D101210805FFF7BAFD00214FF4F1
:100F20008010FFF7B5FD56E0CA48844209D101217F
:100F30004805FFF7ADFD00214FF40010FFF7A8FDB5
:100F400049E0C548844208D101214020FFF7ADFDAA
:100F500000214020FFF7A9FD3DE0C048844208D1B0
:100F600001218020FFF7A1FD00218020FFF79DFDDA
:100F700031E0BB48844208D101218015FFF795FD7F
:100F80000021A015FFF791FD25E0B648844209D164
:100F900001210804FFF77CFD00214FF48030FFF7AA
:100FA00077FD18E0B048844209D101214804FFF7D9
:100FB0006FFD00214FF40030FFF76AFD0BE0AB48F6
:100FC000844208D101218804FFF762FD00214FF41B
:100FD0008020FFF75DFD10BD00220288944B9842EF
:100FE0000ED0994B98420BD0B0F1804F08D0914B66
:100FF000984205D0904B984202D0904B984204D131
:101000004FF68F731A404B881A438D4B984207D086
:101010008C4B984204D04FF6FF431A40CB881A43BA
:1010200002808B8883850B880385814B98420BD087
:10103000854B984208D08B4B984205D08A4B9842FA
:1010400002D08A4B984201D10B7A03860123838216
:10105000704770B5002400220023058C4FF6FE7601
:1010600035400584028C8388048B4FF68F752C40A5
:10107000B51E2C400D882C43751E2A400D892A432D
:101080004D882A436A4DA8420BD06F4DA84208D024
:10109000744DA84205D0744DA84202D0734DA842A9
:1010A00013D14FF6F7752A404D892A434FF6FB7549
:1010B0002A408D882A434FF6FF652B404FF6FF5597
:1010C0002B408D892B43CD892B4383800483CD888E
:1010D0008586028470BD70B5002400220023058C33
:1010E0004FF6EF7635400584028C8388048B48F6F2
:1010F000FF752C404FF6FF452C400D884FF6FF76CC
:1011000006EA05252C434FF6DF752A400D8906EACD
:1011100005152A434D8806EA05152A43444DA84281
:1011200002D0494DA8421DD14FF67F752A404D8906
:101130004FF6FF7606EA05152A434FF6BF752A409B
:101140008D8806EA05152A434FF6FF352B404FF2EE
:10115000FF752B408D8906EA85052B43CD8906EA6C
:1011600085052B4383800483CD880587028470BD69
:1011700070B5002400220023058C4FF6FF66354031
:101180000584028C8388848B4FF68F752C404FF634
:10119000FC752C400D882C434FF6FF552A400D89D5
:1011A0004FF6FF7606EA05252A434D8806EA05250F
:1011B0002A431F4DA84202D0234DA8421DD14FF211
:1011C000FF752A404D894FF6FF7606EA05252A432A
:1011D0004FF6FF352A408D8806EA05252A434EF64C
:1011E000FF752B404DF6FF752B408D8906EA0515DE
:1011F0002B43CD8906EA05152B4383808483CD8854
:101200008587028470BD70B5002200230024058C00
:101210004EF6FF7635400584038C8488828B48F631
:10122000FF752A404FF6FF452A400D8820E0000058
:10123000002C01400004004000080040000C004069
:10124000001000400014004000340140004C0140F8
:10125000005001400054014000180040001C0040B4
:10126000002000400040014000440140004801408F
:101270004FF6FF7606EA05252A434DF6FF752B400B
:101280000D8906EA05352B434D8806EA05352B43C3
:10129000FA4DA84202D0FA4DA84208D14BF6FF758C
:1012A0002C408D894FF6FF7606EA85152C43848005
:1012B0008283CD88A0F84050038470BD828B4FF2AA
:1012C000FF331A408283828B4FF6FF7303EA0123B8
:1012D0001A4382837047F0B50C4615460022002160
:1012E0000026078C4EF6FF7C07EA0C070784828BEA
:1012F000018C4FF6FF7707EA043640F6FF473A4085
:101300004FF6FF7707EA05273A434FF6FF7707EADC
:1013100003373A43D94FB8420ED0D94FB8420BD019
:10132000B0F1804F08D0D74FB84205D0D64FB84261
:1013300002D0D64FB84206D14DF6FF77394046F479
:101340008057394305E047F6FF57394044F480574A
:10135000394382830184F0BD828B4FF6F3731A40C8
:101360008283828B0A4382837047F0B50C46154610
:10137000002200210026078C4FF6FF6C07EA0C07BD
:101380000784828B018C4FF6FF7707EA04264FF61D
:101390000C773A404FF6FF7707EA03172F433A439B
:1013A000B64FB8420ED0B64FB8420BD0B0F1804F16
:1013B00008D0B44FB84205D0B34FB84202D0B34FB3
:1013C000B84206D14FF6FF57394046F4807739438B
:1013D00005E04FF2FF57394044F480773943828368
:1013E0000184F0BD028B4FF2FF331A400283028B5F
:1013F0004FF6FF7303EA01231A4302837047F0B5E7
:101400000C461546002200210026078C4FF6EF7C83
:1014100007EA0C070784028B018C4FF6FF7707EA77
:10142000041640F6FF473A404FF6FF7707EA0337C6
:101430003A434FF6FF7707EA05273A438F4FB84202
:101440000ED08F4FB8420BD0B0F1804F08D08D4FE7
:10145000B84205D08C4FB84202D08C4FB84206D16A
:101460004FF6DF77394046F01007394305E04FF675
:101470005F77394044F01007394302830184F0BD9F
:10148000028B4FF6F3731A400283028B0A430283E6
:101490007047F0B50C46154600220021068C4FF629
:1014A000FE773E400684028B018C4FF60C7632406C
:1014B0007E1C06EA03162E433243704EB0420ED015
:1014C0006F4EB0420BD0B0F1804F08D06D4EB0429D
:1014D00005D06D4EB04202D06C4EB04206D14FF6F0
:1014E000FD76314044F00106314305E04FF6F576D4
:1014F000314044F00106314302830184F0BD70B5F0
:1015000005460C465D4885420ED05D4885420BD0AD
:10151000B5F1804F08D05B48854205D05A488542D6
:1015200002D05A48854200D100E000BF208850B95F
:101530002389A28861882846FFF7ABFFE188284607
:10154000FFF79EFF25E0208804280AD12389A2887E
:1015500061882846FFF753FFE1882846FFF742FFDE
:1015600017E0208808280AD12389A28861882846A4
:10157000FFF7FBFEE1882846FFF7EEFE09E023892E
:10158000A28861882846FFF7A6FEE1882846FFF773
:1015900095FE70BD2DE9F04105460C460026012759
:1015A000608808B9022600E00026A088012801D141
:1015B000022700E001272088A0B92389A28861883A
:1015C0002846FFF766FFE1882846FFF759FF238981
:1015D0003A4631462846FFF712FFE1882846FFF7D2
:1015E00001FF13E02389A28861882846FFF707FFDF
:1015F000E1882846FFF7F6FE23893A463146284619
:10160000FFF747FFE1882846FFF73AFFBDE8F08182
:101610000A884B881A438B881A43CB881A430B8954
:101620001A434B891A438B891A43A0F84420704708
:101630004FF6FF71818000210180C18041800172DD
:1016400070470021018041808180C18001814181FA
:101650008181C18170470021018041800121818009
:101660000021C1800181704700210180418081807B
:10167000C18001814181818170470000002C0140BF
:10168000003401400004004000080040000C00400D
:1016900021B1028842F00102028004E002884FF684
:1016A000FE731A400280704731B1B0F8442042F412
:1016B0000042A0F8442005E0B0F84420C2F30E0236
:1016C000A0F8442070471AB183890B43838102E05C
:1016D00083898B43838170478182704741EA02038B
:1016E000A0F8483070471AB183890B43838102E028
:1016F00083898B438381704701894FF6F8721140CB
:10170000018170470A46002101894FF68F73194005
:1017100011430181704730B504460D4629462046E5
:10172000FFF7F0FF208940F00700208130BD2DE950
:10173000F04104460D4616461F46602D06D13B4635
:10174000012231462046FFF75AFE05E03B460122C2
:1017500031462046FFF79DFE29462046FFF7D2FF7F
:10176000208940F007002081BDE8F08130B50C46AB
:1017700000210189C9B24FF6FF7505EA032515431B
:1017800025432943018130BD2DE9F04105460E4630
:1017900017469846002443463A4631462846FFF706
:1017A000E5FF2C894FF6F870044044F007044FF62B
:1017B0008F70044044F070042C81BDE8F081F0B5D6
:1017C00004460D4616461F463B46324629462046ED
:1017D000FFF7CCFF208940F480402081F0BD0185D7
:1017E000828270470A46002101884FF68F731940A4
:1017F000114301807047F0B50C4615461E46002186
:10180000002200230189028B038C4FF6F8773940C0
:1018100021434FF6FC473A4040F201173A434FF656
:10182000DD773B404FF6FF7707EA06172F433B4330
:10183000018102830384F0BD0A460021018B4FF62B
:101840008F7319401143018370470A460021018BB1
:1018500048F6FF7319404FF6FF7303EA022319435A
:10186000018370470A460021818B4FF68F73194020
:101870001143818370470A460021818B48F6FF732C
:1018800019404FF6FF7303EA02231943818370471F
:1018900021B1028842F08002028004E002884FF603
:1018A0007F731A400280704721B1828842F004029F
:1018B000828004E082884FF6FB731A408280704772
:1018C00021B1828842F00802828004E082884FF6CB
:1018D000F7731A408280704721B1828842F001027A
:1018E000828004E082884FF6FE731A40828070473F
:1018F0000A460021018B4FF6F7731940114301830B
:1019000070470A460021018B4FF2FF7319404FF6D2
:10191000FF7303EA02231943018370470A4600213B
:10192000818B4FF6F77319401143818370470A4644
:101930000021818B4FF2FF7319404FF6FF7303EACA
:1019400002231943818370470A460021018B4FF619
:10195000FB7319401143018370470A460021018B34
:101960004FF6FF3319404FF6FF7303EA0223194382
:10197000018370470A460021818B4FF6FB731940A3
:101980001143818370470A460021818B4FF6FF3354
:1019900019404FF6FF7303EA02231943818370470E
:1019A0000A460021018B4FF67F73194011430183D2
:1019B00070470A460021018BC1F30E014FF6FF73F9
:1019C00003EA02231943018370470A460021818BF1
:1019D0004FF67F7319401143818370470A460021F7
:1019E000818BC1F30E014FF6FF7303EA0223194303
:1019F000818370470A460021018C4FF6FD73194020
:101A00001143018470470A460021018C4FF6F77399
:101A100019401143018470470A460021018C4FF69A
:101A2000DF7319404FF6FF7303EA02131943018471
:101A300070470A460021018C4FF67F7319404FF61C
:101A4000FF7303EA02131943018470470A46002119
:101A5000018C4FF6FF5319404FF6FF7303EA022340
:101A60001943018470470A460021018C4FF2FF732D
:101A700019404FF6FF7303EA0223194301847047AC
:101A80000A460021018C4DF6FF7319404FF6FF7393
:101A900003EA023319430184704730B5002301245F
:101AA0008C40A3B2048C9C430484048C02FA01F59C
:101AB000ADB22C43048430BD30B5002304248C40E7
:101AC000A3B2048C9C430484048C02FA01F5ADB2E9
:101AD0002C43048430BD70B5034600200024184612
:101AE000183001258D40ACB21D8CA5431D8409B171
:101AF000082909D100EB6100056825F07005056033
:101B00000568154305600EE00D1FC5F34E0528441A
:101B1000056825F4E045056005684FF6FF7606EA9E
:101B200002263543056070BD21B1028842F00202F1
:101B3000028004E002884FF6FD731A40028070476D
:101B400021B1028842F00402028004E002884FF6CC
:101B5000FB731A400280704721B1828842F08002F4
:101B6000828004E082884FF67F731A40828070473B
:101B700002884FF6F7731A40028002880A430280F7
:101B8000704782884FF68F731A40828082880A439A
:101B90008280704702894FF6F8731A4002810289E9
:101BA0000A430281704702894FF67F731A4002810F
:101BB00002890A430281704781847047818570479A
:101BC000818670470187704781877047A0F8401071
:101BD000704702884FF6FF431A40028002880A438A
:101BE000028070470146888E70470146088F704713
:101BF0000146888F70470146B1F8400070470146A2
:101C0000888C70470146088D704702460020138A71
:101C10000B400BB1012000E000207047CA43028254
:101C2000704730B50246002000230024158A05EADB
:101C30000103958905EA010413B10CB1012000E00C
:101C4000002030BDCA4302827047000010B5044630
:101C5000FB48844209D101218803FEF719FF0021C6
:101C60004FF48040FEF714FF32E0F648844209D179
:101C700001214804FEF719FF00214FF40030FEF760
:101C800014FF25E0F048844209D101218804FEF7C1
:101C90000CFF00214FF48020FEF707FF18E0EB480F
:101CA000844209D10121C804FEF7FFFE00214FF450
:101CB0000020FEF7FAFE0BE0E548844208D101213E
:101CC0000805FEF7F2FE00214FF48010FEF7EDFE4E
:101CD00010BD2DE9F04786B005460E460024A24609
:101CE00000BFA1460027B08900B100BF2F462C8A53
:101CF0004CF6FF700440F08804432C82AC894EF609
:101D0000F3100440B08831890843718908430443C3
:101D1000AC81AC8A4FF6FF400440B0890443AC82EA
:101D200001A8FEF72EFEC648874202D1DDF810A0BA
:101D300001E0DDF80CA0A88900F4004040B10AEBF6
:101D4000CA0000EB0A1031684900B0FBF1F807E067
:101D50000AEBCA0000EB0A1031688900B0FBF1F809
:101D60006420B8FBF0F004012009642101FB108914
:101D7000A88900F4004040B1322000EBC900B0FB5C
:101D8000F1F000F00700044308E0322000EB0910F6
:101D90006421B0FBF1F000F00F0004432C8106B089
:101DA000BDE8F0874FF41651016000218180C180A9
:101DB00001810C21418100218181704710B50246CB
:101DC0000020108A4FF2FF0318400B884C882343F1
:101DD0008C882343CC8823431843108210BD0021F4
:101DE000018041808180C180704721B1828942F4A5
:101DF0000052828104E082894DF6FF731A4082818D
:101E00007047F0B50346002400260025002040F668
:101E10006A17B94200D100BF1846C1F3421401F05D
:101E20001F06012707FA06F5012C01D10C3004E04A
:101E3000022C01D1103000E014301AB107682F4392
:101E4000076002E00768AF430760F0BD1AB1838AFC
:101E50000B43838202E0838A8B4383827047028A2A
:101E60004FF6F0731A400282028A0A4302827047D8
:101E700082894FF2FF731A40828182890A438281EC
:101E8000704721B1828942F00202828104E0828996
:101E90004FF6FD731A4082817047028A4FF6DF7356
:101EA0001A400282028A0A430282704721B1028AE2
:101EB00042F48042028204E0028A4BF6FF731A4029
:101EC00002827047C1F30802828070470146888809
:101ED000C0F308007047818941F00101818170479A
:101EE000028BD2B20283028B42EA01220283704744
:101EF000028B02F47F420283028B0A430283704703
:101F000021B1828A42F02002828204E0828A4FF666
:101F1000DF731A408282704721B1828A42F0100238
:101F2000828204E0828A4FF6EF731A408282704701
:101F300021B1828A42F00802828204E0828A4FF64E
:101F4000F7731A408282704721B1828942F40042BD
:101F5000828103E08289C2F30E028281704721B13F
:101F6000828A42F40062828204E0828A4FF2FF7326
:101F70001A4082827047828A4FF6FB731A4082822F
:101F8000828A0A438282704721B1828A42F0020229
:101F9000828204E0828A4FF6FD731A408282704783
:101FA00002460020B1F5007F00D100BF13880B402E
:101FB0000BB1012000E00020704701F40072B2F57F
:101FC000007F00D100BFCA430280704770B502464F
:101FD000002400230025002040F66A16B14200D1FB
:101FE00000BFC1F3421501F01F03012606FA03F3F7
:101FF000012D02D19689334006E0022D02D1168AC6
:10200000334001E0968A33400C12012606FA04F4AC
:102010001688344013B10CB1012000E0002070BDDF
:1020200010B50022002340F66A14A14200D100BF7F
:102030000A1201249440A3B2DC43048010BD0000C6
:10204000003801400044004000480040004C00407F
:1020500000500040482001F02BFC00F05DF800F03B
:1020600036FB00F0B8FD00F0B3F8194803F050FD5E
:1020700000F0D4FC00F015FD01F07FF800F0BEFC8C
:1020800000F015FC1349144801F026F81EE001F099
:1020900039FE642001F028FC10211048FEF7B5FA43
:1020A00018B908200E49086010E020210B48FEF7FF
:1020B000ACFA18B90A200A49086007E0402107482D
:1020C000FEF7A3FA10B9032005490860DFE7000016
:1020D000C46900086000002058000020000801408A
:1020E00074000020704700BFFEE700BFFEE700BF9E
:1020F000FEE700BFFEE7704770477047704710B5B6
:1021000001218807FFF78DFD28B100F076FD012140
:102110008807FFF797FD10BD00B585B0012144F297
:102120000400FEF79BFC4FF40070ADF8100018207F
:102130008DF8130003208DF8120004A92248FEF741
:10214000D1F94FF48060ADF8100004208DF8130031
:1021500004A91D48FEF7C6F94FF4E13000900020B5
:10216000ADF80400ADF80600ADF80800ADF80C00BD
:102170000C20ADF80A0069461448FFF7AAFD0121BA
:102180001248FFF732FE05B000BD70B504460D469B
:102190000E480088E1B20D48FFF794FE00BF4021D1
:1021A0000A48FFF7FDFE0028F9D0204670BD10B5A3
:1021B000044600BF20210548FFF7F2FE0028F9D0B1
:1021C0000248FFF783FE10BD0008014000380140BF
:1021D00008B501211C20FEF741FC0120ADF80000EC
:1021E00010208DF8030003208DF8020069461C487A
:1021F000FEF778F90820ADF8000069461948FEF7A7
:1022000071F91020ADF8000069461648FEF76AF92A
:1022100001211348FEF713FA18211248FEF711FAAC
:102220000F20ADF8000003208DF8020010208DF87B
:10223000030069460C48FEF755F90F210A48FEF7DE
:10224000FEF97020ADF8000048208DF803006946C3
:102250000548FEF747F970210348FEF7F0F908BD7D
:10226000000C0140001001400008014010B5A02002
:1022700000F043FA08B9012010BD00F08FF90020EA
:10228000FAE72DE9F04106460F46154600F071F9D0
:10229000A02000F091F900F0D6F900B125E0F8B2E5
:1022A00000F08AF900F0CFF900B11EE000F061F90A
:1022B000A12000F081F900F0C6F900B115E000247A
:1022C0000CE000F0A1F93055681EA04202D000F0E9
:1022D000D6F901E000F0E9F9601C84B2AC42F0DB11
:1022E00000F05CF90120BDE8F08100F057F9002012
:1022F000F9E72DE9F047074688469146464600240F
:102300002BE014B106F00700E0B900F047F9002512
:102310000AE000F02EF9A02000F04EF900F093F949
:1023200000B903E0681C85B2642DF2DB00BFB5F58F
:102330007A7F00D118E0F0B200F03EF900F083F9A6
:1023400000B111E0385D00F037F900F07CF900B120
:102350000AE0701C86B2601C84B24C45D1DB00F0F0
:102360001DF90120BDE8F08700F018F90020F9E719
:1023700010B5C0B0002404E0FF200DF80400601C7C
:1023800084B2FF2CF8DD4FF4807200216846FFF71D
:10239000B0FF20B936A003F0BBFB40B010BD39A0A0
:1023A00003F0B6FB00BFF8E701B502E00098401E5D
:1023B000009000980028F9D108BD10B5ADF5007D5A
:1023C000FFF754FF20B934A003F0A2FB00BFFEE7E3
:1023D000002403E040A90C55601C84B2FF2CF9DDF9
:1023E0004FF48072002140A8FFF783FF28B931A085
:1023F00003F08EFB0DF5007D10BD33A003F088FBCC
:102400003648FFF7D1FF4FF4807200216846FFF78E
:1024100038FF18B932A003F07BFBEBE735A003F0DF
:1024200077FB00241CE01DF8040040A9095D8842E8
:1024300008D01DF8041036A003F06AFB37A003F0A3
:1024400067FBD7E71DF804103DA003F061FB04F023
:102450000F000F2802D13CA003F05AFB601C84B28D
:10246000FF2CE0DD39A003F053FB00BFFEE70000C6
:1024700020B2C1B3FD656570726F6DB3F6B4EDA3A4
:10248000A10D0A0020B2C1B3FD656570726F6DB316
:10249000C9B9A6A3A10D0A0020C3BBD3D0BCECB21E
:1024A000E2B5BDB4AED0D0454550524F4D210D0AD6
:1024B0000000000020D0B4656570726F6DB3F6B493
:1024C000EDA3A10D0A00000020D0B4656570726F05
:1024D0006DB3C9B9A6A3A10D0A000000FFFF0F004C
:1024E00020B6C1656570726F6DB3F6B4EDA3A10D32
:1024F0000A00000020B6C1656570726F6DB3C9B97E
:10250000A6A3ACCAFDBEDDC8E7CFC2A3BA0D0A00C0
:1025100020307825303258200000000020B4EDCE65
:10252000F33A454550524F4DB6C1B3F6D3EBD0B454
:10253000C8EBB5C4CAFDBEDDB2BBD2BBD6C200007B
:102540002025303258000000200D0A0020656570FB
:10255000726F6DB6C1D0B4B2E2CAD4B3C9B9A60D18
:102560000A000000002001E0411CC8B20A28FBDB81
:10257000704710B580206949086040200860FFF767
:10258000F1FF80206549091D0860FFF7EBFF40203F
:102590006249091D0860FFF7E5FF10BD10B58020F6
:1025A0005E49091D08604020091F0860FFF7DAFF37
:1025B00080205A49086010BD70B50446002520E00F
:1025C00004F0800018B180205449086003E08020A6
:1025D0005249091D0860FFF7C5FF40204F490860B8
:1025E000FFF7C0FF40204D49091D0860072D02D1AB
:1025F0008020091F08606006040EFFF7B3FF681C07
:10260000C5B2082DDCDB70BD70B50024002516E0D6
:102610006006040E402041490860FFF7A3FF3F48D1
:102620000838006800F0800008B1601CC4B2402087
:102630003A49091D0860FFF795FF681CC5B2082DCF
:10264000E6DB204670BD10B5802034490860FFF7F6
:1026500089FF402031490860FFF784FF2F48083880
:10266000006800F0800008B1012400E00024402050
:102670002A49091D0860FFF775FF204610BD10B5F7
:1026800080202649091D0860FFF76CFF4020234980
:102690000860FFF767FF40202049091D0860FFF729
:1026A00061FF80201D49086010BD10B580201B49C6
:1026B0000860FFF757FF402018490860FFF752FFF6
:1026C00040201649091D0860FFF74CFF10BD08B5F2
:1026D00001210820FEF7C2F9C020ADF80000032058
:1026E0008DF8020014208DF8030069460B4810385D
:1026F000FDF7F8FEFFF752FF08BD70B50446FFF77F
:10270000E6FFFFF736FF2046FFF756FFFFF79BFF78
:102710000546FFF743FF284670BD0000100C01403E
:1027200000B587B001218803FEF7A5F90121092032
:10273000FEF794F94FF48050ADF8040003208DF8B3
:10274000060010208DF8070001A92D48FDF7CAFEEC
:102750004FF480512A48FDF772FF4FF46040ADF806
:10276000040003208DF8060018208DF8070001A949
:102770002348FDF7B7FE0020ADF808004FF4827043
:10278000ADF80A000020ADF80C000220ADF80E00F4
:102790000120ADF810004002ADF812000820ADF89D
:1027A00014000020ADF816000720ADF8180002A9AB
:1027B0001448FEF7DDF901211248FEF77EFA07B052
:1027C00000BD10B5044600BF02210E48FEF7F9FA1D
:1027D0000028F9D021460B48FEF7A0FA00BF0121DE
:1027E0000848FEF7EEFA0028F9D00648FEF798FAF6
:1027F000C0B210BD10B5FF20FFF7E3FF10BD000011
:10280000000C01400038004008B54FF4E060FDF7CF
:102810009BFD1C208DF8000000208DF80100032096
:102820008DF8020001208DF803006846FDF791FD48
:1028300008BD0EB501210846FEF71DF94FF47A7068
:10284000ADF804004720ADF800000020ADF8060008
:10285000ADF8020069464FF08040FEF7BDFB012154
:102860008807FFF7DBF9012211469007FEF72BFFDF
:1028700001218807FEF70CFF00210120FEF7FBF87D
:102880000EBD000010B5002412222146ED48FFF7CE
:1028900030FD0A2001F028F810BD10B512220021E9
:1028A000E948FFF7EEFC0A2001F045F810BD08B535
:1028B000E448E6490A68026089888180E449096839
:1028C000C0F80610E3490968C0F80A10E24909682F
:1028D000C0F80E10E1490968C0F81210E04800780D
:1028E00010B9E0A003F014F9DD480078022825D1E2
:1028F000FFF7D3FFD4480078D8B9D34840780828E8
:1029000017D1D1488078DC2813D1DEA003F000F97C
:10291000CC48CD49D1F80610C0F80610CA49D1F804
:102920000A10C0F80A10C849D1F80E10C0F80E10ED
:1029300004E0D9A003F0ECF8FFF7A4FFC848007842
:10294000012822D1E2480078012818D1E1A003F043
:10295000DFF8BC48E349D1F80610C0F80610E14999
:10296000D1F80A10C0F80A10DE49D1F80E10C0F8EC
:102970000E10DC49D1F81210C0F8121005E0DAA0F0
:1029800003F0C6F8E0A003F0C3F80120AD49887653
:102990000021AC48C1760A3000F03EFAA9480E305A
:1029A00000F02AFAA748801D00F048FAA84800F075
:1029B00060FAA748C0780090A548837842780178EB
:1029C000D9A003F0A5F8A34800F041FAA148C078C7
:1029D0000090A048837842780178DBA003F098F853
:1029E0009D4800F011FA9C48C07800909A4883787E
:1029F00042780178DCA003F08BF808BD10B591484F
:102A000092490A6802608988818000F00EFAB54810
:102A10008E490A6802608988818010BD08B5FFF779
:102A20007FFE01214FF4AC70FEF718F84FF40070F0
:102A3000ADF8000003208DF8020010208DF803008F
:102A40006946D148FDF74EFD4FF40071CE48FDF7C1
:102A5000F6FD4020ADF8000003208DF8020048206C
:102A60008DF803006946C948FDF73CFD08BD10B567
:102A700004462CB94FF48051C348FDF7E2FD05E050
:102A8000012C03D12103C048FDF7D9FD10BD10B5BD
:102A90000020FFF7ECFF10BD10B50120FFF7E7FFA6
:102AA00010BD10B54FF40071B748FDF7CAFD022004
:102AB00000F041FF4FF40071B348FDF7C0FD4FF443
:102AC000C86000F011FF10BD10B504462046FFF7A6
:102AD00078FE10BD70B504460D46FFF7D8FFC4F36D
:102AE0000740FFF7F1FFC4F30720FFF7EDFF04F005
:102AF000F801091DC8B2FFF7E7FF2846FFF7E4FF1A
:102B0000FFF7CAFF70BD70B504460025FFF7BFFF91
:102B1000C4F30740FFF7D8FFC4F30720FFF7D4FF43
:102B200004F0F800FFF7D0FF0020FFF7CDFF0546C7
:102B3000FFF7B2FF284670BD2DE9F04104460F466D
:102B40001546002615B992A002F0E2FFFFF79FFF9D
:102B5000C4F30740FFF7B8FFC4F30720FFF7B4FF43
:102B600004F0F801091DC8B2FFF7AEFF002604E02B
:102B7000B85DFFF7A9FF701C86B2AE42F8DBFFF725
:102B80008BFF2846BDE8F0812DE9F04104460F4651
:102B90001546002615B97EA002F0BAFFFFF777FFB1
:102BA000C4F30740FFF790FFC4F30720FFF78CFF43
:102BB00004F0F800FFF788FF002605E00020FFF78B
:102BC00083FFB855701C86B2AE42F7DBFFF764FF97
:102BD0002846BDE8F08110B5FFF72BFEFFF714FE85
:102BE00001210846FDF747FF10BD10B5FFF7F3FFC1
:102BF00010BD10B5FFF7EFFF10BD6B480068401C1B
:102C00006949086008460068B0F57A7F10D3002053
:102C1000086066480068401C6449086064480068B1
:102C2000401C6349086063480078401C6149087093
:102C3000704770B560A002F06BFF00204468254625
:102C4000A84770BD9C000020B8000020280000208C
:102C50002E00002032000020360000203A00002024
:102C60004600002020CAB9D3C3B6A8D2E5B5C449EE
:102C700050D0C5CFA2C5E4D6C357353530303A0D54
:102C80000A0000002049502066726F6D20454550B3
:102C9000524F4D0D0A00000020454550524F4DCE79
:102CA000B4C5E4D6C32CCAB9D3C3B6A8D2E5B5C45B
:102CB0004950D0C5CFA2C5E4D6C357353530302CE6
:102CC000B2A2D0B4C8EB454550524F4D0D0A00009A
:102CD000470000202049502066726F6D2044484311
:102CE000500D0A001A0900202044484350D7D3B39E
:102CF000CCD0F2CEB4D4CBD0D02CBBF2D5DFB2BB8B
:102D0000B3C9B9A60D0A000020CAB9D3C3B6A8D268
:102D1000E5B5C44950D0C5CFA2C5E4D6C3573535B3
:102D200030300D0A00000000205735353030204982
:102D300050B5D8D6B72020203A2025642E25642E01
:102D400025642E25640D0A0020573535303020D7F4
:102D5000D3CDF8D1DAC2EB203A2025642E25642E9B
:102D600025642E25640D0A0020573535303020CDDE
:102D7000F8B9D820202020203A2025642E25642E62
:102D800025642E25640D0A00000C0140001001404E
:102D900020556E657870656374656432206C656E6D
:102DA00067746820300D0A00480000204C000020A5
:102DB000540000205000002020CFB5CDB3D6D8C697
:102DC000F4D6D0A1ADA1AD0D0A00000010B50446A7
:102DD00021460020FFF77EFE10BD10B58020FFF7D2
:102DE000F5FF10BD0146F34830F811007047014669
:102DF000F14830F81100704710B50446042221460E
:102E00009001FFF799FE10BD10B50446042221463B
:102E10009001FFF7B9FE10BD10B50446042221460B
:102E20004FF4A060FFF788FE10BD10B504460622DF
:102E300021464FF41060FFF77FFE10BD10B5044629
:102E4000042221464FF47060FFF776FE10BD10B5E6
:102E50000446042221464FF4A060FFF795FE10BD02
:102E600010B50446062221464FF41060FFF78CFE91
:102E700010BD10B50446042221464FF47060FFF7E0
:102E800083FE10BD10B54FF4A850FFF73CFE10BDF7
:102E900010B50446210A4FF4C850FFF71BFEE1B2FB
:102EA0004FF4D050FFF716FE10BD10B50446214672
:102EB0004FF4D850FFF70EFE10BD70B50446FFF773
:102EC000E1FF60EA0400C5B229464FF4A850FFF7BD
:102ED00001FE70BD70B504460D46290A41F2082274
:102EE00002EB4410FFF7F6FDE9B241F2083202EBC3
:102EF0004410FFF7EFFD70BD70B504460D4641F27A
:102F0000086101EB44102946FFF7E4FD70BD10B5E0
:102F100004464FF4027101EB4410FFF7F4FD10BDBD
:102F200070B504460D464FF4027101EB441029467A
:102F3000FFF7D0FD70BD10B504464FF4427101EBB0
:102F40004410FFF7E0FD10BD70B5044600250026D3
:102F500000BF42F2080101EB4410FFF7D4FD064622
:102F600042F2081101EB4410FFF7CDFD00EB062003
:102F700086B27EB142F2080101EB4410FFF7C3FDB7
:102F8000054642F2081101EB4410FFF7BCFD00EBCF
:102F9000052085B2B542DCD1284670BD70B5044627
:102FA0000025002600BF42F2086101EB4410FFF744
:102FB000AAFD064642F2087101EB4410FFF7A3FD9B
:102FC00000EB062086B27EB142F2086101EB4410AC
:102FD000FFF799FD054642F2087101EB4410FFF737
:102FE00092FD00EB052085B2B542DCD1284670BDCC
:102FF0002DE9F04104460F4616460025A8462EB995
:1030000021466EA002F084FDBDE8F08142F2084145
:1030100001EB4410FFF777FD054642F2085101EB42
:103020004410FFF770FD00EB052085B2280200EB8D
:10303000441000F11008324639464046FFF77CFD47
:10304000A81985B2290A42F2084202EB4410FFF7A0
:1030500041FDE9B242F2085202EB4410FFF73AFD9B
:1030600000BFD1E72DE9F04104460F461646002582
:10307000A8462EB9214659A002F04AFDBDE8F081CC
:1030800042F6080101EB4410FFF73DFD054642F60C
:10309000081101EB4410FFF736FD00EB052085B267
:1030A000280200EB441000F1180832463946404629
:1030B000FFF76AFDA81985B2290A42F6080202EB59
:1030C0004410FFF707FDE9B242F6081202EB441084
:1030D000FFF700FD00BFD1E72DE9F04105460E46A0
:1030E0000027B846002433E0295D41F6087202EB60
:1030F0004410FFF7EFFC315D41F6086202EB44102B
:10310000FFF7E8FC00202C4921F81400294921F898
:103110001400B7F5804F07DC285D4FF6FF7101EA18
:103120008020254921F81400B8F5804F07DC305D78
:103130004FF6FF7101EA80201E4921F814001E4855
:1031400030F8140007441B4830F814008044641C15
:10315000082CC9DBBDE8F08170B504460D4642F687
:10316000087101EB44102946FFF7B4FC70BD10B59F
:103170004FF43850FFF7C7FC10BD10B50024FFF71F
:10318000F6FF00F001049CB91CA002F0C1FC0AE0AB
:10319000FFF7EDFF00F001041FA002F0B9FC4FF4AF
:1031A000FA7000F0A1FB002CF2D01CA002F0B0FCE1
:1031B00010BD0000DA000020CA00002043483A2079
:1031C000256420556E657870656374656431206C84
:1031D000656E67746820300D0A0000002043483A8D
:1031E00020256420556E65787065637465643220AF
:1031F0006C656E67746820300D0A0000200D0A208F
:10320000C7EBBCECB2E9CDF8CFDFCAC7B7F1C1ACB0
:10321000BDD33F0D0A000000202E0000200D0A0043
:1032200010B504464FF4847101EB44101021FFF7F0
:1032300051FC00BF4FF4847101EB4410FFF763FCB5
:103240000028F7D14FF4027101EB4410FF21FFF782
:1032500041FC10BD2DE9F04104460D461646984646
:1032600005F00F0001280FD005F00F0002280BD049
:1032700005F00F00032807D005F00F00042803D045
:1032800005F00F00052841D12046FFF7C9FF45EAA8
:103290000801082202EB4410FFF71CFC76B1310A4A
:1032A0004FF4816202EB4410FFF714FCF1B24FF4CB
:1032B000A16202EB4410FFF70DFC15E0FE48008808
:1032C000401CFD4908800A461288110A4FF48162A9
:1032D00002EB4410FFF7FEFBF74A11784FF4A162AE
:1032E00002EB4410FFF7F6FB4FF4847101EB44103E
:1032F0000121FFF7EFFB00BF4FF4847101EB441095
:10330000FFF701FC0028F7D1012700E0002738462D
:10331000BDE8F08170B504464FF4427101EB4410F2
:10332000FFF7F1FB132811D14FF4847101EB441026
:103330000221FFF7CFFB00BF4FF4847101EB441073
:10334000FFF7E1FB0028F7D1012500E00025284622
:1033500070BD2DE9F04105460C4616462078FF2841
:1033600008D16078FF2805D1A078FF2802D1E07845
:10337000FF2808D0207828B9607818B9A07808B953
:10338000E07800B10EB900275CE00127217840F613
:10339000084202EB4510FFF79DFB617840F60852AA
:1033A00002EB4510FFF796FBA17840F6086202EBAE
:1033B0004510FFF78FFBE17840F6087202EB4510ED
:1033C000FFF788FB310A41F2080202EB4510FFF7D4
:1033D00081FBF1B241F2081202EB4510FFF77AFBD4
:1033E0004FF4847101EB45100421FFF773FB00BF1C
:1033F0004FF4847101EB4510FFF785FB0028F7D1EE
:1034000017E04FF4427101EB4510FFF77CFB1728E2
:1034100000D116E02846FFF77AFD00F0080040B121
:103420004FF4027101EB45100821FFF753FB002711
:1034300007E04FF4427101EB4510FFF764FB1528DC
:10344000DFD100BF3846BDE8F08110B504464FF427
:10345000847101EB44100821FFF73CFB00BF4FF4DF
:10346000847101EB4410FFF74EFB0028F7D110BD2B
:103470002DE9F04704468846164600250027A94650
:103480002046FFF7B4FCB04204DA2046FFF7AFFC59
:10349000074600E0374600BF2046FFF755FD81464E
:1034A0004FF4427101EB4410FFF72DFB0546172D39
:1034B00003D01C2D01D0002701E0B945ECDB00BF93
:1034C0003A4641462046FFF793FD4FF4847101EBE5
:1034D00044102021FFF7FEFA00BF4FF4847101EB86
:1034E0004410FFF710FB0028F7D113E04FF44271AE
:1034F00001EB4410FFF707FB0546172D0AD01C2DE2
:1035000008D06EA002F004FB2046FFF789FE0020E1
:10351000BDE8F0874FF4027101EB4410FFF7F3FAB6
:1035200000F010001028E1D14FF4027101EB4410BB
:103530001021FFF7CFFA4FF4027101EB4410102174
:10354000FFF7C8FA3846E3E72DE9F04104460E4696
:1035500015460027002D15DD2A4631462046FFF787
:1035600081FD4FF4847101EB44104021FFF7B2FA62
:1035700000BF4FF4847101EB4410FFF7C4FA002838
:10358000F7D12F463846BDE8F0812DE9F0470446D3
:10359000894616461D46089F4FF000082046FFF753
:1035A00026FCB04204DA2046FFF721FC804600E00A
:1035B000B046287828B9687818B9A87808B9E878A2
:1035C00000B117B94FF0000863E0297840F60842CF
:1035D00002EB4410FFF77EFA697840F6085202EBDE
:1035E0004410FFF777FAA97840F6086202EB44101E
:1035F000FFF770FAE97840F6087202EB4410FFF723
:1036000069FA390A41F2080202EB4410FFF762FA44
:10361000F9B241F2081202EB4410FFF75BFA42469E
:1036200049462046FFF7E4FC4FF4847101EB441057
:103630002021FFF74FFA00BF4FF4847101EB4410D3
:10364000FFF761FA0028F7D112E04FF4027101EBA5
:103650004410FFF758FA00F0080048B14FF4027127
:1036600001EB44101821FFF735FA0020BDE8F08780
:103670004FF4027101EB4410FFF745FA00F010001F
:103680001028E2D14FF4027101EB44101021FFF732
:1036900021FA4046EAE72DE9FC5F05468A46914655
:1036A0001E46DDF8308000270024A346B9F1000F44
:1036B00073DD42F608010DE03E0000202053454E28
:1036C000445F4F4B2050726F626C656D21210D0A73
:1036D0000000000001EB4510FFF715FA044642F622
:1036E000081101EB4510FFF70EFA00EB042084B23D
:1036F000200200EB451000F1180B082101EB4510EA
:10370000FFF701FA00F00700022804D0032845D093
:10371000042878D178E0082269465846FFF734FA41
:1037200004F1080084B29DF8000030709DF801009B
:1037300070709DF80200B0709DF80300F0709DF865
:103740000400A8F800009DF8050098F8001000EBB0
:103750000120A8F800009DF806709DF8070000EB16
:10376000072087B2200200EB451000F1180B3A4603
:1037700051465846FFF708FAE01984B2210A42F68A
:10378000080202EB4510FFF7A5F9E1B242F6081274
:1037900002EB4510FFF79EF96AE07AE006226946DF
:1037A0005846FFF7F1F9A01D84B29DF80000307073
:1037B0009DF8010070709DF80200B0709DF8030044
:1037C000F0709DF804709DF8050000EB072087B2AB
:1037D000200200EB451000F1180B3A4651465846BE
:1037E000FFF7D2F9E01984B2210A42F6080202EB8F
:1037F0004510FFF76FF9E1B242F6081202EB4510EF
:10380000FFF768F934E032E0022269465846FFF7D4
:10381000BBF9A01C84B29DF800709DF8010000EB7C
:103820000720801E87B240F2EA50874204DD1AA0CA
:1038300002F06EF900BFFEE7200200EB451000F138
:10384000180B3A4651465846FFF79EF9E01984B2E4
:10385000210A42F6080202EB4510FFF73BF9E1B2FC
:1038600042F6081202EB4510FFF734F900E000BF02
:1038700000BF4FF4847101EB45104021FFF72AF996
:1038800000BF4FF4847101EB4510FFF73CF90028AD
:10389000F7D13846BDE8FC9F20646174615F6C65B8
:1038A0006E206F76657220313531340D0A000000CC
:1038B0004FF0E021096921F004014FF0E02211618D
:1038C000C21700EB5272C2F3C702FE4B1A701946C0
:1038D000097801EB4102C2EBC1114FF6FF7202EA17
:1038E000C101F94A118070470146F74A12884A43DC
:1038F0004FF0E0235A6100229A6101221A6100BF51
:103900004FF0E022106900F001021AB100F4803299
:10391000002AF5D000224FF0E0231A619A61704727
:1039200010B5044604E04FF47A70FFF7DDFF641E23
:10393000002CF8D110BD0146E24A12784A434FF0FC
:10394000E0235A6100229A6101221A6100BF4FF000
:10395000E022106900F001021AB100F48032002A5E
:10396000F5D000224FF0E0231A619A6170470146BA
:10397000302905DB392903DCA1F13000C0B27047E2
:10398000612905DB662903DCA1F15700C0B2F6E727
:10399000412905DB462903DCA1F13700C0B2EEE77F
:1039A0000846ECE730B502460B46002405E012F865
:1039B000010BFFF7DCFF04FB030410780028F6D1AD
:1039C000A0B230BD30B502460B46002405E012F827
:1039D000010BFFF7CCFF04FB030410780028F6D19D
:1039E000204630BD2DE9F04104460D461646701EB6
:1039F000C7B220223146284601F0B4FC00BF0A209D
:103A000094FBF0F100FB11403030C2B23846791E11
:103A1000CFB22A540A2094FBF0F080B2041EEEDCF0
:103A2000BDE8F0812DE9F04104460F469046264658
:103A30000CB1207810B90020BDE8F0810BE030789F
:103A4000FFF795FF0546002D03DBBD4201DA761C2A
:103A500001E00020F0E730780028F0D1B9B220462C
:103A6000FFF7A0FFC8F800000120E5E710B50B46FE
:103A7000002104E0445C9C4200D14254491C445C57
:103A8000002CF7D110BD014600200A06100C40EAB8
:103A900011207047014600200806C1F3072240EAC2
:103AA0000240C1F3074240EA022040EA1160704739
:103AB0002DE9F04781460E4617461D4631464846D9
:103AC00001F062FC0446304601F086FC04443946AD
:103AD000204601F059FC8246AAEB04001FFA80F848
:103AE00042462146284601F061FC002005F8080006
:103AF000BDE8F0872DE9F04188B006460F46314613
:103B0000684601F084FC6C4600251BE06FA120464E
:103B100001F086FC04462078302809D160787828A6
:103B200006D11021A01CFFF73DFF00F0FF0805E0C3
:103B30000A212046FFF736FF00F0FF0807F805804E
:103B400000246D1C042DE1DB08B0BDE8F0811CB53C
:103B5000044620215E4801F00CFCE0B2C4F30721CA
:103B6000220EC4F30743CDE900105AA1584801F0D2
:103B7000DFFF57481CBD1CB504461021584801F012
:103B8000F8FBE0B2C4F30721220EC4F30743CDE9EA
:103B9000001054A1524801F0ABFF51481CBDF0B5D4
:103BA0008FB006460F4601AC314601A801F02FFC4C
:103BB00000252AE045A1204601F032FC044614B954
:103BC00000200FB0F0BD207830280AD16078782826
:103BD00007D10EAA1021A01CFFF724FF48B900202E
:103BE000EFE70EAA0A212046FFF71CFF08B90020C4
:103BF000E7E70E9878550E98002802DB0E98FF280C
:103C000001DD0020DDE700246D1C042DD2DB012046
:103C1000D7E700B503461846FFF735FF00BD00B5EE
:103C200003461846FFF736FF00BD10B50446204690
:103C3000FFF7EFFF10BD10B504462046FFF7EFFF7A
:103C400010BDF0B502460D46C5F34F060024002115
:103C50000EE012F811304FF6FF7707EA0323012731
:103C600007EB4107D75D1F44BBB21C444F1CB9B2E0
:103C7000B142EEDB05F001071FB112F8113004EB81
:103C80000324A0B200EB1447FF43B8B2F0BDF1B576
:103C900000246D4600BF30E004F5A060FEF733FF5E
:103CA000295D00EA010704F57060FEF72CFF064667
:103CB00004F5A060FEF727FF0640B7421CD00120A4
:103CC000F8BD0000680000206A0000202E000000FF
:103CD000EA00002025642E25642E25642E2564002C
:103CE0000A010020253033642E253033642E253020
:103CF00033642E2530336400641C042CCCDB00209C
:103D0000F8BD000010B500240120FFF714F930B110
:103D1000132810D0172815D01C280BD1ACE0594817
:103D200002880088401C574B188020230121084638
:103D3000FFF790FAA4E05448028854490120FFF7A5
:103D400008FB9DE00120FFF7E2F800F0010018B148
:103D500001210846FFF7E4F80120FFF71FF90446A8
:103D6000002C1FDD22464A490120FFF7EDFB4848A1
:103D7000484908600846006818B10846006800F025
:103D8000E9FF45480078312804D10F214348FCF76A
:103D900058FC07E040480078322803D10F213F4803
:103DA000FCF74DFC3E480068082810D004DC0128D0
:103DB00007D003285ED112E00A2846D00C2859D13A
:103DC0004BE000F0B5FE0C203549086052E00121BF
:103DD000344800F045FF0C20314908604AE0314981
:103DE000086831A100F08BFF4FF49670FFF77CFD5F
:103DF0000120FFF7D3F80446224625490120FFF7AA
:103E0000A3FB2348234908600846006818B1084608
:103E1000006800F09FFF6420FFF766FD0120FFF7B8
:103E2000BDF8044622461A490120FFF78DFB1848C9
:103E3000184908600846006818B10846006800F094
:103E400089FF0C201649086014E00121154800F094
:103E5000DCFE0C20124908600CE018480068782845
:103E600007D9022216490120FFF702FB002013495F
:103E7000086000BF00BF03E00120FFF7D1F900BFD9
:103E800000BF10BD3E000020700000206C0000202C
:103E90001A01002080000020B00D00200008014021
:103EA00074000020780000204D5154542050756259
:103EB0006C6973682054657374000000540000201E
:103EC0007C00002070B504460E460025206898B995
:103ED00001202073304602F0FBFC20602068E0B136
:103EE00000206060A66003E00020216848556D1C3A
:103EF000A068A842F8D810E00220207303E0002058
:103F0000216848556D1CA068A842F8D80020606060
:103F1000A068B04201D20020206070BD10B50446F8
:103F2000207B012802D1206802F0AAFC002020603A
:103F30006060A060207310BD0246002301230DE0E5
:103F400002F07F000870D2092AB1087840F08000A2
:103F50000870491C01E0184670475B1C042BEFDD1C
:103F60004FF0FF30F8E7F0B504460D462646012332
:103F700000201060002114E0775C07F07F071068D4
:103F800007FB03001060705C00F0800008B9481C5B
:103F9000F0BDDB01B3F5001F02D36FF00100F7E7BE
:103FA000491CA942E8DB4FF0FF30F1E7F8B50446C1
:103FB000FF2720780511012D01DB0E2D01DD38468C
:103FC000F8BD032D24D1002000906A460421601C16
:103FD000FFF7C9FF2044461C0098022803D320782D
:103FE00000F0010008B1FF20EAE77078317840EA7C
:103FF0000120801C0099884201D9FF20E0E7FEA142
:10400000B01C01F0C1F908B10F2700E0032700E060
:104010002F463846D4E72DE9FF4F83B082468B46C2
:104020009146159C0025002002900F2701904846DC
:1040300001F0D2F98046B9F1000F03D1012007B099
:10404000BDE8F08F08F10200384487B2109808B13B
:1040500045F00205129878B145F00405129801F078
:10406000BBF9C0B20290139801F0B6F9014602986C
:10407000001D0844384487B2119820B1012804D0AB
:10408000022808D104E000BF07E045F00C0504E079
:1040900045F0140501E00220D1E700BF149808B1F3
:1040A00045F02405BAF1000F02D0BBF1000F01D199
:1040B0000320C4E745F0C005504601F08DF90646DF
:1040C000584601F089F93044001D384487B239461A
:1040D0002046FFF7F7FE206808B90420AFE739460D
:1040E000206801F046F910216268501C6060206869
:1040F0008154D4E90023D118781FFFF71DFF0190E8
:104100000198002804DA2046FFF708FF052096E70B
:10411000616801980844606000216268501C60601A
:104120002068815404216268501C606020688154BA
:104130004D216268501C6060206881545121626882
:10414000501C60602068815454216268501C60607B
:10415000206881546268501C60602068815404218A
:104160006268501C6060206881546168481C60600F
:10417000206845540698010A6268501C60602068F7
:1041800081540698C1B26268501C606020688154F6
:10419000C8F307216268501C60602068815462681F
:1041A000501C6060206800F80280D4E90012881872
:1041B0004246494601F017F960684044606005F0E6
:1041C0000400B8B30026139808B98DA01390129874
:1041D00001F002F986B2310A6268501C6060206802
:1041E00081546268501C606020688654D4E90012D3
:1041F00088183246129901F0F6F860683044606021
:10420000139801F0E9F886B2310A6268501C6060C8
:10421000206881546268501C606020688654D4E92C
:10422000001288183246139901F0DDF860683044B6
:10423000606000BF05F08000C8B1504601F0CCF8C6
:1042400086B2310A6268501C6060206881546268DE
:10425000501C606020688654D4E9001288183246E9
:10426000514601F0C0F860683044606000BF05F05E
:104270004000C8B1584601F0AFF886B2310A626812
:10428000501C6060206881546268501C6060206827
:104290008654D4E9001288183246594601F0A3F832
:1042A00060683044606000BF0020C8E610B5044676
:1042B00002212046FFF706FE206808B9012010BD44
:1042C000E0216268501C60602068815400216268AF
:1042D000501C6060206881540120F0E70146487856
:1042E000022801D001207047887810B18878012811
:1042F00001D1C878F7E7FF20F5E72DE9F84F8046B0
:10430000894693469A460D9C002700250020009080
:104310000026B8F1000F02D10120BDE8F88F00257A
:104320000AE019F80500232803D019F805002B2806
:1043300001D10220F1E76D1C19F805000028F0D129
:1043400046F030060B9808B146F0010605EB0A006E
:10435000871C0A9820B1012804D002280AD105E060
:1043600000BF09E046F00206BF1C05E046F0040667
:10437000BF1C01E00320D0E700BFF91C2046FFF777
:10438000A1FD206808B90420C7E7F91C206800F0E7
:10439000F0FF6168481C606020684654D4E9000260
:1043A00081183846FFF7C8FD00900098002804DA0D
:1043B0002046FFF7B3FD0520AFE761680098084489
:1043C0006060C5F307216268501C606020688154FA
:1043D0006268501C606020688554D4E90012881817
:1043E0002A46494600F0FFFF6068284460600A984A
:1043F00098B14FEA182105E024637265710000004E
:10440000000000006268501C60602068815462688F
:10441000501C6060206800F80280BBF1000F09D0DA
:10442000D4E9001288185246594600F0DCFF606853
:1044300050446060002070E72DE9FF4107460D46BB
:1044400090461E460A9C01200021CDE90001EB1C8C
:104450000A46F7A1CDE902040A20FFF74EFF88B90A
:104460006168481C606020684654C5F30721626893
:10447000501C6060206881546268501C6060206835
:10448000855403E0012004B0BDE8F0810020FAE784
:104490002DE9F84307460C4615462F21F81C00F07D
:1044A00091FF064600200090804616B90120BDE825
:1044B000F883761C6A460421781CFFF754FD2520FA
:1044C00002F006FA2060206808B90220EFE72521F3
:1044D000206800F04EFF24223146206800F030FFB3
:1044E000243600982C381FFA80F808F1010002F0F9
:1044F000EFF92860286820B9206802F0C1F903208C
:10450000D5E708F10101286800F033FF4246314643
:10451000286800F015FF0020C9E72DE9FF5F074676
:104520000D469046384600F057FF86B2284600F008
:1045300053FF1FFA80FA4FF00009B01D02F0C8F9CE
:1045400004461CB9012004B0BDE8F09FB11D20460F
:1045500000F00FFFB7A0016821608088A08032467C
:104560003946204600F03FFF284600F035FF8346DD
:104570000120002100915B462A46CDE90208019105
:1045800021460A20FFF7B9FE10B94FF0000901E0FB
:104590004FF00109204602F073F94846D3E72DE9B0
:1045A000FF5F8046174699460E9C0026B246B346EA
:1045B0000025B8F1000F03D1012004B0BDE8F09F41
:1045C0000BE057F8250008B90220F6E757F8250058
:1045D00000F002FF0644681CC5B24D45F1DB09EB53
:1045E0004900801C00EB060A0AF105012046FFF78E
:1045F00069FC206808B90320DFE782216268501C4B
:10460000606020688154D4E9000281185046FFF7A9
:1046100093FC8346BBF1000F04DA2046FFF77EFCD3
:104620000420CAE76068584460604FEA1821626855
:10463000501C6060206881546268501C6060206873
:1046400000F80280002524E057F8250000F0C4FEA1
:104650000646C6F307216268501C606020688154DA
:104660006268501C606020688654D4E90023D0182A
:1046700057F82510324600F0B6FE6068304460609E
:104680000198C1B26268501C606020688154681C47
:10469000C5B24D45D8DB00208FE70146FF208A7860
:1046A000A2B9CA78142A11D10A7932B1012A05D0E7
:1046B000022A04D0802A06D103E000BF00BF0020F8
:1046C00003E0012001E0022000BF00BF70472DE998
:1046D000F05F80460F4691461C460026B246B34620
:1046E0000025B8F1000F02D10120BDE8F09F0BE0DA
:1046F00057F8250008B90220F7E757F8250000F021
:104700006BFE0644681CC5B24D45F1DB022000EB90
:10471000490000EB060A0AF105012046FFF7D2FB2B
:10472000206808B90320E0E7A2216268501C60609D
:1047300020688154D4E9000281185046FFF7FCFB41
:104740008346BBF1000F04DA2046FFF7E7FB0420A5
:10475000CBE76068584460604FEA18216268501CDB
:104760006060206881546268501C6060206800F8B6
:10477000028000251DE057F8250000F02DFE0646BA
:10478000C6F307216268501C60602068815462682B
:10479000501C606020688654D4E90023D01857F874
:1047A0002510324600F01FFE606830446060681CCF
:1047B000C5B24D45DFDB002097E7014601208A782E
:1047C0001AB9CA781E2A00D1002070472DE9FC5F73
:1047D00081460D4616469A4699F8000000F00F0BE8
:1047E000002001900BF0080000904FF0000800241A
:1047F000CBF341008AF8000001AA042109F101006D
:10480000FFF7B1FB4844471C0198022802D30BF084
:10481000010010B1FF20BDE8FC9F7878397840EAAC
:104820000124A01C0199814208D2FF20F3E7000077
:104830002464700024637273702F0000AFF248414B
:10484000B81C00F0A1FD08B10F20E4E79AF80000C1
:1048500020B1012833D0022872D131E0009808B18C
:10486000FF20D8E7601C02F033F82860286808B9F8
:10487000FF20D0E7611C286800F07BFD2246B91CB0
:10488000286800F05DFD0198801EA0EB040808F187
:10489000010002F01DF83060306820B9286801F08E
:1048A000EFFFFF20B7E708F10101306800F061FD7C
:1048B000BA1C11194246306800F042FD42E000BFC8
:1048C000A01C0199884201D9FF20A4E7E01C395CB3
:1048D000A01C385C41EA00210C9801800C9808B9B2
:1048E000FF2098E7601C01F0F3FF2860286808B9F2
:1048F000FF2090E7611C286800F03BFD2246B91CB0
:10490000286800F01DFD0198001FA0EB040808F1C5
:10491000010001F0DDFF3060306820B9286801F047
:10492000AFFFFF2077E708F10101306800F021FDBB
:104930003A1D11194246306800F002FD02E0FFE71F
:10494000FF2068E700BF2B21284600F03BFD20B97F
:104950002321284600F036FD08B1FF205BE7002048
:1049600059E770B505460C4604212046FFF7AAFA20
:10497000206808B9012070BD62216268501C606027
:104980002068815402216268501C60602068815454
:1049900029126268501C6060206881546268501C53
:1049A0006060206885540020E5E7014648780228C9
:1049B00001D001207047887820B9C8780A2801D131
:1049C0000020F7E70120F5E770B505460C46042105
:1049D0002046FFF777FA206808B9012070BD502102
:1049E0006268501C60602068815402216268501C1B
:1049F00060602068815429126268501C60602068E1
:104A000081546268501C6060206885540020E5E78E
:104A100001464878022801D001207047887820B9E3
:104A2000C8780A2801D10020F7E70120F5E770B522
:104A300005460C4604212046FFF744FA206808B9D1
:104A4000012070BD62216268501C60602068815442
:104A500002216268501C60602068815429126268DB
:104A6000501C6060206881546268501C606020683F
:104A700085540020E5E702465078022801D0012045
:104A800070479078B0EB112F05D1D078CBB2984217
:104A900001D10020F4E70120F2E770B505460C468D
:104AA00004212046FFF70EFA206808B9012070BDE6
:104AB00062216268501C6060206881540221626833
:104AC000501C60602068815429126268501C60602C
:104AD000206881546268501C606020688554002002
:104AE000E5E701464878022801D001207047887820
:104AF00020B9C8780A2801D10020F7E70120F5E79E
:104B000010B5044602212046FFF7DCF9206808B9F9
:104B1000012010BDC0216268501C60602068815473
:104B200000216268501C6060206881540020F0E71A
:104B300030B58BB000200790089009900A90CFA361
:104B4000CFA2DBA1DEA000F0E3FF07A800210291C5
:104B50000391CDE9041000914FF48073C7A2019135
:104B6000C7A1D3A0FFF757FA002849D1089882B20D
:104B700001200799FEF77CFC6420FEF7B5FE08E0F3
:104B80000120FEF70BFA04462246DA490120FEF71F
:104B9000DBFCD84800782028F2D1D64D002D2BD050
:104BA0002846FFF703FA022826D12846FFF796FB8E
:104BB00006281CD2DFE800F003070B0F1317CEA066
:104BC00000F0A6FF17E0D1A000F0A2FF13E0D6A0EE
:104BD00000F09EFF0FE0DDA000F09AFF0BE0E3A0E5
:104BE00000F096FF07E0EAA000F092FF03E0F3A0D8
:104BF00000F08EFF00BF00BF07A8FFF78FF902E0AB
:104C0000F5A000F085FF0BB030BD7FB505460E4620
:104C1000002000900190029003906B463246294696
:104C20000A20FFF754FDD0B9019882B20120009903
:104C3000FEF71EFC6420FEF757FE0120FEF7AEF9DA
:104C400004462246AB490120FEF77EFCA9480078C5
:104C50000B21B1EB201F02D1E8A000F059FF7FBD6E
:104C6000F0B585B004460D46002600200190029064
:104C70000390049006E054F82610E4A000F048FFEA
:104C8000701CC6B2AE42F6DB01A82B4622460021BC
:104C900000901420FFF783FC40B9029882B20120F3
:104CA0000199FEF7E5FB01A8FFF738F96420FEF74C
:104CB0001BFE0120FEF772F907463A468D49012096
:104CC000FEF742FC8B48007930B1012808D0022859
:104CD0000AD0802810D10BE0D2A000F019FF0BE021
:104CE000D6A000F015FF07E0DAA000F011FF03E006
:104CF000DEA000F00DFF00BF00BF05B0F0BD70B535
:104D000088B005460C460020049005900690079058
:104D100022462946D8A000F0FBFE204600F05CFBAE
:104D2000064604A80121002200923346CDE9012164
:104D30000390224629460A20FFF7DFFA40B905987A
:104D400082B201200499FEF793FB04A8FFF7E6F86E
:104D500008B070BD2DE9F0438BB0074600200790E6
:104D6000089009900A90069005900026049000256E
:104D7000002480463846FFF719F90646F01E0D2834
:104D800070D2DFE800F026707A79786F776F766FEF
:104D90006F6F070006AA05A93846FFF779FB05469D
:104DA000B5B9BDA0DDE9051200F0B2FE07AADDE944
:104DB0000501FFF7B2FB58B9BDA000F0A9FE0898A5
:104DC00082B201200799FEF753FB07A8FFF7A6F868
:104DD000FFE1BD4804AB06AA05A900903846FFF7DD
:104DE000F5FC0546002D3CD1B8A0DDE9051200F028
:104DF0008FFE069800F0F0FA81464A46BA480699B6
:104E000000F09EFA9DF81000012802D0022826D159
:104E100012E007A9AC480088FFF7A3FD58B9B3A07A
:104E200000F076FE089882B201200799FEF720FB79
:104E300007A8FFF773F813E007A9A3480088FFF756
:104E4000C3FD58B9AFA000F063FE089882B20120FC
:104E50000799FEF70DFB07A8FFF760F800E000BF19
:104E600000BFB6E1B2E13846FFF79FFD00B955E15A
:104E700057E19FE192E189E16DE153E131000000EA
:104E800049484A77794E4A69647346336B7531767F
:104E900037413362336137417051556C58677959E6
:104EA00055525542764A2B616856413D000000003C
:104EB0006D7174745F746573742F7735353030009D
:104EC000B0D9B6C8CCECB9A45F4465764C696E6BBA
:104ED0000D0A50524F49443A2025732C0941554937
:104EE000463A2025732C0944455649443A25730D0A
:104EF0000A000000300D0020546970733A09C1ACFB
:104F0000BDD3B3C9B9A60D0A000000005741524EE7
:104F10003A09C1ACBDD3CAA7B0DCA3BAD0ADD2E9BF
:104F2000B4EDCEF30D0A00005741524E3A09C1AC20
:104F3000BDD3CAA7B0DCA3BAB7C7B7A8B5C4636C62
:104F400069656E7469640D0A000000005741524E95
:104F50003A09C1ACBDD3CAA7B0DCA3BAB7FECEF143
:104F6000C6F7CAA7B0DC0D0A000000005741524E38
:104F70003A09C1ACBDD3CAA7B0DCA3BAD3C3BBA79F
:104F8000C3FBBBF2C3DCC2EBB4EDCEF30D0A0000F1
:104F90005741524E3A09C1ACBDD3CAA7B0DCA3BA3F
:104FA000B7C7B7A8C1B4BDD328B1C8C8E7746F6B81
:104FB000656EB7C7B7A8290D0A0000004552523ADE
:104FC00009C1ACBDD3CAA7B0DCA3BACEB4D6AAB4CB
:104FD000EDCEF30D0A0000005741524E3A094D51F3
:104FE00054545F5061636B6574436F6E6E65637498
:104FF000204661696C65640D0A000000B3C9B9A65A
:10500000C8A1CFFBB6A9D4C40D0A000053756273C2
:10501000637269626520546F7069633A2025730D6D
:105020000A000000B6A9D4C4C8B7C8CFA3AC2051A9
:105030006F53B5C8BCB6300D0A000000B6A9D4C481
:10504000C8B7C8CFA3AC20516F53B5C8BCB6310D9B
:105050000A000000B6A9D4C4C8B7C8CFA3AC205179
:105060006F53B5C8BCB632200D0A0000B6A9D4C42F
:10507000CAA7B0DC200D0A005075626C6973682005
:10508000546F7069633A2025732C204D73673A2062
:1050900025730D0A00000000636D6469643A2025E1
:1050A000732C207265713A2025730D0A00000000F0
:1050B000546970733A0953656E6420436D64526598
:1050C00073700D0A0000000084000020746F706986
:1050D000633A2025730D0A7061796C6F61643A2020
:1050E00025730D0A00000000B00D00205469707394
:1050F0003A0953656E64205075626C697368416348
:105100006B0D0A00546970733A0953656E64205040
:1051100075626C6973685265630D0A0043A000F004
:10512000F7FC56E03846FFF773FC98B947A000F04B
:10513000EFFC07A90A20FFF77AFC58B949A000F054
:10514000E7FC089882B201200799FEF791F907A8B9
:10515000FEF7E4FE3DE0494801883846FFF78BFC46
:1051600098B947A000F0D4FC07A90A20FFF795FCE6
:1051700058B949A000F0CCFC089882B201200799E8
:10518000FEF776F907A8FEF7C9FE22E03846FFF7DA
:10519000A8FC10B947A000F0BBFC1AE03846FFF7A6
:1051A0007CFA18B949A000F0B3FC02E04EA000F070
:1051B000AFFC0EE03846FFF700FB18B951A000F035
:1051C000A7FC02E056A000F0A3FC02E04FF0FF3580
:1051D00000BF00BF681C10B90BB0BDE8F0837D2193
:1051E000069800F0EFF80446A4B1681C90B1641C66
:1051F00006E014F8012B404608F1010801A90A5401
:105200002078302802DB20783928F2DD01A800F070
:1052100029F980460F2E01D0032E05D1059801F003
:105220002FFB069801F02CFB00BFD5E75469707383
:105230003A094D515454205075626C69736820537B
:10524000656E64204F4B0D0A0000000054697073B6
:105250003A09526576205075626C697368526563CD
:105260000D0A0000546970733A0953656E6420504A
:1052700075626C69736852656C0D0A0084000020C9
:10528000546970733A09526576205075626C69737F
:105290006852656C0D0A0000546970733A095365D1
:1052A0006E64205075626C697368436F6D700D0A8F
:1052B00000000000546970733A09526576205075F9
:1052C000626C697368436F6D700D0A005469707386
:1052D0003A094D5154542053756273637269626583
:1052E000204F4B0D0A000000546970733A094D516C
:1052F00054542053756273637269626520457272FB
:105300000D0A0000546970733A094D5154542055E8
:105310006E537562736372696265204F4B0D0A00AC
:10532000546970733A094D51545420556E53756247
:10533000736372696265204572720D0A0000000095
:1053400040EA01039B0703D009E008C9121F08C007
:10535000042AFAD203E011F8013B00F8013B521E87
:10536000F9D27047D2B201E000F8012B491EFBD2FE
:1053700070470022F6E710B513460A460446194660
:10538000FFF7F0FF204610BD30B505462A460B4614
:1053900012F8010B13F8014B08B1A042F8D01CB170
:1053A000002802D06D1CF1E7284630BD10B5044638
:1053B00004E00B7800F8013B03B1491C521EF8D2FF
:1053C000204610BDCAB2401E10F8011F8A4202D00A
:1053D0000029F9D100207047421C10F8011B002958
:1053E000FBD1801A704710B5044600E0401C0378DA
:1053F000002BFBD100E0401C521E04D311F8013BEE
:105400000370002BF7D100210170204610BD034628
:1054100011F8012B00F8012B002AF9D1184670472A
:1054200070B50F4D00B92868002412E00A4602E06A
:105430009E4203D0521C1378002BF9D1DAB22243DA
:1054400005D02BB124B1002100F8011B04E0044673
:10545000401C0678002EE9D12860204670BD00006F
:105460008800002070B5064600F076FB046805460B
:105470000A220021304600F049F82C6070BD30B59A
:105480000B46014600202022012409E021FA02F502
:105490009D4205D303FA02F5491B04FA02F528449C
:1054A000151EA2F10102F1DC30BD2DE9F05F0546C9
:1054B000002092469B4688460646814640241BE0D3
:1054C000284641464746224600F031FA53465A469E
:1054D000C01A914110D311461846224600F018FA1E
:1054E0002D1A67EB01084F4622460120002100F0EB
:1054F0000FFA17EB00094E41201EA4F10104DFDC76
:10550000484631462A464346BDE8F09F2DE9F0471C
:1055100091460F4680460446002614F8015B2DB1E3
:1055200000F028FA0068405DC007F6D12B2D02D0AC
:105530002D2D18D0641E4A463946204600F01EFA2A
:1055400027B13968A14201D1C7F8008071054FF039
:1055500002040BD54042002803DD00F0FDFA046090
:10556000A007BDE8F08746F48066E4E70028F8DA93
:1055700000F0F2FA04606FF00040F2E72DE9FE4F10
:10558000804681EA0300C00F0C46009021F00041E4
:1055900023F00045B8EB0200A94105D24046214660
:1055A00090461C460B46024623F00040104347D06D
:1055B000270DC7F30A00C3F30A510290401A019065
:1055C00040286BDAC3F3130040F4801B0098924626
:1055D00020B10023D2EB030A63EB0B0B0198594671
:1055E000C0F14002504600F093F906460D46504681
:1055F0005946019A00F0ABF910EB08006141002414
:1056000087EA115284EAE7731A4340D0009A62B3E2
:10561000019A012A4FEA075215DC001B61EB0201D7
:105620004FF0004202EA0752CDE90042001C41F56A
:10563000801132462B4600F0FFF903B0BDE8F08F31
:1056400040462146F9E7001B61EB0201001C41F5D1
:10565000801300185B412018A2F5001747EB0301E7
:1056600040EAD570B6196D4111E06D084FEA360673
:1056700045EAC0754FEA0752001B61EB0201001CAE
:1056800041F5801149084FEA300000195141324676
:105690002B4603B0BDE8F04F00F0BFB900980122DF
:1056A00040000023D0EB020263EBE0730098214638
:1056B0004FEAE074B8EB000061EB0401E9E783F026
:1056C00000435BE781F0004158E72DE9FE4F81EA96
:1056D000030404F0004421F0004100944FF0000B5B
:1056E00023F0004350EA01045ED052EA03045BD089
:1056F000C3F30A54C1F30A552C44A4F2F3340194C1
:10570000A0FB0254C1F3130141F48011C3F313034E
:1057100043F4801301FB024400FB034E840A970A02
:1057200044EA815447EA8357A4FB076802958D0A2F
:1057300005FB07854FEA932C04FB0C542705029DBB
:105740004FEA065847EA1637B5EB08056EEB070C2B
:10575000870E920E47EA811742EA8312A7FB0201E5
:10576000B6EB0B0164EB00042B0D43EA0C335E181F
:1057700044EB1C50DA465146E7FB0201C5F3130423
:105780004FEA0B3343EA14534FEA0432019C43EAD5
:105790000603A4F10C040294009CCDE900B400F0CF
:1057A0004BF903B0BDE8F08F00200146F9E72DE981
:1057B000F04D81EA030404F0004B21F0004514464B
:1057C0004FF0000A23F0004150EA050220D054EACD
:1057D00001021DD0C5F30A570246C5F31303C1F3F6
:1057E0001300C1F30A5640F4801543F48013A7EB6D
:1057F0000608101BD64608F2FD3873EB050002D3ED
:1058000008F1010801E092185B41B8F1000F03DADA
:1058100000200146BDE8F08D00204FF480110646BF
:1058200084460EE0171B73EB050705D3121B63EBD1
:10583000050306434CEA010C49084FEA3000921870
:105840005B4150EA0107EDD152EA030012D082EA2F
:10585000040083EA0501084305D0101BAB4106D2C2
:105860000122002306E000224FF0004302E06FF027
:10587000010253101AEB06004CEB085110EB0A0022
:1058800041EB0B01BDE8F04D00F0C7B8C1F30A527F
:10589000C1F3130140F2FF3341F480119A4202DA5E
:1058A00000200146704740F233439A42A2F233424D
:1058B00002DC524200F03BB800F02AB830B5041EBA
:1058C00071F1000404DB4FF00044404264EB01013D
:1058D000141E73F1000405DB1C464FF000435242D6
:1058E00063EB0403994208BF904230BD064C074D5C
:1058F00006E0E06840F0010394E8070098471034A0
:10590000AC42F6D3FAF718FC106A0008306A0008B7
:10591000202A04DB203A00FA02F10020704791406F
:10592000C2F1200320FA03F3194390407047202A64
:1059300004DB203A21FA02F00021704721FA02F339
:10594000D040C2F120029140084319467047202AF6
:1059500006DBCB17203A41FA02F043EAE07306E097
:1059600041FA02F3D040C2F12002914008431946A7
:105970007047000000487047C06900082DE9F05FDB
:1059800082460078002715468B460AF10104B94685
:10599000302801D09DB113E014F8010B01277828BD
:1059A00003D0582801D045B10AE00DB1102D07D120
:1059B0000027102514F8010B02E0082500E00A2555
:1059C0000026B0460EE005FB080005FB06F10127A6
:1059D00001EB10461FFA80F8B6F5803F00D3B946B8
:1059E00014F8010B294600F075F80028EBDABBF13A
:1059F000000F05D00FB1641E00E05446CBF8004004
:105A0000B9F1000F06D000F0A7F802210160C81E0E
:105A1000BDE8F09F48EA0640FAE710B5141E73F19E
:105A2000000408DA401C41F1000192185B411A435E
:105A300001D120F0010010BD2DE9F04D92469B46AA
:105A400011B1B1FA81F202E0B0FA80F22032904650
:105A5000FFF75EFF04460F4640EA0A0041EA0B01E9
:105A600053465A46084313D0114653EA010019D051
:105A7000C8F140025046FFF75AFF05460E46504611
:105A800059464246FFF744FF084305D0012004E091
:105A900020463946BDE8F08D0020054346EAE07611
:105AA0002C4337430A986305E40AA0EB0800002260
:105AB000FD0A44EA47540A3002D500200146E9E7CE
:105AC000010510196941DDE9084500196941BDE882
:105AD000F04DA2E73A2800D2303820F02002412AC7
